:020000040800F2
:10000000A8040020D5200008AD030008AF030008B5
:10001000B3030008B7030008BB030008000000009A
:10002000000000000000000000000000BF03000806
:10003000C103000800000000C3030008C503000856
:10004000EF200008EF200008EF200008EF20000854
:10005000EF200008EF200008EF200008EF20000844
:10006000EF200008EF200008EF200008EF20000834
:10007000EF200008EF200008EF200008EF20000824
:10008000EF200008EF200008EF200008EF20000814
:10009000EF200008EF200008EF200008EF20000804
:1000A000EF200008EF200008EF200008EF200008F4
:1000B000E5030008EF200008EF200008EF2000080B
:1000C000EF200008EF200008EF200008EF200008D4
:1000D000EF200008D5030008EF200008DD0300082A
:1000E000EF200008EF200008EF200008EF200008B4
:1000F000EF200008EF200008EF200008EF200008A4
:10010000EF200008EF200008ED030008EF200008B2
:10011000EF200008EF200008EF200008EF20000883
:10012000EF200008EF200008EF200008EF20000873
:10013000EF200008EF200008EF200008EF20000863
:10014000EF200008EF200008EF200008EF20000853
:10015000EF200008EF200008EF200008EF20000843
:10016000EF200008EF200008EF200008EF20000833
:10017000EF200008EF200008EF200008EF20000823
:10018000EF200008EF200008DFF80CD002F00CFE92
:100190000048004795050008A80400200CB5002081
:1001A000019000907648006840F4803074490860FF
:1001B00000BF7348006800F4003000900198401CB4
:1001C0000190009818B90198B0F5A04FF1D16C4892
:1001D000006800F4003010B10120009001E0002020
:1001E00000900098012846D165484030006840F0F2
:1001F00080506349403108606248006840F44040E4
:10020000604908605E48083000685D490831086050
:100210000846006840F4004008600846006840F462
:10022000A05008605848091F0860081F006840F087
:100230008070091F086000BF5148006800F000701E
:100240000028F9D040F20570504908604C48083049
:10025000006820F003004A49083108600846006839
:1002600040F00200086000BF45480830006800F018
:100270000C000828F8D10CBD10B54548006840F4C2
:100280007000434908603E48006840F001003C4966
:10029000086000203A4908310860394800683D4943
:1002A0000840374908603C48091D0860081F00687D
:1002B00020F48020091F0860002031490C310860BB
:1002C000FFF76CFF4FF0006031498039086010BDC6
:1002D00070B500200022022300240221284D083599
:1002E0002D6805F00C0020B1042806D0082834D170
:1002F00007E02A4D2A4E356033E02A4D284E3560FE
:100300002FE01F4D2D1D2D68C5F380541C4D2D1D54
:100310002D6805F03F0154B1224DB5FBF1F5184EA3
:10032000361D3668C6F3881605FB06F209E01B4D3C
:10033000B5FBF1F5124E361D3668C6F3881605FB7F
:1003400006F20F4D2D1D2D68C5F301456D1C6B0088
:10035000B2FBF3F5124E356003E0104D104E3560E0
:1003600000BF00BF064D08352D68C5F303150E4EBE
:10037000705D0B4D2D68C540094E356070BD0000A5
:10038000003802400070004019544007003C024011
:1003900088ED00E0FFFFF6FE103000240024F4009A
:1003A0000000002040787D0104000020704700BF5D
:1003B000FEE700BFFEE700BFFEE700BFFEE77047B5
:1003C0007047704710B503F0CDFA02F053FD02F00C
:1003D0004BFE10BD10B502F0EBFD10BD10B502F0E4
:1003E000E7FD10BD10B502F051FD10BD10B502F0D3
:1003F00097FD10BD00B52DED0A8B85B09FED700BFC
:10040000B0EE408AF0EE608A9FED6D1B9FED6C0BA5
:1004100002F02DF8012001F061FF6BA002F004FE54
:1004200050E0B0EE481AF0EE681AB0EE480AF0EE6E
:10043000680A02F01CF84FF47A7001F03EFF0220C7
:1004400002F0C4FC0390022002F0EAFC049004983D
:1004500002F060FB41EC1C0B9FED5D0B53EC102B8D
:1004600002F077FA41EC1B0B9FED5B0B53EC102B6A
:1004700002F0E1FA41EC190B039802F04BFB41EC5E
:100480001C0B9FED530B53EC102B02F062FA41EC66
:100490001B0B9FED510B53EC102B02F0CCFA41ECEF
:1004A0001A0B8DED009B53EC1A2B4DA002F0BCFDF6
:1004B0009FED4E0B53EC102B51EC180B02F0A2F9F0
:1004C00041EC180B9FED4B0B53EC102B51EC180B20
:1004D00002F04CFBA5D350E0B0EE481AF0EE681ADB
:1004E000B0EE480AF0EE680A01F0C1FF4FF47A70EE
:1004F00001F0E3FE022002F069FC0390022002F00A
:100500008FFC0490049802F005FB41EC1C0B9FED5E
:10051000300B53EC102B02F01CFA41EC1B0B9FED3F
:100520002E0B53EC102B02F086FA41EC190B0398BA
:1005300002F0F0FA41EC1C0B9FED250B53EC102B55
:1005400002F007FA41EC1B0B9FED230B53EC102B31
:1005500002F071FA41EC1A0B8DED009B53EC1A2B53
:100560001FA002F061FD9FED210B53EC102B51EC0D
:10057000180B02F0E8F941EC180B9FED110B53EC4E
:10058000102B51EC180B02F009FBA5D305B0BDEC04
:100590000A8B00BD01F070FE01F0B2FD01F0D4FD48
:1005A00002F006F801F0CDFE4FF47A7001F085FEFE
:1005B00012A002F039FDFFF71DFF00BFFEE70000AB
:1005C00000000000000000004C2C20522C0D0A00FE
:1005D000000000000000F03F0000000080841E4189
:1005E00025662C25662C0D0A000000007B14AE4702
:1005F000E17AA43F9A9999999999E93F2048656CC5
:100600006C6F20576F726C64210D0A0010B50446A0
:10061000FE48844208D10121084601F06CFB00210C
:10062000012001F068FB9DE0B4F1804F08D1012169
:10063000084601F04FFB0021012001F04BFB91E047
:10064000F348844208D10121022001F043FB00213C
:10065000022001F03FFB85E0EE48844208D10121F1
:10066000042001F037FB0021042001F033FB79E086
:10067000E948844208D10121082001F02BFB002128
:10068000082001F027FB6DE0E448844208D10121F5
:10069000102001F01FFB0021102001F01BFB61E086
:1006A000DF48844208D10121202001F013FB002102
:1006B000202001F00FFB55E0DA48844208D10121E7
:1006C000022001F018FB0021022001F014FB49E098
:1006D000D548844209D10121080401F00CFB002116
:1006E0004FF4803001F007FB3CE0D048844209D150
:1006F0000121480401F0FFFA00214FF4003001F01D
:10070000FAFA2FE0CA48844209D10121880401F095
:10071000F2FA00214FF4802001F0EDFA22E0C54802
:10072000844208D10121402001F0D4FA0021402068
:1007300001F0D0FA16E0C048844208D1012180209F
:1007400001F0C8FA0021802001F0C4FA0AE0BB4899
:10075000844207D10121801501F0BCFA0021A015C7
:1007600001F0B8FA10BD00220288A84B98420ED0C2
:10077000AC4B98420BD0B0F1804F08D0A44B9842BC
:1007800005D0A44B984202D0A34B984204D14FF617
:100790008F731A404B881A43A04B984207D0A04B46
:1007A000984204D04FF6FF431A400B891A43028047
:1007B0004B68C3620B880385944B984202D0994BD7
:1007C000984201D18B7A03860123838270474FF0D0
:1007D000FF314160002101800181418081727047B9
:1007E0000185828270470A46002101884FF68F7387
:1007F000194011430180704741627047C1627047E0
:100800000146486A70470146088D704721B1028849
:1008100042F00202028004E002884FF6FD731A40A3
:100820000280704721B1028842F00402028004E095
:1008300002884FF6FB731A400280704721B102888C
:1008400042F08002028004E002884FF67F731A4073
:100850000280704702884FF6F7731A4002800288C0
:100860000A430280704702884FF6FF431A40028015
:1008700002880A430280704721B1028842F00102D7
:10088000028004E002884FF6FE731A40028070472F
:1008900070B5002400220023058C4FF6FE7635400B
:1008A0000584028C8388048B4FF68F752C40B51E0F
:1008B0002C400D882C43751E2A408D892A434D8873
:1008C0002A43524DA84202D0564DA84213D14FF6AA
:1008D000F7752A40CD892A434FF6FB752A408D884B
:1008E0002A434FF6FF652B404FF6FF552B400D8AEC
:1008F0002B434D8A2B43838004838D684563028498
:1009000070BD70B5002400220023058C4FF6EF76F1
:1009100035400584028C8388048B48F6FF752C4093
:100920004FF6FF452C400D884FF6FF7606EA052569
:100930002C434FF6DF752A408D8906EA05152A43B8
:100940004D8806EA05152A43304DA84202D0354DA0
:10095000A8421DD14FF67F752A40CD894FF6FF760C
:1009600006EA05152A434FF6BF752A408D8806EA28
:1009700005152A434FF6FF352B404FF2FF752B40EC
:100980000D8A06EA85052B434D8A06EA85052B4329
:10099000838004838D688563028470BD70B50024F4
:1009A00000220023058C4FF6FF6635400584028C3B
:1009B0008388848B4FF68F752C404FF6FC752C4046
:1009C0000D882C434FF6FF552A408D894FF6FF7650
:1009D00006EA05252A434D8806EA05252A430B4DDC
:1009E000A84202D00F4DA84238D14FF2FF752A40DD
:1009F000CD894FF6FF7606EA05252A434FF6FF35E7
:100A00002A408D8806EA05252A4319E000000140A6
:100A10000004004000080040000C004000100040AE
:100A20000014004000040140004001400044014027
:100A30000048014000180040001C00400020004019
:100A40004EF6FF752B404DF6FF752B400D8A06EADA
:100A500005152B434D8A06EA05152B4383808483B5
:100A60008D68C563028470BD70B500220023002428
:100A7000058C4EF6FF7635400584038C8488828B86
:100A800048F6FF752A404FF6FF452A400D884FF67D
:100A9000FF7606EA05252A434DF6FF752B408D8922
:100AA00006EA05352B434D8806EA05352B43FE4DF6
:100AB000A84202D0FD4DA84208D14BF6FF752C404C
:100AC0000D8A4FF6FF7606EA85152C4384808283D3
:100AD0008D680564038470BD0021018041808180A0
:100AE00081608181C18101824182704770B5034676
:100AF000002000241846183001258D40ACB21D8C12
:100B0000A5431D8409B108290AD100EB61000568DD
:100B10004FF68F76354005600568154305600FE098
:100B20000D1FC5F34E052844056848F6FF7635408D
:100B3000056005684FF6FF7606EA02263543056034
:100B400070BD4163704781637047C1637047016442
:100B500070470A460021018B4FF68F7319401143ED
:100B6000018370470A460021018B48F6FF73194044
:100B70004FF6FF7303EA02231943018370470A46C5
:100B80000021818B4FF68F73194011438183704789
:100B90000A460021818B48F6FF7319404FF6FF7318
:100BA00003EA02231943818370470A460021018B1F
:100BB0004FF6F77319401143018370470A4600212D
:100BC000018B4FF2FF7319404FF6FF7303EA0223C4
:100BD0001943018370470A460021818B4FF6F77352
:100BE00019401143818370470A460021818B4FF2DF
:100BF000FF7319404FF6FF7303EA02231943818301
:100C000070470A460021018B4FF6FB7319401143D0
:100C1000018370470A460021018B4FF6FF331940CC
:100C20004FF6FF7303EA02231943018370470A4614
:100C30000021818B4FF6FB7319401143818370476C
:100C40000A460021818B4FF6FF3319404FF6FF73A0
:100C500003EA02231943818370470A460021018B6E
:100C60004FF67F7319401143018370470A460021F4
:100C7000018BC1F30E014FF6FF7303EA0223194300
:100C8000018370470A460021818B4FF67F7319401C
:100C90001143818370470A460021818BC1F30E0105
:100CA0004FF6FF7303EA02231943818370470A4614
:100CB0000021018C4FF6FD731940114301847047E8
:100CC0000A460021018C4FF6F77319401143018445
:100CD00070470A460021018C4FF6DF7319404FF62A
:100CE000FF7303EA02131943018470470A46002187
:100CF000018C4FF67F7319404FF6FF7303EA02131E
:100D00001943018470470A460021018C4FF6FF53B6
:100D100019404FF6FF7303EA022319430184704719
:100D20000A460021018C4FF2FF7319404FF6FF7302
:100D300003EA02231943018470470A460021018C0B
:100D40004DF6FF7319404FF6FF7303EA0233194360
:100D50000184704730B5002301248C40A3B2048C79
:100D60009C430484048C02FA01F5ADB22C43048444
:100D700030BD30B5002304248C40A3B2048C9C43C6
:100D80000484048C02FA01F5ADB22C43048430BD16
:100D9000828B4FF2FF331A408283828B4FF6FF73B0
:100DA00003EA01231A4382837047F0B50C461546C7
:100DB000002100220026078C4EF6FF7C07EA0C0774
:100DC0000784818B028C4FF6FF7707EA043640F6E2
:100DD000FF4739404FF6FF7707EA052739434FF6BB
:100DE000FF7707EA0337394345F6FF773A4046F481
:100DF00080573A4381830284F0BD828B4FF6F373B0
:100E00001A408283828B0A4382837047F0B50C4676
:100E10001546002100220026078C4FF6FF6C07EADA
:100E20000C070784818B028C4FF6FF7707EA0426B4
:100E30004FF60C7739404FF6FF7707EA03172F4339
:100E400039434FF2FF573A4046F480773A43818363
:100E50000284F0BD028B4FF2FF331A400283028BF3
:100E60004FF6FF7303EA01231A4302837047F0B57C
:100E70000C461546002100220026078C4FF6EF7C19
:100E800007EA0C070784018B028C4FF6FF7707EA0D
:100E9000041640F6FF4739404FF6FF7707EA03375D
:100EA00039434FF6FF7703E00000014000040140A2
:100EB00007EA052739434FF65F773A4046F01007B7
:100EC0003A4301830284F0BD028B4FF6F3731A405C
:100ED0000283028B0A4302837047F0B50C46154625
:100EE00000210022068C4FF6FE773E400684018BDF
:100EF000028C4FF60C7631407E1C06EA03162E4318
:100F000031434FF6F576324044F001063243018317
:100F10000284F0BD70B505460C46208850B923897F
:100F2000A28861882846FFF7D8FFE1882846FFF7A6
:100F3000CBFF25E0208804280AD12389A288618874
:100F40002846FFF794FFE1882846FFF783FF17E064
:100F5000208808280AD12389A28861882846FFF7BB
:100F600055FFE1882846FFF748FF09E02389A2885A
:100F700061882846FFF719FFE1882846FFF708FF38
:100F800070BD002101804180012181800021C1804C
:100F9000018170472DE9F04105460C4600260127E6
:100FA000608808B9022600E00026A088012801D147
:100FB000022700E001272088A0B92389A288618840
:100FC0002846FFF78AFFE1882846FFF77DFF23893F
:100FD0003A4631462846FFF74AFFE1882846FFF7A0
:100FE00039FF13E02389A28861882846FFF73FFF75
:100FF000E1882846FFF72EFF23893A4631462846E6
:10100000FFF76BFFE1882846FFF75EFFBDE8F08140
:101010000146486B70470146886B70470146C86BB4
:1010200070470146086C70470A884B881A438B88C2
:101030001A43CB881A430B891A434B891A438B896D
:101040001A43A0F84420704700210180418081802C
:10105000C180018141818181704731B1B0F8442064
:1010600042F40042A0F8442005E0B0F84420C2F366
:101070000E02A0F84420704721B1828842F0040299
:10108000828004E082884FF6FB731A4082807047AA
:1010900021B1828842F00102828004E082884FF60A
:1010A000FE731A40828070471AB183890B43838193
:1010B00002E083898B4383817047818270470246B7
:1010C0000020138A0B400BB1012000E00020704784
:1010D000CA430282704730B5024600200023002434
:1010E000158A05EA0103958905EA010413B10CB1DB
:1010F000012000E0002030BDCA430282704741EA6F
:101100000203A0F8483070471AB183890B438381EA
:1011100002E083898B438381704721B1828842F04A
:101120000802828004E082884FF6F7731A408280BA
:10113000704701894FF6F8721140018170470A46E5
:10114000002101894FF68F731940114301817047C7
:1011500030B504460D4629462046FFF7F0FF2089AA
:1011600040F00700208130BD2DE9F04104460D46D6
:1011700016461F46602D06D13B46012231462046C9
:10118000FFF775FE05E03B46012231462046FFF79A
:10119000A4FE29462046FFF7D2FF208940F0070031
:1011A0002081BDE8F08130B50C4600210189C9B22B
:1011B0004FF6FF7505EA03251543254329430181B1
:1011C00030BD2DE9F04105460E46174698460024ED
:1011D00043463A4631462846FFF7E5FF2C894FF64D
:1011E000F870044044F007044FF68F70044044F058
:1011F00070042C81BDE8F081F0B504460D4616461A
:101200001F463B46324629462046FFF7CCFF208941
:1012100040F480402081F0BD82884FF68F731A40E1
:10122000828082880A438280704702894FF6F87371
:101230001A40028102890A430281704702894FF6EF
:101240007F731A40028102890A4302817047F0B518
:101250000C4615461E460021002200230189028B00
:10126000038C4FF6F877394021434FF6FC473A405C
:1012700040F201173A434FF6DD773B404FF6FF77D8
:1012800007EA06172F433B43018102830384F0BD25
:1012900021B1828842F08002828004E082884FF689
:1012A0007F731A4082807047A0F85010704700008A
:1012B00010B50446FA48844208D10121102000F0FC
:1012C0001AFD0021102000F016FD57E0F548844279
:1012D00009D10121480400F0FDFC00214FF4003049
:1012E00000F0F8FC4AE0F048844209D1012188046A
:1012F00000F0F0FC00214FF4802000F0EBFC3DE01A
:10130000EA48844209D10121C80400F0E3FC00212D
:101310004FF4002000F0DEFC30E0E548844209D1C3
:101320000121080500F0D6FC00214FF4801000F0E8
:10133000D1FC23E0DF48844208D10121202000F0C5
:10134000DAFC0021202000F0D6FC17E0DA488442C5
:1013500009D10121880700F0BDFC00214FF0804039
:1013600000F0B8FC0AE0D548844207D101214005CD
:1013700000F0B0FC0021600500F0ACFC10BD2DE9D0
:10138000FF4705460E460024A14600BFA046B0898F
:1013900000B100BF2C8A24F44054F08804432C820E
:1013A000AC8941F20C608443B0883189084371896B
:1013B00008430443AC81AC8A24F44074B0890443EC
:1013C000AC82684600F017FBB548854202D0B948A8
:1013D000854202D1DDF80C9001E0DDF80890A88983
:1013E00000F4004040B109EBC90000EB091031687E
:1013F0004900B0FBF1F707E009EBC90000EB091069
:1014000031688900B0FBF1F76420B7FBF0F004010C
:101410002009642101FB1078A88900F4004040B144
:10142000322000EBC800B0FBF1F000F007000443ED
:1014300008E0322000EB08106421B0FBF1F000F06E
:101440000F0004432C81BDE8FF874FF41651016063
:1014500000218180C18001810C2141810021818195
:10146000704710B502460020108A20F470600B8887
:101470004C8823438C882343CC8823431843108211
:1014800010BD0021018041808180C180704721B161
:10149000828942F40052828104E082894DF6FF7312
:1014A0001A4082817047028B02F47F420283028BD2
:1014B0000A430283704721B1828942F4004282814B
:1014C00003E08289C2F30E028281704721B1828AD1
:1014D00042F40062828204E0828A4FF2FF731A4073
:1014E00082827047C1F30802828070470146888873
:1014F000C0F308007047028A4FF6F0731A40028268
:10150000028A0A430282704721B1828942F00202B4
:10151000828104E082894FF6FD731A408281704710
:1015200082894FF2FF731A40828182890A43828145
:101530007047028A4FF6DF731A400282028A0A431A
:101540000282704721B1028A42F48042028204E0A2
:10155000028A4BF6FF731A4002827047818941F07C
:1015600001018181704721B1828A42F008028282A2
:1015700004E0828A4FF6F7731A4082827047028B2A
:10158000D2B20283028B42EA01220283704721B168
:10159000828A42F02002828204E0828A4FF6DF7360
:1015A0001A408282704721B1828A42F01002828200
:1015B00004E0828A4FF6EF731A4082827047828A73
:1015C0004FF6FB731A408282828A0A4382827047F6
:1015D00021B1828A42F00202828204E0828A4FF6BE
:1015E000FD731A40828270471AB1838A0B4383824B
:1015F00002E0838A8B4383827047F0B50346002460
:1016000000260025002040F66A17B94200D100BF2D
:101610001846C1F3421401F01F06012707FA06F528
:10162000012C01D10C3004E0022C01D1103000E07B
:1016300014301AB107682F43076002E00768AF4310
:101640000760F0BD02460020B1F5007F00D100BF69
:1016500013880B400BB1012000E00020704701F41B
:101660000072B2F5007F00D100BFCA43028070470C
:1016700070B50246002400230025002040F66A16BB
:10168000B14200D100BFC1F3421501F01F03012692
:1016900006FA03F3012D13D19689334017E00000B9
:1016A000001001400044004000480040004C004051
:1016B000005000400014014000780040007C0040D1
:1016C000022D02D1168A334001E0968A33400C1273
:1016D000012606FA04F41688344013B10CB1012037
:1016E00000E0002070BD10B50022002340F66A140F
:1016F000A14200D100BF0A1201249440A3B2DC43EE
:10170000048010BD32490143324A1160704770B500
:10171000002100230F22C4781CB32E4C246804F44B
:10172000E064C4F5E064C4F30721C1F10404E3B24A
:101730000A4144789C40E1B28478144021430C076C
:10174000210E254C05786155047804F01F0501240D
:10175000AC4005786D11AD0005F1E025C5F80041FC
:1017600009E0047804F01F050124AC401B4D067805
:10177000761145F8264070BD194A0A400243154BC0
:101780001B1F1A60704739B1124A121D12680243BA
:10179000104B1B1D1A6006E00E4A121D1268824390
:1017A0000C4B1B1D1A607047042808D14FF0E02134
:1017B000096941F004014FF0E022116107E04FF0A8
:1017C000E021096921F004014FF0E0221161704726
:1017D0000000FA050CED00E000E400E080E100E02C
:1017E00080FFFF1FF948006840F00100F7490860DA
:1017F0000020F64908310860F4480068F4490840C0
:10180000F2490860F348091D0860F348EF49843144
:101810000860F0481038091D0860EC48006820F4A2
:101820008020EA4908600020E8490C310860E74957
:101830008C31086070470021E44A921C11701146F7
:101840000870704710B501460022002300204A119D
:10185000012A02D1DD4C236808E0022A03D1DB4CC7
:101860007034236802E0D94C7434236801F01F02FD
:10187000012494401C400CB1012000E0002010BD68
:1018800038B5002000900024002500BF3120FFF76C
:10189000D9FF05460098401C00900098B0F5A04F75
:1018A00001D0002DF2D03120FFF7CCFF08B1012488
:1018B00000E00024204638BD01460020C34A1068DD
:1018C00020F0F80040EAC10010607047C34908608A
:1018D00070470021BD4A703211701170012802D08A
:1018E00004280AD104E00121B84A7032117005E0E1
:1018F0000521B64A7032117000E000BF00BF70478A
:10190000B7490860704770B5049C41EA821501260A
:10191000C6EB530645EA0645054345EA0465AB4E6A
:10192000361D356070BDAD4908667047820142EAD8
:101930000172A64B84331A607047A84988667047C5
:1019400010B5830143EA016343EA02739F4C883474
:10195000236010BDA14908677047A049C86470475B
:1019600002460020994B0833186820F0EC6042EAE8
:1019700001031843954B0833186070470246002056
:10198000924B0833186820F0784042EA010318436C
:101990008E4B083318607047014600208B4A08328E
:1019A000106820F003000843106070478748083033
:1019B000006800F00C00704701460020834A08329E
:1019C000106820F0F00008431060704701460020C6
:1019D0007E4A0832106820F4E050084310607047D7
:1019E00001460020794A0832106820F4604040EA3D
:1019F000C10010607047F0B50021002200240225CC
:101A000000260223714F08373F6807F00C0121B10F
:101A1000042905D0082937D105E0724F076036E068
:101A2000714F076033E0694F3F1D3F68C7F3805631
:101A3000664F3F1D3F6807F03F036EB16A4FB7FB2B
:101A4000F3F7DFF888C10CF1040CDCF800C0CCF32C
:101A5000881C07FB0CF40CE0624FB7FBF3F7DFF8D0
:101A60006CC10CF1040CDCF800C0CCF3881C07FB43
:101A70000CF4564F3F1D3F68C7F301477F1C7D00A4
:101A8000B4FBF5F7076002E0564F076000BF00BFE8
:101A90004E4F08373F6807F0F0010909534F7A5C51
:101AA0000768D7404760494F08373F6807F4E0515F
:101AB000890A4E4F7A5C4768D7408760434F0837A2
:101AC0003F6807F46041490B484F7A5C4768D7404C
:101AD000C760F0BD002100F44072B2F5407F0AD12A
:101AE0003A4A0832116821F4F811414A0240114380
:101AF000364A08321160354A70321268C0F30B035F
:101B00001A43324B70331A607047354944390860C4
:101B1000704733494039086070473649086070475C
:101B200001460020294A8C32106820F440100843F6
:101B30001060704701460020244A8C32106820F45F
:101B40004000084310607047014600201F4A8C3255
:101B5000106820F01F004A1E10431C4A8C3210608F
:101B6000704701460020194A8C32106820F4F85062
:101B70004A1E40EA0220154A8C3210607047014626
:101B80000020124A8C32106820F440300843106064
:101B9000704719490860704739B10C4A30321268F1
:101BA00002430A4B30331A6006E0084A30321268AA
:101BB0008243064B30331A607047F9B1034A34321E
:101BC00012680243014B34331A601CE000380240B3
:101BD000FFFFF6EA103000240030002000004742EA
:101BE000800E47420024F40040787D01140000205C
:101BF000FFFCFF0F5C014742E01147428F4A126829
:101C000082438E4B1A60704739B18C4A121D12689C
:101C100002438A4B1B1D1A6006E0884A121D126897
:101C20008243864B1B1D1A60704739B1834A0C32C0
:101C300012680243814B0C331A6006E07F4A0C3273
:101C4000126882437D4B0C331A60704739B17B4A6E
:101C5000103212680243794B10331A6006E0774A5B
:101C6000103212688243754B10331A60704739B1D5
:101C7000724A243A12680243704B243B1A6006E011
:101C80006E4A243A126882436C4B243B1A607047B8
:101C900039B16A4A203A12680243684B203B1A6005
:101CA00006E0664A203A12688243644B203B1A6081
:101CB000704739B1614A1C3A126802435F4B1C3BC2
:101CC0001A6006E05D4A1C3A126882435B4B1C3B7B
:101CD0001A60704739B1594A143A12680243574B97
:101CE000143B1A6006E0554A143A12688243534B7B
:101CF000143B1A60704739B1504A103A12680243D7
:101D00004E4B103B1A6006E04C4A103A1268824370
:101D10004A4B103B1A60704739B1484A1C3212686E
:101D20000243464B1C331A6006E0444A1C321268D8
:101D30008243424B1C331A60704739B13F4A20320C
:101D4000126802433D4B20331A6006E03B4A2032C2
:101D500012688243394B20331A60704739B1374AD1
:101D6000243212680243354B24331A6006E0334AAA
:101D7000243212688243314B24331A60704739B1E0
:101D80002E4A2C32126802432C4B2C331A6006E088
:101D90002A4A2C3212688243284B2C331A6070472F
:101DA00039B1264A303212680243244B30331A606C
:101DB00006E0224A303212688243204B30331A60E8
:101DC0007047012808D11D493C31096841F00801DC
:101DD0001A4A3C32116007E018493C31096821F089
:101DE0000801164A3C321160704739B1134A273A4C
:101DF00012780243114B273B1A7006E00F4A273A2C
:101E0000127882430D4B273B1A7070470B484030C5
:101E1000006840F080700949403108607047014611
:101E20000020064A283A12680A400AB1012000E060
:101E30000020704701492639087070473438024045
:101E400010B504469848844208D101210846FFF79E
:101E50000EFF00210120FFF70AFF76E0934884423D
:101E600008D101210220FFF702FF00210220FFF725
:101E7000FEFE6AE08E48844208D101210420FFF76B
:101E8000F6FE00210420FFF7F2FE5EE0894884425E
:101E900008D101210820FFF7EAFE00210820FFF702
:101EA000E6FE52E08448844208D101211020FFF769
:101EB000DEFE00211020FFF7DAFE46E07F48844274
:101EC00008D101212020FFF7D2FE00212020FFF7BA
:101ED000CEFE3AE07A48844208D101214020FFF743
:101EE000C6FE00214020FFF7C2FE2EE07548844266
:101EF00008D101218020FFF7BAFE00218020FFF7E2
:101F0000B6FE22E07048844208D101218015FFF717
:101F1000AEFE0021A015FFF7AAFE16E06B48844232
:101F200008D101214015FFF7A2FE00216015FFF73F
:101F30009EFE0AE06648844207D101210015FFF7A2
:101F400096FE00212015FFF792FE10BDF0B50A465F
:101F500000210023002400BF3DE0012505FA01F324
:101F6000156805EA03049C4234D105684F00032636
:101F7000BE40B543056015794E00B540066835434F
:101F800005601579012D02D01579022D16D18568CD
:101F90004F000326BE40B543856055794E00B540DD
:101FA000866835438560456801268E40B5434560A7
:101FB000456896798E40B6B235434560C5684F0096
:101FC0000326BE40B543C560D5794E00B540C6680E
:101FD0003543C560491C1029BFD3F0BD4FF6FF71D2
:101FE00001600021017141718171C171704708B5B3
:101FF0004FF480320092009A0A430092009AC26124
:10200000C161009AC261C2690092C269009208BDB2
:102010000246002013690B400BB1012000E00020B4
:1020200070470146086980B2704702460020536934
:102030000B400BB1012000E00020704701464869C9
:1020400080B2704701837047418370470AB10183B2
:1020500000E0418370474161704742694A404261F4
:102060007047F0B5002300244D07ED0E02FA05F38A
:10207000CE1000F1200555F826504E07F70E0F261A
:10208000BE40B543CF1000F1200646F82750CE10D1
:1020900000F1200555F8265045EA0304CE1000F162
:1020A000200545F82640F0BD000002400004024033
:1020B00000080240000C02400010024000140240E0
:1020C00000180240001C0240002002400024024090
:1020D000002802400648804706480047FEE7FEE722
:1020E000FEE7FEE7FEE7FEE7FEE7FEE7FEE7FEE7C8
:1020F0007902000889010008114A10605160704798
:102100001CB501214020FFF747FD4FF4004000902F
:1021100001208DF8040002208DF8050000208DF8C4
:10212000060002208DF8070069460648FFF70EFFFB
:102130004FF47A6141F28830FFF7DEFF1CBD0000EA
:10214000240000200018024000B587B001210220C1
:10215000FFF722FD01218804FFF767FD07220A210E
:102160003B48FFF77EFF07220B213948FFF779FF35
:102170004FF44060059002208DF818008DF819008A
:1021800000208DF81A0001208DF81B0005A93048A9
:10219000FFF7DCFE4FF4E13001900020ADF80800BD
:1021A000ADF80A00ADF80C00ADF810000C20ADF849
:1021B0000E0001A92748FFF7E2F801212548FFF7A3
:1021C00066F9012240F225512248FFF716FA4FF432
:1021D000A060FFF797FA27208DF8000003208DF804
:1021E00001008DF8020001208DF803006846FFF71A
:1021F0008EFA07B000BD70B505460E4600240CE00F
:10220000295D1448FFF76EF900BF40211148FFF720
:1022100019FA0128F9D1601CC4B2B442F0DB70BDD8
:102220000178022900D100E000BF00BF704770B5FF
:1022300004460D46E1B20748FFF754F900BF4021BC
:102240000448FFF7FFF90028F9D0204670BD0000D0
:10225000000402400048004010B5002804DB0A07D3
:10226000130E1A4A135406E00A07140E184A00F017
:102270000F031B1FD45410BD10B5164800684FF44F
:102280007A71B0FBF1F4601EB0F1807F00D30FE0F3
:10229000601E4FF0E02148610F214FF0FF30FFF743
:1022A000DBFF00204FF0E02188610720086100BFBC
:1022B0000021481EFFF7D0FF10BD0749086000BF8E
:1022C000054909680029FBD17047000000E400E0DF
:1022D00018ED00E0000000203000002010B504469A
:1022E000A6480078844229D00020A54908603C21F6
:1022F000A448FFF7A9FE6420FFF7DFFF052C19D2E1
:10230000DFE804F00304090E130014E024219D48C3
:10231000FFF798FE0FE014219A48FFF793FE0AE0BA
:1023200028219848FFF78EFE05E018219548FFF711
:1023300089FE00E000BF00BF904804708F4800781D
:1023400010BD00B58BB001214020FFF725FC012115
:102350000420FFF721FC01210220FFF766FC3C204E
:10236000019001208DF8080003208DF8090000205D
:102370008DF80A0002208DF80B0001A98148FFF7B3
:10238000E5FD022206218048FFF76BFE02220721AD
:102390007D48FFF766FEC020019002208DF80800FE
:1023A00003208DF8090000208DF80A0002208DF826
:1023B0000B0001A97448FFF7C9FD0020ADF820000B
:1023C000ADF8220041F2670009900020ADF8280026
:1023D00008A96E48FEF7C7F96020ADF80C0001208F
:1023E000ADF80E000020ADF81800059003A967486D
:1023F000FEF74EFA03A96548FEF783FA0821634801
:10240000FEF7D3FB08216148FEF7D8FB01215F48A6
:10241000FEF714FA01215D48FEF72EFA0020FFF7BF
:102420005DFF0BB000BD70B504460D4641F267007C
:10243000854201DD054602E0002D00DA002541F26B
:102440006700844201DD044602E0002C00DA00242B
:102450004F484560046041684C48FEF772FB4C48A9
:1024600001684A48FEF76FFB4548006870BD70B5CB
:102470002DED068BB0EE408AF0EE608AB0EE419A08
:10248000F0EE619A9FED430B53EC102B51EC190BBE
:1024900000F084FB1AD39FED3F0B53EC102B51EC53
:1024A000180B00F07BFB11D39FED3C0B53EC102B72
:1024B00051EC180B00F05AFB08D39FED380B53EC8E
:1024C000102B51EC190B00F051FB04D22B48007873
:1024D000BDEC068B70BD9FED330B53EC102B51EC14
:1024E000190B00F036FA41EC1A0B00F020FB044601
:1024F0009FED2C0B53EC102B51EC180B00F029FA2C
:1025000041EC1A0B00F013FB05462146FFF78BFF49
:10251000DEE710B51A48006848B300201849086083
:102520003C211848FFF790FD6420FFF7C6FE1348D2
:102530000078052819D2DFE800F00304090E130023
:1025400014E024210F48FFF77DFD0FE014210D4812
:10255000FFF778FD0AE028210A48FFF773FD05E040
:1025600018210848FFF76EFD00E000BF00BF0348D8
:10257000007810BD0D490860704700003C00002045
:102580004000002000180240000802400004004003
:1025900034000020000000000000F03F00000000B8
:1025A0000000F0BF000000000067B04044000020C1
:1025B00000B589B001210846FFF737FB012108204B
:1025C000FFF733FB01210846FFF7E6FA022200215C
:1025D0008448FFF746FD01220F218248FFF741FDA5
:1025E00048F20100009002208DF8040003208DF8CD
:1025F000050000208DF8060002208DF807006946CE
:102600007848FFF7A3FCA720ADF818000020ADF82C
:102610001A004CF24F3007900020ADF8200006A9B8
:102620007148FEF7A0F806A94FF08040FEF79BF82E
:102630000020ADF80C00ADF80E000120ADF8100040
:102640000020ADF812000220ADF8140003A966487E
:10265000FEF760FC03A94FF08040FEF75BFC3220E0
:102660008DF8080002208DF8090000208DF80A007E
:1026700001208DF80B0002A8FFF749F81C208DF807
:10268000080002208DF8090001208DF80A0002A838
:10269000FFF73DF801215448FEF7EEF801218807C5
:1026A000FEF7EAF809B000BD50480068704710B561
:1026B0004D4B984216D10A2A06DBFF234C4C23705F
:1026C00000234C4C236010BD40F63543534301EBCF
:1026D00003135B1C474C2360454B1B785B1C444C2D
:1026E000237018E0B0F1804F15D10A2A06DBFF23D2
:1026F000414C23700023414C2360E4E740F635430E
:10270000534301EB03135B1C3C4C23603A4B1B7897
:102710005B1C394C237000BFD5E73948006870470F
:1027200010B504460020364908603049086003218E
:102730002D48FEF7E1FC03214FF08040FEF7DCFC62
:10274000012203212848FEF7AFFC01220321900754
:10275000FEF7AAFC00BF25480068A04203D2284823
:102760000068A042F7D3002203211F48FEF79CFC1B
:10277000002203214FF08040FEF796FC012010BD9F
:1027800070B504460D4600201D49086017490860D1
:1027900003211548FEF7B0FC03214FF08040FEF7FF
:1027A000ABFC012203211048FEF77EFC012203212D
:1027B0009007FEF779FCA84700BF0C480068A042CC
:1027C000FBD30F480068A042F7D30022032106483C
:1027D000FEF76AFC002203214FF08040FEF764FC04
:1027E000012070BD00000240000C0040500000209D
:1027F0004C00002048000020580000205400002019
:102800005C0000202DE9FE4F804681EA0300C00FE6
:102810000C46009021F0004123F00045B8EB020087
:10282000A94105D24046214690461C460B46024629
:1028300023F00040104347D0270DC7F30A00C3F32D
:102840000A510290401A019040286BDAC3F313003A
:1028500040F4801B0098924620B10023D2EB030A7B
:1028600063EB0B0B01985946C0F14002504600F053
:10287000F4F906460D4650465946019A00F00CFA06
:1028800010EB08006141002487EA115284EAE773E3
:102890001A4340D0009A62B3019A012A4FEA0752C4
:1028A00015DC001B61EB02014FF0004202EA075207
:1028B000CDE90042001C41F5801132462B4600F064
:1028C0000CFA03B0BDE8F08F40462146F9E7001B43
:1028D00061EB0201001C41F5801300185B412018D8
:1028E000A2F5001747EB030140EAD570B6196D4118
:1028F00011E06D084FEA360645EAC0754FEA075207
:10290000001B61EB0201001C41F5801149084FEAF0
:1029100030000019514132462B4603B0BDE8F04F5C
:1029200000F0CCB90098012240000023D0EB020255
:1029300063EBE073009821464FEAE074B8EB0000C7
:1029400061EB0401E9E783F000435BE781F00041BC
:1029500058E72DE9FE4F81EA030404F0004421F01A
:10296000004100944FF0000B23F0004350EA0104B3
:102970005ED052EA03045BD0C3F30A54C1F30A5594
:102980002C44A4F2F3340194A0FB0254C1F31301CC
:1029900041F48011C3F3130343F4801301FB024499
:1029A00000FB034E840A970A44EA815447EA83579E
:1029B000A4FB076802958D0A05FB07854FEA932C57
:1029C00004FB0C542705029D4FEA065847EA1637C8
:1029D000B5EB08056EEB070C870E920E47EA8117E0
:1029E00042EA8312A7FB0201B6EB0B0164EB000481
:1029F0002B0D43EA0C335E1844EB1C50DA4651466B
:102A0000E7FB0201C5F313044FEA0B3343EA145307
:102A10004FEA0432019C43EA0603A4F10C04029439
:102A2000009CCDE900B400F058F903B0BDE8F08F88
:102A300000200146F9E72DE9F04D81EA030404F096
:102A4000004B21F0004514464FF0000A23F00041EE
:102A500050EA050220D054EA01021DD0C5F30A57FE
:102A60000246C5F31303C1F31300C1F30A5640F441
:102A7000801543F48013A7EB0608101BD64608F216
:102A8000FD3873EB050002D308F1010801E092184C
:102A90005B41B8F1000F03DA00200146BDE8F08D7C
:102AA00000204FF48011064684460EE0171B73EB9E
:102AB000050705D3121B63EB050306434CEA010C23
:102AC00049084FEA300092185B4150EA0107EDD106
:102AD00052EA030012D082EA040083EA05010843A7
:102AE00005D0101BAB4106D20122002306E00022D4
:102AF0004FF0004302E06FF0010253101AEB0600A2
:102B00004CEB085110EB0A0041EB0B01BDE8F04D16
:102B100000F0D4B80EB540F2334102910021CDE966
:102B200000110A460B4600F0D8F803B000BD70B59E
:102B3000C1F30A5201F000450024C1F3130140F231
:102B4000FF3341F480119A4201DA002070BD40F257
:102B500033439A42A2F2334203DC524200F08CF833
:102B600000E090402C43F1D0404270BD30B5041ECF
:102B700071F1000404DB4FF00044404264EB0101BA
:102B8000141E73F1000405DB1C464FF00043524253
:102B900063EB04038B4208BF824230BD30B5041E94
:102BA00071F1000404DB4FF00044404264EB01018A
:102BB000141E73F1000405DB1C464FF00043524223
:102BC00063EB0403994208BF904230BD30B50B4619
:102BD000014600202022012409E021FA02F59D424D
:102BE00005D303FA02F5491B04FA02F52844151E21
:102BF000A2F10102F1DC30BD2DE9F05F05460020B5
:102C000092469B4688460646814640241BE028465D
:102C100041464746224600F02FF853465A46C01A0E
:102C2000914110D311461846224600F016F82D1A8D
:102C300067EB01084F4622460120002100F00DF805
:102C400017EB00094E41201EA4F10104DFDC4846C9
:102C500031462A464346BDE8F09F202A04DB203A4D
:102C600000FA02F1002070479140C2F1200320FADF
:102C700003F3194390407047202A04DB203A21FADD
:102C800002F00021704721FA02F3D040C2F1200285
:102C90009140084319467047202A06DBCB17203A9B
:102CA00041FA02F043EAE07306E041FA02F3D04051
:102CB000C2F12002914008431946704710B5141E16
:102CC00073F1000408DA401C41F1000192185B41E5
:102CD0001A4301D120F0010010BD2DE9F04D9246BC
:102CE0009B4611B1B1FA81F202E0B0FA80F22032D3
:102CF0009046FFF7B2FF04460F4640EA0A0041EA59
:102D00000B0153465A46084313D0114653EA0100BB
:102D100019D0C8F140025046FFF7AEFF05460E46F7
:102D2000504659464246FFF798FF084305D0012018
:102D300004E020463946BDE8F08D0020054346EA10
:102D4000E0762C4337430A986305E40AA0EB0800B9
:102D50000022FD0A44EA47540A3002D50020014609
:102D6000E9E7010510196941DDE9084500196941E4
:102D7000BDE8F04DA2E7C1F30A52C1F3130140F2DE
:102D8000FF3341F480119A4202DA00200146704775
:102D900040F233439A42A2F2334202DC5242FFF73E
:102DA0006BBFFFF75ABF0000064C074D06E0E06816
:102DB00040F0010394E8070098471034AC42F6D382
:102DC000FDF7E6F9B4390008D439000870B50446B7
:102DD000002500201049087003214FF08040FEF7C5
:102DE0008BF9012203219007FEF75EF9012008E02C
:102DF00000BF094909788142FBDD084909680D4493
:102E0000401CA042F4DD002203214FF08040FEF779
:102E10004BF9B5FBF4F070BD5800002054000020C1
:102E200070B50446002500200F49087003210F48A3
:102E3000FEF762F9012203210C48FEF735F9012063
:102E400008E000BF084909788142FBDD08490968AC
:102E50000D44401CA042F4DD002203210348FEF78C
:102E600023F9B5FBF4F070BD4C000020000C0040CD
:102E7000480000200448006820B103480068401E54
:102E800001490860704700003000002010B50121A2
:102E90008807FEF720F901281AD11F480178007829
:102EA000401C1D4A10700A290EDB4FF08040FEF7CF
:102EB000AFF804461848027821464FF08040FFF7EB
:102EC000F6FB00201449087001218807FEF714F969
:102ED00002214807FEF7FFF801281BD18007FEF703
:102EE00097F804460C48027821464FF08040FFF7DF
:102EF000DEFB00200849087008480068401C0749AC
:102F0000086000214FF08040FDF776FC0221480761
:102F1000FEF7F2F810BD00006C0000205C000020FD
:102F200010B501211F48FEF7D6F8012818D11E4818
:102F300001780078401C1C4A10700A290CDB1948E3
:102F4000FEF766F804461848027821461548FFF750
:102F5000AEFB00201449087001211248FEF7CCF89E
:102F600002211048FEF7B7F8012819D10D48FEF7E5
:102F70004FF804460C48027821460A48FFF797FBB1
:102F800000200949087009480068401C074908608A
:102F900000210448FDF730FC02210248FEF7ACF89E
:102FA00010BD0000000C00406D000020500000200B
:102FB00010B540F225511848FEF75AFB01282AD1D6
:102FC0001548FEF793FAC4B21448006848B9F02CCB
:102FD00007D11120114908604FF0FF3010490860F7
:102FE00018E00F480068401C0D4908600D490C545A
:102FF000084600780A49096888420BD109480849FF
:103000000968405C0A2802D10648FFF709F9002048
:103010000249086000BF10BD004800406400002065
:1030200068000020700000200FB4054B10B503A904
:10303000044A029800F0FEF810BC5DF814FB000092
:103040002F2200086000002002E008C8121F08C1FB
:10305000002AFAD170477047002001E001C1121F19
:10306000002AFBD1704700000E480068012805D9EE
:103070000C480068401E0B49086011E009480068D0
:1030800001280DD107480068401E0649086006481F
:10309000007828B101200549086000200249087025
:1030A00070470000440000203C0000204000002049
:1030B0002DE9FF5F82B00021DDE90430020DDDF86B
:1030C00040B0034318D044F61050A2F2FF324243FE
:1030D0001514119801281FD0A5EB0B00401C5FEAC6
:1030E000000A4FF000064E4FDFF83891B0465046C8
:1030F00015D5CAF1000413E0119801244AA3012850
:1031000001D16FEA0B010298119AC0E90031C0E9C0
:10311000024206B0BDE8F09FCBF10000DFE70446B5
:103120000021404A491842EB0450CDE9001012E05A
:10313000E00707D032463B4640464946FFF709FCC8
:103140008046894632463B4610461946FFF701FC49
:1031500006460F466410002CEAD1DDE90401DDE9E2
:103160000023BAF1000F06DAFFF7F3FB42464B46A5
:10317000FFF7EFFB05E0FFF75EFC42464B46FFF72B
:103180005AFC04460E460022284BFFF707FD03D8E1
:103190004FF0FF30014607E00022254B2046314624
:1031A000FFF730FBFFF7E7FD102409E0002C0ADBF6
:1031B0000A220023FFF720FD039B30321A55641EBC
:1031C00050EA0102F2D1641C039AC4F111031444C1
:1031D000119A012A03D0012208430DD10AE00843C5
:1031E00004D000204FF0110B119072E7A3EB0B05F8
:1031F0006D1E0DE05B4504DD4FF0000205F1010599
:1032000004E003DA4FF00002A5F10105002AECD03A
:1032100002981199C0E90231C0E9004579E7000040
:10322000000014400000F03F300000000000F043B8
:103230000000E03F2DE9FF4F95B09B4689460646CA
:1032400000250FE2252877D100242746F84A0121DE
:10325000059400E0044316F8013F203B01FA03F017
:103260001042F7D130782A2811D06FF02F03307830
:10327000A0F13002092A16D8059A44F0020402EBA4
:10328000820203EB42021044761C0590EFE759F8E6
:10329000042B0592002A03DA504244F400540590AE
:1032A00044F00204761C30782E2816D116F8010F4F
:1032B00044F004042A280DD06FF02F023078A0F1DA
:1032C0003003092B09D807EB870302EB4303C71828
:1032D000761CF3E759F8047B761C30786C280FD005
:1032E00006DC4C2817D068280DD06A2814D104E0D9
:1032F000742810D07A280FD10DE044F400140AE0AD
:1033000044F4801401E044F440147278824202D103
:1033100004F58014761C761C307866280BD013DCFC
:10332000582877D009DC002875D04528F6D04628E3
:10333000F4D047281AD19DE118E0632835D06428DD
:1033400079D0652812D195E1702873D008DC672800
:10335000F1D069286FD06E280DD06F2806D1B5E066
:1033600073282CD0752875D0782874D05A461799B0
:1033700090476D1C75E1C4F30250022809D0032860
:103380000DD0D9F8001004280DD00D6009F1040902
:1033900067E1D9F80010EA17C1E90052F6E7D9F859
:1033A00000100D80F2E70D70F0E719F8041B8DF89E
:1033B000001000208DF80100EA46012003E059F8D2
:1033C00004AB4FF0FF3061074FF0000102D40DE075
:1033D00008F101018846B9420FDA8045F8DB1AF896
:1033E00008100029F4D108E008F101018846814263
:1033F000FADB1AF808100029F6D105985B46A0EB15
:10340000080721463846179A00F094FA284400EB42
:10341000080507E04DE029E10DE01AF8010B5A46D6
:1034200017999047B8F10108F7D25B462146384614
:10343000179A13E142E00A220092C4F302524FF0BD
:10344000000A022A08D059F804CB032A4FEAEC718B
:103450000AD00DE029E02AE009F1070121F0070276
:10346000F2E802C1914609E00FFA8CFC4FEAEC71D8
:10347000042A03D14FFA8CFC4FEAEC71002907DAD9
:103480000A460021DCF1000C61EB02012D2202E072
:10349000220504D52B228DF80420012203E0E20747
:1034A00001D02022F7E7904659E00A2102E01022DD
:1034B0000DE010214FF0000A00910BE010224FF0B8
:1034C000000A44F004040827009203E008224FF0A9
:1034D000000A0092C4F30252022A05D059F804CB24
:1034E0000021032A08D009E009F1070121F00702B1
:1034F000F2E802C1914605E01FFA8CFC042A01D1D2
:103500000CF0FF0C4FF00008220728D5702806D0D9
:10351000009B83F0100353EA0A0305D00EE040221B
:103520008DF80420012208E05CEA010206D0302276
:103530008DF804208DF8050002229046009B83F050
:10354000080353EA0A030AD15CEA010201D16207C7
:1035500005D530228DF804204FF001087F1E582831
:1035600004D034A003900EA802900DE036A0F9E735
:1035700053466046009AFFF73FFB84460398825CFF
:103580000298401E029002705CEA0100F0D102989D
:1035900006A9081A00F1200A600702D524F4803435
:1035A00000E00127574502DDA7EB0A0000E00020FC
:1035B00000EB0A01009005984144401A0590E00391
:1035C00006D45B462146179A059800F0B3F90544E6
:1035D000002706E001A85A46C05D179990476D1C68
:1035E0007F1C4745F6DBE0030CD55B462146179A66
:1035F000059800F09FF9054404E030205A461799D9
:1036000090476D1C0099481E00900029F5DC08E0E9
:10361000029802995A460078491C029117999047DE
:103620006D1CBAF10001AAF1010AF1DC65E10000AC
:103630000928010030313233343536373839616288
:10364000636465660000000030313233343536374C
:1036500038394142434445460000000000F058F923
:103660000544761C307800287FF4ECAD19B028466C
:10367000BDE8F08F620700D4062709F1070222F0A7
:10368000070CFCE80223E14603F000485FEA080C5F
:1036900002D00FF2702C0DE05FEA045C02D50FF24D
:1036A000682C07E05FEAC47C02D00FF2602C01E0D6
:1036B000AFF2700C4FF0FF3823F00043CDF850C04C
:1036C00065280CD006DC452809D046281DD047289F
:1036D0003DD13DE0662818D067287ED138E0002132
:1036E000112F01DB112000E0781CCDE9000106A9B3
:1036F0000EA8FFF7DDFCDDE90F010E9A0391002112
:10370000009207F1010A04914DE04FF0004000974C
:10371000CDE9011006A90EA8FFF7CAFCDDE90F02EA
:1037200003920E9B11990022DDF80CA000930492E5
:1037300011B9791C00EB010AB7EB0A0004D4C0F1FF
:10374000FF3007F1010A0490AAEB0700019044E062
:10375000012F00DA01270021112F01DD112000E0E7
:103760003846CDE9000106A90EA8FFF7A1FCDDE966
:103770000F010E9A0391002104910092BA4621078D
:103780000CD40399514500DA8A46BAF1010F05DDE0
:10379000009AAAF10101515C302908D0B84202DA3E
:1037A00010F1040F06DA0121CDE9011015E0AAF1AC
:1037B0000101E9E7002805DC049901440491AAEB22
:1037C000000102E0411C514500DD8A460499401A7F
:1037D000401C01904FF000400290200704D4019853
:1037E000504501DBCDF8048000208DF84F00029891
:1037F0000DF14F07B0F1004F25D02B200E9002980D
:103800004FF0020800280CDA404202902D200E9062
:1038100007E00A210298FFF7D9F93031029007F842
:10382000011DB8F10001A8F10108F2DC029800289E
:10383000EFD1791E0E980870307800F0200040F02B
:10384000450007F8020D12A8C01B00F107081498E4
:10385000007800B1012000EB0A01019801EBE07152
:1038600005984144401A401E0590E00306D45B468B
:103870002146179A059800F05DF8054414980078E1
:1038800018B15A46179990476D1CE00324D55B4642
:103890002146179A059800F04DF805441CE004985D
:1038A000002807DBDDE90301884203DD0098405C66
:1038B000179901E0179930205A469047049805F16E
:1038C0000105401C04900198401E019004D12E2057
:1038D0005A46179990476D1CBAF10001AAF1010AE6
:1038E000DDDC05E017F8010B5A46179990476D1C6F
:1038F000B8F10001A8F10108F4DC5B462146179AF3
:103900000598ABE62D0000002B0000002000000011
:103910002DE9F041044600251E461746880404D4CC
:1039200005E039462020B0476D1C641EF9D52846B5
:10393000BDE8F0812DE9F041044600251E46904681
:10394000C80301D5302700E02027880404D505E00E
:1039500041463846B0476D1C641EF9D52846BDE87F
:10396000F081000010B510480068401C0E49086046
:103970000E4800680968884203D800200A49086098
:1039800010E00A48406808490968884205D84FF4A1
:1039900000410748FEF756FB04E04FF4004104489D
:1039A000FEF752FB10BD00002C0000202400002078
:1039B00000180240D4390008000000207000000008
:1039C00048300008443A0008700000203804000025
:1039D00058300008007A030A0000000000000000D0
:1039E00001020304060708090000000001020304A5
:1039F000010203040607080900000000000000009F
:103A000000000000000000000000000000000000B6
:103A100000000000000000000000000000000000A6
:103A20000000000000000000000000000000000096
:103A3000000000000000000000000000FFFFFFFF8A
:043A40000000000082
:040000050800018965
:00000001FF
