:020000040800F2
:10000000B0050020A14D0008AD030008AF030008B3
:10001000B3030008B7030008BB030008000000009A
:10002000000000000000000000000000BF03000806
:10003000C103000800000000C3030008C503000856
:10004000BB4D0008BB4D0008BB4D0008BB4D000870
:10005000BB4D0008BB4D0008BB4D0008BB4D000860
:10006000BB4D0008BB4D0008BB4D0008BB4D000850
:10007000BB4D0008BB4D0008BB4D0008BB4D000840
:10008000BB4D0008BB4D0008BB4D0008BB4D000830
:10009000BB4D0008BB4D0008BB4D0008BB4D000820
:1000A000BB4D0008BB4D0008BB4D0008BB4D000810
:1000B000E9030008BB4D0008BB4D0008BB4D00081C
:1000C000BB4D0008BB4D0008BB4D0008BB4D0008F0
:1000D000BB4D0008D9030008BB4D0008E103000830
:1000E000BB4D0008BB4D0008BB4D0008BB4D0008D0
:1000F000BB4D0008BB4D0008BB4D0008BB4D0008C0
:10010000BB4D0008BB4D0008F1030008BB4D0008C3
:10011000BB4D0008BB4D0008BB4D0008BB4D00089F
:10012000BB4D0008BB4D0008BB4D0008BB4D00088F
:10013000BB4D0008BB4D0008BB4D0008BB4D00087F
:10014000BB4D0008BB4D0008BB4D0008BB4D00086F
:10015000BB4D0008BB4D0008BB4D0008BB4D00085F
:10016000BB4D0008BB4D0008BB4D0008BB4D00084F
:10017000BB4D0008BB4D0008BB4D0008BB4D00083F
:10018000BB4D0008BB4D0008DFF80CD005F054F95A
:1001900000480047F9030008B00500200CB5002016
:1001A000019000907648006840F4803074490860FF
:1001B00000BF7348006800F4003000900198401CB4
:1001C0000190009818B90198B0F5A04FF1D16C4892
:1001D000006800F4003010B10120009001E0002020
:1001E00000900098012846D165484030006840F0F2
:1001F00080506349403108606248006840F44040E4
:10020000604908605E48083000685D490831086050
:100210000846006840F4004008600846006840F462
:10022000A05008605848091F0860081F006840F087
:100230008070091F086000BF5148006800F000701E
:100240000028F9D040F20570504908604C48083049
:10025000006820F003004A49083108600846006839
:1002600040F00200086000BF45480830006800F018
:100270000C000828F8D10CBD10B54548006840F4C2
:100280007000434908603E48006840F001003C4966
:10029000086000203A4908310860394800683D4943
:1002A0000840374908603C48091D0860081F00687D
:1002B00020F48020091F0860002031490C310860BB
:1002C000FFF76CFF4FF0006031498039086010BDC6
:1002D00070B500200022022300240221284D083599
:1002E0002D6805F00C0020B1042806D0082834D170
:1002F00007E02A4D2A4E356033E02A4D284E3560FE
:100300002FE01F4D2D1D2D68C5F380541C4D2D1D54
:100310002D6805F03F0154B1224DB5FBF1F5184EA3
:10032000361D3668C6F3881605FB06F209E01B4D3C
:10033000B5FBF1F5124E361D3668C6F3881605FB7F
:1003400006F20F4D2D1D2D68C5F301456D1C6B0088
:10035000B2FBF3F5124E356003E0104D104E3560E0
:1003600000BF00BF064D08352D68C5F303150E4EBE
:10037000705D0B4D2D68C540094E356070BD0000A5
:10038000003802400070004019544007003C024011
:1003900088ED00E0FFFFF6FE103000240024F4009A
:1003A0000000002040787D0104000020704700BF5D
:1003B000FEE700BFFEE700BFFEE700BFFEE77047B5
:1003C0007047704710B505F083FE05F0C7F805F0DB
:1003D00001FA01F037FA10BD10B505F05DF910BD56
:1003E00010B505F059F910BD10B505F0C3F810BDF2
:1003F00010B505F009F910BD2DED028B02F008FDD6
:1004000001F02AFC02F0BAFB02F07DFA01F048FC90
:1004100002F044FC01F092FD01F0B2FED5A005F01F
:1004200077F9642002F015FDA3E1D848007830B1D7
:10043000012823D002287BD0032878D10AE001F0DC
:1004400023FA00BF01F0CCFA0728FBD10320CF49E3
:1004500008708DE101F028FB00BF01F0C0F802F048
:1004600024F801F02CFB0028F7D001F0FCFA044638
:1004700001F0B2F80120C549087079E14EE002F0C0
:1004800014F801F0ACF8C248006808B900F06BFA43
:1004900002F06EF8B0EE408AF0EE608A9FEDBD0B80
:1004A00053EC102B51EC180B04F058FE09D240F21B
:1004B000EC414FF4966002F099FA0120B4490860CB
:1004C0002CE002F055F8B0EE408AF0EE608A9FED25
:1004D000B30B53EC102B51EC180B04F057FE07D262
:1004E000AB480068012803D10220A949086015E043
:1004F00002F03EF8B0EE408AF0EE608A9FEDA90B64
:1005000053EC102B51EC180B04F028FE06D2A04837
:100510000068022802D100209D49086000F020FEFA
:100520000028ACD002209949087021E100E01EE1CA
:1005300001F04FF964280ED1800000F04DFE05E077
:1005400001F0B3FF01F04BF800F0ADFB01F001FB4F
:100550000028F5D004E101F03CF9C82839D14FF466
:10056000FA6001F039F805E001F09FFF01F037F87B
:1005700000F0F9F901F0FCFFB0EE408AF0EE608A7D
:100580009FED8A0B53EC102B51EC180B04F0FEFD81
:10059000EAD341F6583001F01FF805E001F085FF7D
:1005A00001F01DF800F0DFF901F0E2FFB0EE408A43
:1005B000F0EE608A9FED7F0B53EC102B51EC180B83
:1005C00004F0CCFDEAD301F001F8044602F041FC4E
:1005D000C6E001F0FEF8B0F5967F1AD141F28830FE
:1005E00000F0FAFF05E001F060FF00F0F8FF00F016
:1005F000BAF901F0AEFA0028F5D005E001F055FF98
:1006000000F0EDFF00F0AFF901F0A3FA0028F5D0FB
:10061000A6E001F0DEF8044600F0DEFF00BF01F0C6
:1006200044FF00F0DCFF01F0A3FFB0EE408AF0EEE3
:10063000608A9FED5A0B53EC102B51EC180B04F011
:100640008DFD16D201F094FFB0EE408AF0EE608A84
:100650009FED560B53EC102B51EC180B04F096FD4C
:1006600007D201F0B6F8044600F0B6FF00F07BF9BF
:1006700031E001F081FFB0EE408AF0EE608A9FED3C
:100680004F0B53EC102B51EC180B04F067FD06D206
:100690004FF4C86140F2E24002F0A8F91BE001F01B
:1006A0006BFFB0EE408AF0EE608A9FED3C0B53EC9E
:1006B000102B51EC180B04F069FD06D240F2E24118
:1006C0004FF4C86002F092F905E040F2145000F0D7
:1006D00083FF00F048F901F03CFA00289FD001F0B8
:1006E0009EFA50B340F68C2000F076FD40F2EC41CB
:1006F0004FF4966002F07AF90CE000F070FD38B922
:1007000040F6B83000F068FF00F069FF00F02BF908
:1007100001F0CBFE01F02CFFB0EE408AF0EE608AD3
:100720009FED280B53EC102B51EC180B04F016FD29
:10073000E3D3C82002F08DFB0EE000BF00F04FFFB6
:1007400000F011F9012000F037FF0228F6DB00F07D
:100750003DFF044602F07DFB42F2107000F03CFFCA
:10076000002002F09DF800200849087000E000BF5A
:1007700000BF5AE65570706572436F6D7075746591
:10078000722052657365742100000000140000207F
:100790001800002000000000000039C00000000028
:1007A0000000244000000000000010400000000095
:1007B000000018C000000000000010C00000000091
:1007C000000024C000000000000014C010B501208B
:1007D00004F062FE0446012004F088FE844205D243
:1007E000F84800680A30F749086015E0012004F075
:1007F00053FE0446012004F079FE844205D9F148F5
:1008000000680A38EF49086006E0EF48006818B150
:10081000EC480068EC490860EC4A1268E94B1B6838
:10082000D118EA4A1268E74B1B68D01A02F0DEF8CA
:1008300010BD00B52DED108B83B0B0EE408AF0EE08
:10084000608AE34890ED000B53EC102B51EC180B31
:1008500004F0B8FADE4A03C29FEDDE0B53EC102B16
:10086000DB4890ED000B51EC100B04F08FFC04D230
:100870009FEDD80BD64880ED000B9FEDD80B53ECC5
:10088000102BD34890ED000B51EC100B04F066FCDC
:1008900004D29FEDD20BCE4880ED000BD14890EDF5
:1008A000000B53EC102B51EC180B04F02CFB41EC1B
:1008B0001E0B9FEDCD0B53EC102B04F02AFB41ECEB
:1008C0001C0BC34890ED000B53EC102B9FEDC60B97
:1008D00051EC100B04F01DFB41EC1E0B9FEDC40B03
:1008E00053EC102B51EC180B04F013FB41EC1F0BD5
:1008F00053EC1E2B04F066FA41EC1D0B53EC1C2B41
:1009000004F060FA41EC1A0BB048006804F0E2FB16
:1009100041EC1B0B53EC1A2B04F0FBFA41EC190BC6
:100920009FEDB30B53EC102B04F0EDFACDE9000171
:100930009DED000B51EC100B04F0DDFBA1490860AC
:10094000A84880ED008BA14A12680B461B68D1189D
:100950009E4A12689B4B1B68D01A02F047F803B0FE
:10096000BDEC108B00BD00B52DED068B85B0A24807
:1009700090ED001BB0EE410AF0EE610A9FED9A1B6C
:1009800053EC112B51EC100B04F0E8FB02D2FFF7F3
:100990001DFF6FE199480068994909680844994921
:1009A00009788842F5DC95484068954949680844CB
:1009B000944949788842ECDC8F4890ED001BB0EEFA
:1009C000410AF0EE610A9FED901B53EC112B51ECA4
:1009D000100B04F098FA884A03C2874890ED001B78
:1009E000B0EE410AF0EE610A9FED891B53EC112B2A
:1009F00051EC100B04F0FFFACDE900017E4890EDB8
:100A0000021BB0EE410AF0EE610A9FED831B53EC2E
:100A1000112B51EC100B04F0A1FB05D19FED800BC5
:100A2000754880ED020B22E0734890ED021BB0EE9A
:100A3000410AF0EE610A9FED741B53EC112B51EC4F
:100A4000100B04F060FA6C4AC2E90201104690ED06
:100A5000021BB0EE410AF0EE610A9FED731B53ECEE
:100A6000112B51EC100B04F0C6FACDE902016248DB
:100A700090ED001BB0EE410AF0EE610A6C4890ED7B
:100A8000001B53EC112B51EC100B04F07FFB46D2F2
:100A9000594890ED021BB0EE410AF0EE610A9FED5D
:100AA000651B53EC112B51EC100B04F02CFA41ECAC
:100AB000180B514890ED001BB0EE410AF0EE610AB0
:100AC00053EC102B51EC180B04F048FB0ED89DEDA5
:100AD000001BB0EE410AF0EE610A04F029FEB0EE10
:100AE000408AF0EE608AFFF7A4FEC3E09DED021B92
:100AF000B0EE410AF0EE610A04F01AFEB0EE409A40
:100B0000F0EE609A51EC190B81F0004141EC180BAA
:100B1000B0EE480AF0EE680AFFF78BFEAAE036480E
:100B200090ED001BB0EE410AF0EE610A404890EDF6
:100B3000001B53EC112B51EC100B04F00FFB7DD27A
:100B40002D4890ED021BB0EE410AF0EE610A9FEDD8
:100B5000391B53EC112B51EC100B04F033F941EC21
:100B6000180B254890ED001BB0EE410AF0EE610A2B
:100B700053EC102B51EC180B04F008FB5FD89DEDE3
:100B8000001BB0EE410AF0EE610A51EC100B81F04F
:100B9000004141EC1A0BB0EE4A0AF0EE6A0A04F08A
:100BA000C7FDB0EE409AF0EE609A51EC190B81F05F
:100BB000004141EC180BB0EE480AF0EE680AFFF76E
:100BC00038FE57E03C0000203800002034000020B0
:100BD0006800002000000000000034400000000019
:100BE000000034C060000020000000000000000091
:100BF000000000000000F03F48010020200000201D
:100C000028000020300000200000000000002240EA
:100C10000000000000001A40000000000000F0BFCB
:100C2000000000000000D03F0000000000001C4059
:100C300050000020000000000000E03F18E09DEDA3
:100C4000021BB0EE410AF0EE610A51EC100B81F08C
:100C5000004141EC190BB0EE490AF0EE690A04F0CC
:100C600067FDB0EE408AF0EE608AFFF7E2FD01E03A
:100C7000FFF7ACFDFE480068FE4909680844FE49DC
:100C80000978884208DAFA484068FA49496808440D
:100C9000F9494978884202DB002001F001FE05B0E5
:100CA000BDEC068B00BD00B52DED068B85B0F04880
:100CB0000068F04909680844F049097888427CDCFA
:100CC000EB484068EB4949680844EC494978884258
:100CD000F5DCEB4890ED001BB0EE410AF0EE610A46
:100CE0001FED371B53EC112B51EC100B04F00BF9DB
:100CF000E34A03C2E24890ED001BB0EE410AF0EE79
:100D0000610A1FED3D1B53EC112B51EC100B04F04D
:100D100072F9CDE90001DA4890ED021BB0EE410A0C
:100D2000F0EE610A1FED441B53EC112B51EC100B3C
:100D300004F014FA05D11FED460BD14880ED020BEB
:100D400022E0CF4890ED021BB0EE410AF0EE610ABE
:100D50001FED531B53EC112B51EC100B04F0D3F887
:100D6000C74AC2E90201104690ED021BB0EE410AEB
:100D7000F0EE610A1FED541B53EC112B51EC100BDC
:100D800004F039F9CDE90201BD4890ED001BB0EE49
:100D9000410AF0EE610ABB4890ED001B53EC112BA9
:100DA00051EC100B04F0F2F948D2B54890ED021B5B
:100DB000B0EE410AF0EE610A00E0ADE01FED631B0A
:100DC00053EC112B51EC100B04F09DF841EC180B77
:100DD000AB4890ED001BB0EE410AF0EE610A53EC17
:100DE000102B51EC180B04F0B9F90ED89DED001B37
:100DF000B0EE410AF0EE610A04F09AFCB0EE408ACF
:100E0000F0EE608AFFF715FD86E09DED021BB0EE67
:100E1000410AF0EE610A04F08BFCB0EE409AF0EE6D
:100E2000609A51EC190B81F0004141EC180BB0EEC7
:100E3000480AF0EE680AFFF7FCFC6DE0904890ED80
:100E4000001BB0EE410AF0EE610A8E4890ED001BE7
:100E500053EC112B51EC100B04F080F95AD2884856
:100E600090ED021BB0EE410AF0EE610A1FED8F1B00
:100E700053EC112B51EC100B03F0A4FF41EC180BB9
:100E80007F4890ED001BB0EE410AF0EE610A53EC92
:100E9000102B51EC180B04F079F922D89DED001BB2
:100EA000B0EE410AF0EE610A51EC100B81F0004106
:100EB00041EC1A0BB0EE4A0AF0EE6A0A04F038FC74
:100EC000B0EE409AF0EE609A51EC190B81F00041BF
:100ED00041EC180BB0EE480AF0EE680AFFF7A9FCE7
:100EE0001AE09DED021BB0EE410AF0EE610A51ECF2
:100EF000100B81F0004141EC190BB0EE490AF0EE05
:100F0000690A04F015FCB0EE408AF0EE608AFFF743
:100F100090FC01E0FFF75AFC05B0BDEC068B00BD6C
:100F200010B55948006820B95848006840425649F1
:100F30000860012004F0DAFA0446012004F0ACFA5B
:100F4000844205D95048006864304F4908600DE07C
:100F5000012004F0CBFA0446012004F09DFA8442FB
:100F600004D249480068643847490860484A126812
:100F7000454B1B68D11A464A1268434B1B68D01870
:100F800001F034FD10BD00B52DED108B83B0B0EE37
:100F9000408AF0EE608A3F4890ED000B53EC102B36
:100FA00051EC180B03F00EFF3A4A03C29FED3A0BC7
:100FB00053EC102B374890ED000B51EC100B04F064
:100FC000E5F804D29FED340B324880ED000B9FED25
:100FD000340B53EC102B2F4890ED000B51EC100B01
:100FE00004F0BCF804D29FED2E0B2A4880ED000BD4
:100FF0002D4890ED000B53EC102B51EC180B03F027
:1010000082FF41EC1E0B9FED290B53EC102B03F0DC
:1010100080FF41EC1C0B1F4890ED000B53EC102B94
:101020009FED240B51EC100B03F073FF41EC1E0BF2
:101030009FED200B53EC102B51EC180B03F069FFC4
:1010400041EC1F0B53EC1E2B03F0BCFE41EC1D0BBF
:1010500053EC1C2B03F0B6FE41EC1A0B0C48006855
:1010600004F038F841EC1B0B53EC1A2B26E000007F
:101070002000002028000020320000203000002046
:101080004801002058000020400000203C000020C3
:101090003400002078000020000000000000004024
:1010A00000000000000000C07000002000000000F0
:1010B00000000000333333333333E33F03F029FFC1
:1010C00041EC190B9FEDFE0B53EC102B03F01BFFB3
:1010D000CDE900019DED000B51EC100B04F00BF875
:1010E000F9490860F94880ED008BF94A12680B460F
:1010F0001B68D118F64A1268F34B1B68D01A01F02E
:1011000075FC03B0BDEC108B00BD10B5012004F0E0
:10111000EDF90446012004F0BFF9844205D9ED48F9
:1011200000680A30EB4908600DE0012004F0DEF9A8
:101130000446012004F0B0F9844204D2E548006876
:101140000A38E4490860E24A1268E24B1B68D11889
:10115000DF4A1268DF4B1B68D01A01F047FC10BD54
:10116000DD480088002802DCDC48006818B900204F
:10117000DB49086021E0DA480068032809DAD7482B
:101180000068032805DBD6480068401CD449086085
:1011900013E0D348006803280FD1D0480068012825
:1011A0000BDC0020CE490860CE480068401CCD49C9
:1011B00008604FF42F70C8490880CA480068CA49BF
:1011C0000978884206DB0020C5490860C5490860E7
:1011D000012070470020FCE7BF4908807047BE48E7
:1011E000008870470020704700B52DED108B83B04C
:1011F000B0EE408AF0EE608AB0EE419AF0EE619A6D
:1012000053EC192BB94890ED000B51EC100B03F087
:10121000D9FDB64A03C29FEDB60B53EC102BB34871
:1012200090ED000B51EC100B03F0B0FF04D29FEDDA
:10123000B00BAE4880ED000B9FEDAF0B53EC102BC5
:10124000AA4890ED000B51EC100B03F087FF04D27D
:101250009FEDA90BA54880ED000BA94890ED000B70
:1012600053EC102B51EC180B03F04DFE41EC1E0B10
:101270001FED720B53EC102B03F04BFE41EC1C0BDB
:101280009A4890ED000B53EC102B9FED9E0B51EC08
:10129000100B03F03EFE41EC1E0B9FED9C0B53EC3C
:1012A000102B51EC180B03F034FE41EC1F0B53ECE8
:1012B0001E2B03F087FD41EC1D0B53EC1C2B03F0A0
:1012C00081FD41EC1A0B8248006803F003FF41ECFA
:1012D0001B0B53EC1A2B03F01CFECDE900019DED16
:1012E000000B51EC100B03F006FF774908608448AF
:1012F00080ED008B764A12680B461B68D118744A41
:101300001268714B1B68D01A01F070FB03B0BDEC82
:10131000108B00BD10B52DED048B7E4890ED001BA9
:10132000B0EE410AF0EE610A1FEDA01B53EC112B49
:1013300051EC100B03F012FF7AD37748006867492D
:101340000968084475490978884271DC714890ED54
:10135000001BB0EE410AF0EE610A9FED711B53ECE9
:10136000112B51EC100B03F0CEFD6A4A03C2694801
:1013700090ED001BB0EE410AF0EE610A9FED6A1B92
:1013800053EC112B51EC100B03F035FE614A03C2F4
:10139000604890ED001BB0EE410AF0EE610A1FEDCF
:1013A000BD1B53EC112B51EC100B03F0EFFE0CD2D4
:1013B000584890ED001BB0EE410AF0EE610A04F0CF
:1013C000B7F9544880ED000B1CE0524890ED001B2B
:1013D000B0EE410AF0EE610A51EC100B81F00041D1
:1013E00041EC190BB0EE490AF0EE690A04F0A0F9DD
:1013F000B0EE408AF0EE608A51EC180B81F00041AB
:10140000444A03C2434890ED021BB0EE410AF0EE9D
:10141000610A9FED471B53EC112B51EC100B03F0AD
:101420009DFE06D11FEDDF0B3A4880ED020B9CE0DC
:10143000AAE0384890ED021BB0EE410AF0EE610AD6
:101440009FED371B53EC112B51EC100B03F05BFDA0
:10145000304AC2E90201104690ED021BB0EE410A8B
:10146000F0EE610A9FED301B53EC112B51EC100B89
:1014700003F0C1FD274AC2E90201104690ED021BAC
:10148000B0EE410AF0EE610A1FEDF81B53EC112B90
:1014900051EC100B03F07AFE51D21E4890ED021B66
:1014A000B0EE410AF0EE610A04F042F9B0EE408A73
:1014B000F0EE608A51EC180B81F00041154A3BE0D8
:1014C000000000000000F03F3C0000207000002001
:1014D00034000020380000204600002028000020B2
:1014E00080000020840000204800002090000020A0
:1014F000000000000000344000000000000034C084
:10150000880000207B14AE47E17A843F9A9999992C
:101510009999E93F48010020200000203000002078
:1015200000000000000022400000000000001C40FD
:10153000000000000000F0BFC2E9020115E0C6484B
:1015400090ED021BB0EE410AF0EE610A51EC100B77
:1015500081F0004141EC180BB0EE480AF0EE680A49
:1015600004F0E6F8BC4880ED020BBB4890ED022B7E
:10157000B0EE421AF0EE621A90ED002BB0EE420A85
:10158000F0EE620AFFF730FEB4480068B44909681B
:101590000844B4490978884208DAB0484068B0493C
:1015A00049680844AF494978884202DB002001F0CD
:1015B00077F9BDEC048B10BD0146A84850F8210016
:1015C00070470146A64850F821007047A6480078A9
:1015D00000EB800040007047A449086070472DE987
:1015E000F0412DED048B00F06BFC06460024DFE09B
:1015F00000250020994941F82400994941F8240028
:101600001FED350B944800EBC40080ED000B00BFCC
:1016100020E006EB041030F8150040F65431884203
:1016200000DB16E006EB041030F81500B0F52F7F54
:1016300007DC8B4850F82400401C894941F82400FD
:1016400006E0864850F82400401C844941F82400F4
:1016500000BF6D1C082DDCDB814850F824007F4959
:1016600051F82410084400287EDD00254AE006EBEE
:10167000041030F8150040F65431884200DB40E099
:1016800006EB041030F81500B0F52F7F20DC28465B
:1016900003F020FD41EC190B9FED750B53EC102B63
:1016A00003F090FB41EC180B6B4800EBC40090ED8D
:1016B000001BB0EE410AF0EE610A53EC102B51EC26
:1016C000180B03F07FFB644A02EBC40203C21BE069
:1016D000A81C03F0FFFC41EC180B5F4800EBC400B2
:1016E00090ED001BB0EE410AF0EE610A53EC102BB6
:1016F00051EC180B03F066FB574A02EBC40203C21D
:1017000002E06D1C082DB2DB00BF07274CE006EBA2
:10171000041030F8170040F65431884200DB42E0F4
:1017200006EB041030F81700B0F52F7F22DC3846A6
:1017300003F0D0FC41EC190B9FED4D0B53EC102B3B
:1017400003F040FB41EC180B434800EBC40090ED64
:10175000001BB0EE410AF0EE610A53EC102B51EC85
:10176000180B03F02FFB00E021E03B4A02EBC40220
:1017700003C21BE0781C03F0ADFC41EC180B3648AB
:1017800000EBC40090ED001BB0EE410AF0EE610AE0
:1017900053EC102B51EC180B03F014FB2E4A02EB08
:1017A000C40203C202E07F1E002FB0DA00BF641C37
:1017B000022CFFF61DAFBDEC048BBDE8F081017873
:1017C0002D4A11704178284A117081782B4A117086
:1017D00070472A480078002809DD28480078C82882
:1017E00005DA26480078642110FB01F070470020DC
:1017F000FCE710B5012003F079FE0446012003F058
:101800004BFE844205D91E4800680A301C49086016
:101810000DE0012003F06AFE0446012003F03CFEC7
:10182000844204D2164800680A3815490860144AF0
:10183000126802F5AF61124A1268C2F5AF6001F09A
:10184000D5F810BD0F480088002804DD0D48008839
:10185000401E0C49088070474801002020000020ED
:101860002800002032000020490000203400002021
:10187000000000000000F83F480000204400002065
:10188000980000204600002010B505217E4801F098
:10189000CCF910BD10B540F6FC01012001F066FA4C
:1018A00040F6FC01002001F061FA4FF4FA7001F0FB
:1018B000D0FA012001F07BFA002001F078FAFFF75E
:1018C000E3FF10BD10B540F6FC01022001F04EFA16
:1018D0004FF4FA7001F0BDFA022001F068FAFFF748
:1018E000D3FF10BD10B540F2EC414FF4966001F00B
:1018F0007DF8022000F0D4FFB22000F0CFFB0020E2
:1019000000F0CEFFFFF7C0FF10BD10B540F6B831B4
:10191000084601F06BF8032000F0C2FFB22000F08F
:10192000BDFB002000F0BCFFFFF7AEFF10BD10B5FF
:1019300040F6B831084601F059F8022000F0B0FF37
:101940004FF4B97000F0AAFB002000F0A9FFFFF7E8
:101950009BFF10BD70B52DED048B0446B42C02DC4A
:1019600014F1B40F02DABDEC048B70BD0025002C1D
:1019700013DD204603F0AEFB41EC190B9FED430B4A
:1019800053EC102B03F0C5FA41EC180B03F0B3FB3A
:101990000546022003F0D4FD12E0604203F09AFBFA
:1019A00041EC190B9FED390B53EC102B03F0B1FAFE
:1019B00041EC180B03F09FFB0546032003F0C0FD2C
:1019C00040F6B831084601F011F8A8B2314900F0EC
:1019D00095FB002000F064FFFFF756FF00BFC2E751
:1019E00010B52D48006868B300202B4908602B48CB
:1019F0000078092821D2DFE800F02005080B0E113D
:101A0000141E1F00FFF746FF18E0FFF75BFF15E00D
:101A1000FFF77BFF12E0FFF765FF0FE0FFF787FF9F
:101A20000CE01F4949781E4A127841EA022108B2A7
:101A3000FFF790FF02E000BF00E000BF00BF002002
:101A4000164908701548007810BD144A10700A78BD
:101A5000134B1A704A785A708A78124B1A70012206
:101A60000D4B1A6070470F48007800280ADD0D48BA
:101A70000078142806DA0B4800784FF47A7110FBCE
:101A800001F070470020FCE79C00002036AE2DD806
:101A9000589E0040DD2A0008A4000020A800002075
:101AA000A9000020AB00002010B540F2EC414FF43B
:101AB000966000F09BFF012000F0F2FE10BD10B513
:101AC0002DED028B5748006888B90020FFF779FD9B
:101AD00004460020FFF770FD2044022807D14FF490
:101AE000FA70FFF779FB0120BDEC028B10BD4E4868
:101AF000006890B900F03CFDB0EE408AF0EE608ADC
:101B00009FED4A0B53EC102B51EC180B03F03EFBEE
:101B100003D201204449086019E0434800680128C5
:101B200015D100F025FDB0EE408AF0EE608A9FED01
:101B3000410B53EC102B51EC180B03F00FFB06D2AA
:101B4000002039490860374908600120CCE70020AF
:101B5000CAE710B52DED028B00F00AFDB0EE408A09
:101B6000F0EE608A9FED350B53EC102B51EC180B07
:101B700003F0F4FA0ED20020FFF723FD0446002004
:101B8000FFF71AFD204428B1012026490860BDEC6A
:101B9000028B10BD0020FFF714FD03280FDBFFF7B9
:101BA0001EFB60B927480068401C264908600846AB
:101BB0000068032806DB002008600120E7E700201A
:101BC000204908600020E2E710B5012003F08EFCF8
:101BD0000446012003F060FC844205D91A480068DD
:101BE0000A30194908600DE0012003F07FFC04462B
:101BF000012003F051FC844204D2134800680A38E3
:101C000011490860114A12680F4B1B68D1180F4A1E
:101C100012680D4B1B68D01A00F0E8FE10BD014899
:101C200000687047B4000020B800002000000000E9
:101C300000003240000000000000204000000000D2
:101C4000000039C0BC000020B0000020AC00002023
:101C5000114A1060516070471CB50121402002F00C
:101C600001FE4FF40040009001208DF80400022096
:101C70008DF8050000208DF8060002208DF8070081
:101C80006946064802F0C8FF4FF47A6141F2883095
:101C9000FFF7DEFF1CBD0000C0000020001802405E
:101CA00000B58DB00121084602F0DCFD01210220C3
:101CB00002F0D8FD0121102002F0D4FD01212020E6
:101CC00002F0D0FD0121402002F0CCFD01210802EC
:101CD00002F022FE4FF48070079001208DF8200062
:101CE00003208DF8210000208DF8220001208DF8BE
:101CF000230007A9874802F08FFF0220079007A959
:101D0000854802F089FF4FF40450079007A98348E3
:101D100002F082FFFC20079003208DF820000020B5
:101D20008DF8230007A97E4802F076FF0320079074
:101D300007A97C4802F070FF0220079007A97A48A3
:101D400002F06AFF0121080202F03BFE00214FF47D
:101D5000807002F036FE002009904FF480300A9027
:101D600000200B904FF400700C9009A801F00EFFBA
:101D7000002001908DF808008DF80900039005906F
:101D800001208DF8180001A9684801F0D0FE4FF439
:101D90008071624802F0BEFF0DB000BD70B506460E
:101DA0000C461546002E05DD4FF48071594802F0AF
:101DB000AFFF04E04FF48071564802F0ABFF002CF7
:101DC00004DD0221544802F0A3FF03E0022152483F
:101DD00002F0A0FF002D05DD4FF400514F4802F046
:101DE00097FF04E04FF400514C4802F093FF70BDA0
:101DF00010B50446092C36D2DFE804F035050B1186
:101E0000171D23292F00002201211046FFF7C6FFCE
:101E10002AE0012200211046FFF7C0FF24E0012242
:101E200000210846FFF7BAFF1EE0012211461046C6
:101E3000FFF7B4FF18E0002211461046FFF7AEFF8F
:101E400012E0002201210846FFF7A8FF0CE0012262
:101E500011460020FFF7A2FF06E0002211460120F4
:101E6000FFF79CFF00E000BF00BF10BD10B50446A7
:101E70000223012221462D4801F0DFFE2B4801F00C
:101E800038FF00BF0221294802F054F80028F9D099
:101E9000264801F06AFF10BD2DE9F04107460C46C7
:101EA0000025002605E03846FFF7E0FF0544701CDA
:101EB000C6B2A642F7DBB5FBF4F080B2BDE8F08114
:101EC00070B50121194801F078FE002418E00025C2
:101ED00013E0012C02D1681CFFF78AFF144901EBC3
:101EE000C401495D134A505C0121FFF7D5FF124937
:101EF00001EB041121F815006D1C082DE9DB641CB1
:101F0000022CE4DB0021094801F057FE0A4870BDAD
:101F100009487047001002400018024000140240B7
:101F2000000002400004024000080240002001407E
:101F300020610008306100085801002000B589B018
:101F40000121084602F0D7FC0121082002F0D3FC51
:101F50000121084602F086FC02220021804802F09E
:101F6000E6FE01220F217E4802F0E1FE48F2010068
:101F7000009002208DF8040003208DF80500002059
:101F80008DF8060002208DF807006946744802F0BB
:101F900043FEA720ADF818000020ADF81A004CF25F
:101FA0004F3007900020ADF8200006A96D4801F0E1
:101FB0000EF806A94FF0804001F009F80020ADF8B6
:101FC0000C00ADF80E000120ADF810000020ADF8B7
:101FD00012000220ADF8140003A9624801F0CEFB04
:101FE00003A94FF0804001F0C9FB32208DF80800B2
:101FF00002208DF8090000208DF80A0001208DF8DC
:102000000B0002A802F0E9F91C208DF8080002A8D4
:1020100002F0E3F90121534801F062F80121880739
:1020200001F05EF809B000BD4F480068704710B578
:102030004C4B984215D10A2A06DBFF234B4C2370E8
:1020400000234B4C236010BD40F63543534301EB56
:102050000313474C2360454B1B785B1C434C237098
:1020600017E0B0F1804F14D10A2A06DBFF23414C60
:1020700023700023404C2360E5E740F6354353438B
:1020800001EB03133C4C23603A4B1B785B1C394C2F
:10209000237000BFD7E739480068704710B5044681
:1020A0000020364908603049086003212D4801F0BE
:1020B00057FC03214FF0804001F052FC0122032124
:1020C000284801F025FC01220321900701F020FCA3
:1020D00000BF25480068A04203D228480068A042FB
:1020E000F7D3002203211F4801F012FC0022032134
:1020F0004FF0804001F00CFC012010BD70B504468B
:102100000D4600201D490860174908600321154845
:1021100001F026FC03214FF0804001F021FC012258
:102120000321104801F0F4FB01220321900701F084
:10213000EFFBA84700BF0C480068A042FBD30F4844
:102140000068A042F7D300220321064801F0E0FB1B
:10215000002203214FF0804001F0DAFB012070BD26
:1021600000000240000C0040D4000020D0000020FD
:10217000CC000020DC000020D8000020E00000207F
:102180001CB50121022002F06DFB4FF4407000905D
:1021900001208DF8040000208DF8060003208DF842
:1021A000050001208DF807006946F74802F034FD6C
:1021B0000120F6490860F649C1F8A4021CBDA72118
:1021C00005E0A72100BF0A1EA1F10101FBDC021EF0
:1021D000A0F10100F5D1704700B5EB48006820F48C
:1021E0004020E94908600846006840F48020086003
:1021F0000020E6490860E649C1F8A4020420FFF780
:10220000DEFF0120E14908600420FFF7D8FF01202C
:10221000DF49C1F8A40200BD00B50020DB49086019
:10222000D948006820F44020D74908600846006873
:1022300040F4802008600020D549C1F8A4020220A3
:10224000FFF7BDFF0120D14908600220FFF7B7FF6B
:102250000020CF49C1F8A00200BD00B50020CB4945
:102260000860C948006820F44020C7490860084653
:10227000006840F4802008600120C549C1F8A4022C
:102280000220FFF79CFF0120C04908600220FFF7F1
:1022900096FF0020BE49C1F8A00200BD70B50546FA
:1022A0000024B948006820F44020B7490860084677
:1022B00000680860002616E00020B449086002208B
:1022C000FFF77DFF0120B249C1F8A0026006040EAD
:1022D000AE487C38006808B1601CC4B20120FFF72A
:1022E0006EFF701CC6B2082EE6DB15B9FFF7B5FF0E
:1022F00001E0FFF791FF204670BD10B500240120DA
:10230000A249091D0860A048006820F440209E49A9
:1023100008600846006808600120FFF750FF0120B0
:102320009B49C1F8A002FFF74AFF07E0601CC4B256
:10233000FA2C03DDFFF750FF012010BD93487C38D5
:1023400000680028F2D19149086000BFF5E730B578
:1023500005468D48006820F440208B4908600846F7
:10236000006840F480200860002088490860072445
:1023700015E045FA04F08549091D08600220FFF7C1
:102380001EFF01208249C1F8A0020220FFF717FFBB
:1023900000207E4908600220FFF711FF641E002C18
:1023A000E7DA30BD00B57848006820F4402076496F
:1023B00008600846006840F48020086001207349E6
:1023C000091D08607249C1F8A0020420FFF7F7FE5A
:1023D00000206E49091D08600420FFF7F0FE002070
:1023E0006B49C1F8A00200BD2DE9F04105468846C1
:1023F00016461F460024FFF7D5FF6906080EFFF7B3
:10240000A6FFFFF77AFF4046FFF7A1FFFFF775FF32
:10241000FFF7C8FF012101EB4501C8B2FFF797FFA5
:10242000FFF76BFF00BF0DE0701EA04204D001203B
:10243000FFF734FF385503E00020FFF72FFF385532
:10244000601CC4B2B442EFDBFFF7C6FE2046BDE815
:10245000F0812DE9F04105460E46174698460024C6
:10246000FFF7A0FF6906080EFFF771FFFFF745FFB2
:102470003046FFF76CFFFFF740FF00BF07E018F89A
:102480000400FFF764FFFFF738FF601CC4B2BC42D2
:10249000F5DBFFF7A1FE0120BDE8F08101460878D9
:1024A0004A7840EA022000B2704700B52DED048B57
:1024B00083B001AB06223D215020FFF795FF01A814
:1024C000FFF7ECFF334908800DF10600FFF7E6FF48
:1024D0003149088002A8FFF7E1FF304908802D4804
:1024E000B0F9000002F0F6FD41EC190B9FED2C0B4A
:1024F00053EC102B02F07FFD41EC180B9FED2A0BE3
:1025000053EC102B02F005FD294A03C22248B0F912
:10251000000002F0DFFD41EC190B9FED210B53ECA5
:10252000102B02F068FD41EC180B9FED1F0B53ECD4
:10253000102B02F0EEFC1F4A03C21848B0F900004D
:1025400002F0C8FD41EC190B9FED150B53EC102B5D
:1025500002F051FD41EC180B9FED130B53EC102BC7
:1025600002F0D7FC144A03C203B0BDEC048B00BDDB
:102570000F4890ED000B70470E4890ED000B704730
:102580000D4890ED000B704700040240A0824042CD
:1025900000804042000100200201002004010020D0
:1025A000000000000000E0400000000000806640E5
:1025B000E8000020F0000020F800002000B52DED1C
:1025C000108BB1B02AAB182234215020FFF70CFF3A
:1025D0002AA8FFF763FF00EE100AB8EEC00ADFED8D
:1025E000A30A80EE201AB3EE000A21EE000A8DED58
:1025F000270A0DF1AA00FFF751FF00EE100AB8EE0E
:10260000C00ADFED9A0A80EE201AB3EE000A21EE2E
:10261000000A8DED280A2BA8FFF740FF00EE100AF4
:10262000B8EEC00ADFED910A80EE201AB3EE000A80
:1026300021EE000A8DED290A0DF1AE00FFF72EFF05
:1026400000EE100AB8EEC00A9FED881AC0EE010A2B
:102650009FED870A20EE800A8DED240A2CA8FFF753
:102660001DFF00EE100AB8EEC00ADFED800A80EE12
:10267000201A9FED7F0A21EE000A8DED250A0DF14B
:10268000B200FFF70BFF00EE100AF8EEC00A9FED54
:10269000771A80EE810ADFED760A20EE200A8DEDB2
:1026A000260A2DA8FFF7FAFE00EE100AB8EEC00ABF
:1026B0008DED210A0DF1B600FFF7F0FE00EE100AD5
:1026C000B8EEC00A8DED220A2EA8FFF7E7FE00EE55
:1026D000100AB8EEC00A8DED230A0DF1BA00FFF71B
:1026E000DDFE00EE100AF8EEC00A9FED601A80EEE3
:1026F000810ADFED600A20EE200A8DED1E0A2FA868
:10270000FFF7CCFE00EE100AB8EEC00A9FED571A94
:10271000C0EE010A9FED570A20EE800A8DED1F0AD8
:102720000DF1BE00FFF7BAFE00EE100AF8EEC00A87
:102730009FED4E1A80EE810ADFED4E0A20EE200A50
:102740008DED200A9DED200A10EE101A084602F0C9
:10275000F1FC41EC180B9DED1F0A10EE101A084613
:1027600002F0E8FC41EC190B9DED1E0A10EE101A68
:10277000084602F0DFFC41EC1A0B9DED230A10EE37
:10278000101A084602F0D6FC41EC1B0B9DED220A04
:1027900010EE101A084602F0CDFC41EC1C0B9DED2A
:1027A000210A10EE101A084602F0C4FC41EC1D0B81
:1027B0009DED260A10EE101A084602F0BBFC41EC13
:1027C0001E0B9DED250A10EE101A084602F0B2FC11
:1027D00041EC1F0B9DED240A10EE101A084602F082
:1027E000A9FCCDE91C019DED290A10EE101A08463E
:1027F00002F0A0FCCDE91A019DED280A10EE101A96
:10280000084602F097FCCDE918019DED270A10EE6D
:10281000101A084602F08EFCCDE916018DED148BDE
:102820008DED129B8DED10AB8DED0EBB8DED0CCBB8
:102830008DED0ADB8DED08EB8DED06FB9DED1C0BA0
:102840008DED040B9DED1A0B8DED020B9DED180B1C
:102850008DED000B9DED160B53EC102B06A002F036
:1028600057FF31B0BDEC108B00BD000000000047E9
:102870000000FA440000344325662C25662C2566AA
:102880002C25662C25662C25662C25662C25662C89
:1028900025662C25662C25662C25660D0A00000071
:1028A00010B50446A7480078844229D00020A649E4
:1028B00008603C21A54802F02DFA642000F0C9FA16
:1028C000052C19D2DFE804F00304090E130014E00C
:1028D00024219E4802F01CFA0FE014219B4802F0CC
:1028E00017FA0AE02821994802F012FA05E01821A7
:1028F000964802F00DFA00E000BF00BF9148047056
:102900009048007810BD00B58BB00121402001F047
:10291000A9FF0121042001F0A5FF0121022001F0FF
:10292000EAFF3C20019001208DF8080003208DF87B
:10293000090000208DF80A0002208DF80B0001A983
:10294000824802F069F902220621814802F0EFF97B
:10295000022207217E4802F0EAF9C02001900220FD
:102960008DF8080003208DF8090000208DF80A007A
:1029700002208DF80B0001A9754802F04DF9532093
:10298000ADF820000020ADF8220044F61F60099049
:102990000020ADF8280008A96E4800F018FB602060
:1029A000ADF80C000120ADF80E000020ADF81800C5
:1029B000059003A9674800F09FFB03A9654800F054
:1029C000D4FB0821634800F024FD0821614800F091
:1029D00029FD01215F4800F065FB01215D4800F001
:1029E0007FFB0020FFF75CFF0BB000BD70B5044615
:1029F0000D4644F61F60854201DD054602E0002DCC
:102A000000DA002544F61F60844201DD044602E03E
:102A1000002C00DA002450480560504804604E48FD
:102A200001684C4800F0C1FC4C480168494800F07E
:102A3000BEFC4548006870BD70B52DED068BB0EE4C
:102A4000408AF0EE608AB0EE419AF0EE619A9FED16
:102A5000440B53EC102B51EC190B02F097FB1AD3DB
:102A60009FED3F0B53EC102B51EC180B02F08EFB3B
:102A700011D39FED3D0B53EC102B51EC180B02F0D2
:102A80006DFB08D39FED380B53EC102B51EC190B59
:102A900002F064FB04D22B480078BDEC068B70BDBD
:102AA0009FED330B53EC102B51EC190B02F031FA64
:102AB00041EC1A0B02F01FFB04469FED2D0B53EC6B
:102AC000102B51EC180B02F024FA41EC1A0B02F017
:102AD00012FB05462146FFF789FFDEE710B51A48CD
:102AE000006848B30020184908603C21174802F0EC
:102AF00011F9642000F0ADF912480078052819D2C8
:102B0000DFE800F00304090E130014E024210F484D
:102B100002F0FEF80FE014210C4802F0F9F80AE088
:102B200028210A4802F0F4F805E01821074802F0CD
:102B3000EFF800E000BF00BF0248007810BD0E496A
:102B400008607047100100201401002000180240A6
:102B500000080240000400400C0100200801002091
:102B6000000000000000F03F000000000000F0BF87
:102B700000000000C087D3401801002000B587B0D6
:102B80000121084601F06EFE0121102001F0C4FE73
:102B9000072209213F4802F0CAF807220A213D48CE
:102BA00002F0C5F84FF4C060059002208DF81800BF
:102BB0008DF8190000208DF81A0001208DF81B00F7
:102BC00005A9344802F028F84FF4E13001900020C4
:102BD000ADF80800ADF80A00ADF80C00ADF8100033
:102BE0000C20ADF80E0001A92B4801F02EFA0121AE
:102BF000294801F0B2FA012240F22551264801F09D
:102C000062FB4FF4A06001F0E3FB25208DF800008B
:102C100003208DF801008DF8020001208DF80300DB
:102C2000684601F0DAFB07B000BD70B505460E46F8
:102C300000240CE0295D184801F0BAFA00BF4021D9
:102C4000154801F065FB0128F9D1601CC4B2B442FB
:102C5000F0DB70BD70B504462578052D04D1607891
:102C6000A11CFEF7F2FE04E0042D02D1601CFEF769
:102C7000A6FD70BD70B504460D46E1B2064801F0F0
:102C800097FA00BF4021044801F042FB0028F9D028
:102C9000204670BD000002400010014000B58BB01E
:102CA0000121042001F027FE0121082001F0DAFDB6
:102CB00002220C214C4802F03AF802220D214A4827
:102CC00002F035F802220E21474802F030F84FF4A6
:102CD000E040019002208DF8080003208DF80900E3
:102CE00000208DF80A0001208DF80B0001A93E4854
:102CF00001F092FF5320ADF820000020ADF8220033
:102D000044F61F6009900020ADF8280008A9374854
:102D100000F05DF96020ADF80C000120ADF80E0068
:102D20000020ADF81800059003A9304800F0E4F940
:102D300003A92E4800F019FA03A92C4800F062FA02
:102D400008212A4800F065FB0821284800F06AFBAA
:102D50000821264800F073FB0121244800F0A2F965
:102D60000121224800F0BCF90BB000BD70B505464A
:102D70000C46B4F5166F19D8B4F5FA7F16D325B101
:102D8000012D07D0022D0FD109E02146174800F090
:102D900010FB0AE02146154800F009FB05E021463A
:102DA000124800F002FB00E000BF00BF70BD10B58C
:102DB000044624B1012C08D0022C12D10BE04FF4B0
:102DC00016710A4800F0F5FA0CE04FF41671074846
:102DD00000F0EDFA06E04FF41671044800F0E5FA51
:102DE00000E000BF00BF10BD000C02400008004022
:102DF00010B5002804DB0A07130E1A4A135406E024
:102E00000A07140E184A00F00F031B1FD45410BDFC
:102E100010B5164800684FF47A71B0FBF1F4601EEB
:102E2000B0F1807F00D30FE0601E4FF0E0214861D9
:102E30000F214FF0FF30FFF7DBFF00204FF0E021C4
:102E400088610720086100BF0021481EFFF7D0FFFE
:102E500010BD0749086000BF054909680029FBD17A
:102E60007047000000E400E018ED00E000000020E2
:102E70001C01002010B50446FE48844208D10121FF
:102E8000084601F09EFD0021012001F09AFD9DE021
:102E9000B4F1804F08D10121084601F081FD0021E5
:102EA000012001F07DFD91E0F348844208D1012129
:102EB000022001F075FD0021022001F071FD85E086
:102EC000EE48844208D10121042001F069FD00216F
:102ED000042001F065FD79E0E948844208D1012130
:102EE000082001F05DFD0021082001F059FD6DE092
:102EF000E448844208D10121102001F051FD002155
:102F0000102001F04DFD61E0DF48844208D101212D
:102F1000202001F045FD0021202001F041FD55E079
:102F2000DA48844208D10121022001F04AFD002143
:102F3000022001F046FD49E0D548844209D1012133
:102F4000080401F03EFD00214FF4803001F039FD0E
:102F50003CE0D048844209D10121480401F031FD10
:102F600000214FF4003001F02CFD2FE0CA488442CC
:102F700009D10121880401F024FD00214FF48020B3
:102F800001F01FFD22E0C548844208D10121402004
:102F900001F006FD0021402001F002FD16E0C048CE
:102FA000844208D10121802001F0FAFC0021802018
:102FB00001F0F6FC0AE0BB48844207D101218015EC
:102FC00001F0EEFC0021A01501F0EAFC10BD00228A
:102FD0000288A84B98420ED0AC4B98420BD0B0F16F
:102FE000804F08D0A44B984205D0A44B984202D001
:102FF000A34B984204D14FF68F731A404B881A4363
:10300000A04B984207D0A04B984204D04FF6FF4304
:103010001A400B891A4302804B68C3620B880385F0
:10302000944B984202D0994B984201D18B7A0386F7
:103030000123838270474FF0FF31416000210180FE
:1030400001814180817270470185828270470A4602
:10305000002101884FF68F7319401143018070479A
:1030600041627047C16270470146486A7047014635
:10307000088D704721B1028842F00202028004E00C
:1030800002884FF6FD731A400280704721B1028812
:1030900042F00402028004E002884FF6FB731A40FB
:1030A0000280704721B1028842F08002028004E071
:1030B00002884FF67F731A400280704702884FF6ED
:1030C000F7731A40028002880A4302807047028820
:1030D0004FF6FF431A40028002880A43028070477D
:1030E00021B1028842F00102028004E002884FF61A
:1030F000FE731A400280704770B50024002200233E
:10310000058C4FF6FE7635400584028C8388048B4F
:103110004FF68F752C40B51E2C400D882C43751E24
:103120002A408D892A434D882A43524DA84202D015
:10313000564DA84213D14FF6F7752A40CD892A4340
:103140004FF6FB752A408D882A434FF6FF652B40CA
:103150004FF6FF552B400D8A2B434D8A2B4383801E
:1031600004838D684563028470BD70B5002400221D
:103170000023058C4FF6EF7635400584028C83885A
:10318000048B48F6FF752C404FF6FF452C400D8808
:103190004FF6FF7606EA05252C434FF6DF752A40E9
:1031A0008D8906EA05152A434D8806EA05152A4346
:1031B000304DA84202D0354DA8421DD14FF67F7543
:1031C0002A40CD894FF6FF7606EA05152A434FF6C9
:1031D000BF752A408D8806EA05152A434FF6FF354C
:1031E0002B404FF2FF752B400D8A06EA85052B43D5
:1031F0004D8A06EA85052B43838004838D688563A9
:10320000028470BD70B5002400220023058C4FF6A7
:10321000FF6635400584028C8388848B4FF68F755A
:103220002C404FF6FC752C400D882C434FF6FF5573
:103230002A408D894FF6FF7606EA05252A434D88F8
:1032400006EA05252A430B4DA84202D00F4DA8429D
:1032500038D14FF2FF752A40CD894FF6FF7606EA46
:1032600005252A434FF6FF352A408D8806EA0525B5
:103270002A4319E00000014000040040000800401B
:10328000000C004000100040001400400004014009
:103290000040014000440140004801400018004047
:1032A000001C0040002000404EF6FF752B404DF6FC
:1032B000FF752B400D8A06EA05152B434D8A06EA59
:1032C00005152B43838084838D68C563028470BD9C
:1032D00070B5002200230024058C4EF6FF763540A1
:1032E0000584038C8488828B48F6FF752A404FF64C
:1032F000FF452A400D884FF6FF7606EA05252A434A
:103300004DF6FF752B408D8906EA05352B434D8818
:1033100006EA05352B43FE4DA84202D0FD4DA842DA
:1033200008D14BF6FF752C400D8A4FF6FF7606EA62
:1033300085152C43848082838D680564038470BD69
:10334000002101804180818081608181C181018271
:103350004182704770B5034600200024184618309B
:1033600001258D40ACB21D8CA5431D8409B10829EF
:103370000AD100EB610005684FF68F763540056095
:103380000568154305600FE00D1FC5F34E05284481
:10339000056848F6FF763540056005684FF6FF760C
:1033A00006EA02263543056070BD416370478163BC
:1033B0007047C1637047016470470A460021018B62
:1033C0004FF68F7319401143018370470A4600215D
:1033D000018B48F6FF7319404FF6FF7303EA02238F
:1033E0001943018370470A460021818B4FF68F7382
:1033F00019401143818370470A460021818B48F6AA
:10340000FF7319404FF6FF7303EA022319438183C8
:1034100070470A460021018B4FF6F773194011439C
:10342000018370470A460021018B4FF2FF73194058
:103430004FF6FF7303EA02231943018370470A46DC
:103440000021818B4FF6F773194011438183704738
:103450000A460021818B4FF2FF7319404FF6FF732C
:1034600003EA02231943818370470A460021018B36
:103470004FF6FB7319401143018370470A46002140
:10348000018B4FF6FF3319404FF6FF7303EA022317
:103490001943018370470A460021818B4FF6FB7365
:1034A00019401143818370470A460021818B4FF6F2
:1034B000FF3319404FF6FF7303EA02231943818358
:1034C00070470A460021018B4FF67F731940114364
:1034D000018370470A460021018BC1F30E014FF6AC
:1034E000FF7303EA02231943018370470A46002150
:1034F000818B4FF67F7319401143818370470A46D1
:103500000021818BC1F30E014FF6FF7303EA022302
:103510001943818370470A460021018C4FF6FD73E1
:1035200019401143018470470A460021018C4FF66F
:10353000F77319401143018470470A460021018C3A
:103540004FF6DF7319404FF6FF7303EA0213194376
:10355000018470470A460021018C4FF67F731940A1
:103560004FF6FF7303EA02131943018470470A46BA
:103570000021018C4FF6FF5319404FF6FF7303EA09
:1035800002231943018470470A460021018C4FF23F
:10359000FF7319404FF6FF7303EA022319430184B6
:1035A00070470A460021018C4DF6FF7319404FF613
:1035B000FF7303EA023319430184704730B50023D7
:1035C00001248C40A3B2048C9C430484048C02FA32
:1035D00001F5ADB22C43048430BD30B50023042482
:1035E0008C40A3B2048C9C430484048C02FA01F541
:1035F000ADB22C43048430BD828B4FF2FF331A40AE
:103600008283828B4FF6FF7303EA01231A4382837E
:103610007047F0B50C461546002100220026078CA5
:103620004EF6FF7C07EA0C070784818B028C4FF66D
:10363000FF7707EA043640F6FF4739404FF6FF7739
:1036400007EA052739434FF6FF7707EA033739437F
:1036500045F6FF773A4046F480573A438183028427
:10366000F0BD828B4FF6F3731A408283828B0A433C
:1036700082837047F0B50C461546002100220026D3
:10368000078C4FF6FF6C07EA0C070784818B028CCE
:103690004FF6FF7707EA04264FF60C7739404FF6CE
:1036A000FF7707EA03172F4339434FF2FF573A409A
:1036B00046F480773A4381830284F0BD028B4FF257
:1036C000FF331A400283028B4FF6FF7303EA012394
:1036D0001A4302837047F0B50C46154600210022BC
:1036E0000026078C4FF6EF7C07EA0C070784018B56
:1036F000028C4FF6FF7707EA041640F6FF47394081
:103700004FF6FF7707EA033739434FF6FF7703E0B9
:10371000000001400004014007EA052739434FF645
:103720005F773A4046F010073A4301830284F0BDC8
:10373000028B4FF6F3731A400283028B0A43028313
:103740007047F0B50C46154600210022068C4FF656
:10375000FE773E400684018B028C4FF60C7631409A
:103760007E1C06EA03162E4331434FF6F5763240AF
:1037700044F00106324301830284F0BD70B5054672
:103780000C46208850B92389A28861882846FFF713
:10379000D8FFE1882846FFF7CBFF25E020880428E2
:1037A0000AD12389A28861882846FFF794FFE1881F
:1037B0002846FFF783FF17E0208808280AD12389CD
:1037C000A28861882846FFF755FFE1882846FFF761
:1037D00048FF09E02389A28861882846FFF719FF7E
:1037E000E1882846FFF708FF70BD00210180418075
:1037F000012181800021C180018170472DE9F041C4
:1038000005460C4600260127608808B9022600E01C
:103810000026A088012801D1022700E00127208886
:10382000A0B92389A28861882846FFF78AFFE1882A
:103830002846FFF77DFF23893A4631462846FFF7A1
:103840004AFFE1882846FFF739FF13E02389A28861
:1038500061882846FFF73FFFE1882846FFF72EFFE3
:1038600023893A4631462846FFF76BFFE188284610
:10387000FFF75EFFBDE8F0810146486B70470146E7
:10388000886B70470146C86B70470146086C7047EB
:103890000A884B881A438B881A43CB881A430B89B2
:1038A0001A434B891A438B891A43A0F84420704766
:1038B0000021018041808180C1800181418181811D
:1038C000704731B1B0F8442042F40042A0F84420DF
:1038D00005E0B0F84420C2F30E02A0F8442070477F
:1038E00021B1828842F00402828004E082884FF68F
:1038F000FB731A408280704721B1828842F0010236
:10390000828004E082884FF6FE731A4082807047FE
:103910001AB183890B43838102E083898B438381BE
:1039200070478182704702460020138A0B400BB11A
:10393000012000E000207047CA430282704730B582
:103940000246002000230024158A05EA0103958918
:1039500005EA010413B10CB1012000E0002030BDE4
:10396000CA430282704741EA0203A0F84830704718
:103970001AB183890B43838102E083898B4383815E
:10398000704721B1828842F00802828004E0828878
:103990004FF6F7731A408280704701894FF6F8722C
:1039A0001140018170470A46002101894FF68F734B
:1039B000194011430181704730B504460D46294630
:1039C0002046FFF7F0FF208940F00700208130BD3E
:1039D0002DE9F04104460D4616461F46602D06D1DE
:1039E0003B46012231462046FFF775FE05E03B4687
:1039F000012231462046FFF7A4FE29462046FFF764
:103A0000D2FF208940F007002081BDE8F08130B569
:103A10000C4600210189C9B24FF6FF7505EA03255E
:103A2000154325432943018130BD2DE9F041054669
:103A30000E4617469846002443463A4631462846E5
:103A4000FFF7E5FF2C894FF6F870044044F00704B7
:103A50004FF68F70044044F070042C81BDE8F08173
:103A6000F0B504460D4616461F463B4632462946EB
:103A70002046FFF7CCFF208940F480402081F0BD34
:103A800082884FF68F731A40828082880A43828030
:103A9000704702894FF6F8731A40028102890A437F
:103AA0000281704702894FF67F731A4002810289B2
:103AB0000A4302817047F0B50C4615461E460021A8
:103AC000002200230189028B038C4FF6F8773940DE
:103AD00021434FF6FC473A4040F201173A434FF674
:103AE000DD773B404FF6FF7707EA06172F433B434E
:103AF000018102830384F0BD21B1828842F08002FB
:103B0000828004E082884FF67F731A40828070477B
:103B1000A0F850107047000010B50121080200F015
:103B200050FF00214FF4807000F04BFF10BD30B506
:103B30000246002000235068F84C20400D790C68A4
:103B400044EA0524204350609068F54C2040D1E9B8
:103B500003542C438D682C434D7944EA450420439B
:103B60009060D06A20F470000C7D641EE4B22343A0
:103B700040EA0350D06230BD002101600171417103
:103B80008160C16001610121017570470021E54A32
:103B90001168E54A1140D0E900231A4383681A43AB
:103BA000C3681A431143E14AC2F804137047002165
:103BB000016041608160C160704721B1826842F05C
:103BC0000102826003E0826822F001028260704795
:103BD0000A4600214168D64B1940114341607047A5
:103BE0004162826270470A460021416821F01F014C
:103BF00011434160704738B1CA49096841F4000176
:103C0000CA4AC2F8041306E0C649096821F4000153
:103C1000C64AC2F80413704738B1C249096841F472
:103C20008001C24AC2F8041306E0BE49096821F4C3
:103C30008001BE4AC2F804137047F0B504460D4631
:103C400000200021092D11DDE068A5F10A0606EB30
:103C50004607072606FA07F18843A5F10A0606EB90
:103C6000460603FA06F10843E0600CE0206905EB24
:103C70004507072606FA07F1884305EB450603FAD0
:103C800006F108432061072A0FDA606B561E06EB27
:103C900086071F2606FA07F18843561E06EB86069E
:103CA00005FA06F10843606322E00D2A0FDA206B63
:103CB000D61F06EB86071F2606FA07F18843D61F94
:103CC00006EB860605FA06F10843206310E0E06A79
:103CD000A2F10D0606EB86071F2606FA07F18843B8
:103CE000A2F10D0606EB860605FA06F10843E0622E
:103CF000F0BD816841F0804181607047014600203D
:103D00008A6802F080420AB1012000E0002070477A
:103D100021B1826842F48062826003E0826822F40A
:103D200080628260704721B1826842F00202826044
:103D300003E0826822F002028260704710B50A46F2
:103D400000210023416821F46041531E41EA4331C0
:103D5000416010BD21B1426842F40062426003E05C
:103D6000426822F40062426070470146C86C80B22B
:103D700070476C48001D0068704721B1826842F4AA
:103D80008072826003E0826822F4807282607047F1
:103D900021B1826842F40072826003E0826822F4FA
:103DA00000728260704738B15E49096841F4005181
:103DB0005E4AC2F8041306E05A49096821F400512A
:103DC0005A4AC2F804137047F0B50446154600205D
:103DD00000220026092911DDE068A1F10A0707EB9E
:103DE000470C072707FA0CF29043A1F10A0707EBEB
:103DF000470703FA07F21043E0600CE0206901EB8B
:103E0000410C072707FA0CF2904301EB410703FA34
:103E100007F210432061A06BC0F30156EF1C06F1BE
:103E2000010CA7EB0C0707EB870C1F2707FA0CF216
:103E30009043EF1C06F1010CA7EB0C0707EB87077B
:103E400001FA07F21043A063F0BD10B50A46002145
:103E50000023816B21F44011531E41EA0351816319
:103E600010BD08B5002300930090009B0B44009305
:103E7000009B1A6008BD0A460021816821F4702168
:103E80001143816070470A460021816821F4401186
:103E9000114381607047816841F4800181607047FF
:103EA000014600208A6802F480020AB1012000E085
:103EB0000020704721B1426842F48062426003E012
:103EC000426822F480624260704721B1426842F445
:103ED0008052426003E0426822F4805242607047A0
:103EE00008B5024600200090009201F12800009BD6
:103EF000184400900098006880B208BD10B50B46C9
:103F00000021D9B2012404FA01F11AB144680C432A
:103F1000446002E044688C43446010BDFFFEFFFC37
:103F2000FDF7FFC004230140E030FCFF002001400A
:103F3000FFFD3FFF0246002013680B400BB101203C
:103F400000E000207047CA430260704770B5024627
:103F50000020002300240B12556801268E4005EA3C
:103F6000060415681D4015B10CB1012000E00020C9
:103F700070BD00220A12D3430360704710B5044697
:103F8000FA48844208D10121102000F01AFD0021D6
:103F9000102000F016FD57E0F548844209D10121B8
:103FA000480400F0FDFC00214FF4003000F0F8FC64
:103FB0004AE0F048844209D10121880400F0F0FC75
:103FC00000214FF4802000F0EBFC3DE0EA48844201
:103FD00009D10121C80400F0E3FC00214FF40020C6
:103FE00000F0DEFC30E0E548844209D101210805FB
:103FF00000F0D6FC00214FF4801000F0D1FC23E04B
:10400000DF48844208D10121202000F0DAFC0021A1
:10401000202000F0D6FC17E0DA48844209D10121C3
:10402000880700F0BDFC00214FF0804000F0B8FC94
:104030000AE0D548844207D10121400500F0B0FCD8
:104040000021600500F0ACFC10BD2DE9FF470546DE
:104050000E460024A14600BFA046B08900B100BFB3
:104060002C8A24F44054F08804432C82AC8941F219
:104070000C608443B0883189084371890843044344
:10408000AC81AC8A24F44074B0890443AC826846A5
:1040900000F017FBB548854202D0B948854202D1ED
:1040A000DDF80C9001E0DDF80890A88900F40040EC
:1040B00040B109EBC90000EB091031684900B0FBC1
:1040C000F1F707E009EBC90000EB0910316889003E
:1040D000B0FBF1F76420B7FBF0F004012009642184
:1040E00001FB1078A88900F4004040B1322000EBB9
:1040F000C800B0FBF1F000F00700044308E03220F4
:1041000000EB08106421B0FBF1F000F00F00044355
:104110002C81BDE8FF874FF416510160002181809A
:10412000C18001810C21418100218181704710B53E
:1041300002460020108A20F470600B884C882343CC
:104140008C882343CC8823431843108210BD002160
:10415000018041808180C180704721B1828942F411
:104160000052828104E082894DF6FF731A408281F9
:104170007047028B02F47F420283028B0A43028360
:10418000704721B1828942F40042828103E0828932
:10419000C2F30E028281704721B1828A42F400622A
:1041A000828204E0828A4FF2FF731A408282704753
:1041B000C1F308028280704701468888C0F3080076
:1041C0007047028A4FF6F0731A400282028A0A434D
:1041D0000282704721B1828942F00202828104E0AA
:1041E00082894FF6FD731A408281704782894FF2AF
:1041F000FF731A40828182890A4382817047028A52
:104200004FF6DF731A400282028A0A430282704725
:1042100021B1028A42F48042028204E0028A4BF613
:10422000FF731A4002827047818941F00101818148
:10423000704721B1828A42F00802828204E0828AB9
:104240004FF6F7731A4082827047028BD2B2028314
:10425000028B42EA01220283704721B1828A42F036
:104260002002828204E0828A4FF6DF731A40828243
:10427000704721B1828A42F01002828204E0828A71
:104280004FF6EF731A4082827047828A4FF6FB73B3
:104290001A408282828A0A438282704721B1828ACE
:1042A00042F00202828204E0828A4FF6FD731A40D5
:1042B000828270471AB1838A0B43838202E0838A29
:1042C0008B4383827047F0B5034600240026002507
:1042D000002040F66A17B94200D100BF1846C1F36A
:1042E000421401F01F06012707FA06F5012C01D13F
:1042F0000C3004E0022C01D1103000E014301AB16F
:1043000007682F43076002E00768AF430760F0BD0E
:1043100002460020B1F5007F00D100BF13880B409A
:104320000BB1012000E00020704701F40072B2F5EB
:10433000007F00D100BFCA430280704770B50246BB
:10434000002400230025002040F66A16B14200D167
:1043500000BFC1F3421501F01F03012606FA03F363
:10436000012D13D19689334017E000000010014061
:104370000044004000480040004C00400050004015
:104380000014014000780040007C0040022D02D162
:10439000168A334001E0968A33400C12012606FA51
:1043A00004F41688344013B10CB1012000E0002061
:1043B00070BD10B50022002340F66A14A14200D15E
:1043C00000BF0A1201249440A3B2DC43048010BD54
:1043D00032490143324A1160704770B50021002311
:1043E0000F22C4781CB32E4C246804F4E064C4F596
:1043F000E064C4F30721C1F10404E3B20A41447844
:104400009C40E1B28478144021430C07210E254CD6
:1044100005786155047804F01F050124AC40057847
:104420006D11AD0005F1E025C5F8004109E0047803
:1044300004F01F050124AC401B4D0678761145F8A9
:10444000264070BD194A0A400243154B1B1F1A60D3
:10445000704739B1124A121D12680243104B1B1DDE
:104460001A6006E00E4A121D126882430C4B1B1D97
:104470001A607047042808D14FF0E021096941F023
:1044800004014FF0E022116107E04FF0E0210969DB
:1044900021F004014FF0E022116170470000FA059D
:1044A0000CED00E000E400E080E100E080FFFF1F91
:1044B000F948006840F00100F74908600020F6491B
:1044C00008310860F4480068F4490840F24908607F
:1044D000F348091D0860F348EF4984310860F0484B
:1044E0001038091D0860EC48006820F48020EA4973
:1044F00008600020E8490C310860E7498C31086009
:1045000070470021E44A921C1170114608707047F0
:1045100010B501460022002300204A11012A02D1D1
:10452000DD4C236808E0022A03D1DB4C7034236899
:1045300002E0D94C7434236801F01F020124944036
:104540001C400CB1012000E0002010BD38B5002057
:1045500000900024002500BF3120FFF7D9FF054659
:104560000098401C00900098B0F5A04F01D0002D9D
:10457000F2D03120FFF7CCFF08B1012400E0002485
:10458000204638BD01460020C34A106820F0F800DC
:1045900040EAC10010607047C349086070470021BD
:1045A000BD4A703211701170012802D004280AD15E
:1045B00004E00121B84A7032117005E00521B64AC5
:1045C0007032117000E000BF00BF7047B74908604B
:1045D000704770B5049C41EA82150126C6EB53066C
:1045E00045EA0645054345EA0465AB4E361D356090
:1045F00070BDAD4908667047820142EA0172A64B60
:1046000084331A607047A8498866704710B58301E3
:1046100043EA016343EA02739F4C8834236010BD70
:10462000A14908677047A049C86470470246002046
:10463000994B0833186820F0EC6042EA01031843F4
:10464000954B08331860704702460020924B0833A0
:10465000186820F0784042EA010318438E4B083373
:1046600018607047014600208B4A0832106820F01D
:10467000030008431060704787480830006800F066
:104680000C00704701460020834A0832106820F071
:10469000F000084310607047014600207E4A08324F
:1046A000106820F4E0500843106070470146002075
:1046B000794A0832106820F4604040EAC100106076
:1046C0007047F0B5002100220024022500260223B5
:1046D000714F08373F6807F00C0121B1042905D05C
:1046E000082937D105E0724F076036E0714F076047
:1046F00033E0694F3F1D3F68C7F38056664F3F1D4B
:104700003F6807F03F036EB16A4FB7FBF3F7DFF87E
:1047100088C10CF1040CDCF800C0CCF3881C07FB4A
:104720000CF40CE0624FB7FBF3F7DFF86CC10CF14F
:10473000040CDCF800C0CCF3881C07FB0CF4564FCB
:104740003F1D3F68C7F301477F1C7D00B4FBF5F7B1
:10475000076002E0564F076000BF00BF4E4F0837AA
:104760003F6807F0F0010909534F7A5C0768D740AA
:104770004760494F08373F6807F4E051890A4E4FB8
:104780007A5C4768D7408760434F08373F6807F433
:104790006041490B484F7A5C4768D740C760F0BD1D
:1047A000002100F44072B2F5407F0AD13A4A083243
:1047B000116821F4F811414A02401143364A083287
:1047C0001160354A70321268C0F30B031A43324B42
:1047D00070331A607047354944390860704733496F
:1047E000403908607047364908607047014600202C
:1047F000294A8C32106820F440100843106070473A
:1048000001460020244A8C32106820F440000843FE
:1048100010607047014600201F4A8C32106820F05B
:104820001F004A1E10431C4A8C321060704701461C
:104830000020194A8C32106820F4F8504A1E40EAD1
:104840000220154A8C321060704701460020124A3F
:104850008C32106820F440300843106070471949CA
:104860000860704739B10C4A3032126802430A4B73
:1048700030331A6006E0084A303212688243064B31
:1048800030331A607047F9B1034A34321268024378
:10489000014B34331A601CE000380240FFFFF6EA97
:1048A000103000240030002000004742800E4742B4
:1048B0000024F40040787D0120010020FFFCFF0F60
:1048C0005C014742E01147428F4A126882438E4B97
:1048D0001A60704739B18C4A121D126802438A4B24
:1048E0001B1D1A6006E0884A121D12688243864B1F
:1048F0001B1D1A60704739B1834A0C32126802439B
:10490000814B0C331A6006E07F4A0C3212688243F6
:104910007D4B0C331A60704739B17B4A10321268F4
:104920000243794B10331A6006E0774A103212685E
:104930008243754B10331A60704739B1724A243A7A
:1049400012680243704B243B1A6006E06E4A243A18
:10495000126882436C4B243B1A60704739B16A4A33
:10496000203A12680243684B203B1A6006E0664A10
:10497000203A12688243644B203B1A60704739B179
:10498000614A1C3A126802435F4B1C3B1A6006E006
:104990005D4A1C3A126882435B4B1C3B1A607047AD
:1049A00039B1594A143A12680243574B143B1A6002
:1049B00006E0554A143A12688243534B143B1A607E
:1049C000704739B1504A103A126802434E4B103BBF
:1049D0001A6006E04C4A103A126882434A4B103B78
:1049E0001A60704739B1484A1C3212680243464B7C
:1049F0001C331A6006E0444A1C3212688243424B60
:104A00001C331A60704739B13F4A203212680243A2
:104A10003D4B20331A6006E03B4A20321268824345
:104A2000394B20331A60704739B1374A2432126843
:104A30000243354B24331A6006E0334A24321268AD
:104A40008243314B24331A60704739B12E4A2C32DD
:104A5000126802432C4B2C331A6006E02A4A2C328F
:104A600012688243284B2C331A60704739B1264AAA
:104A7000303212680243244B30331A6006E0224A77
:104A8000303212688243204B30331A60704701285D
:104A900008D11D493C31096841F008011A4A3C32ED
:104AA000116007E018493C31096821F00801164AF5
:104AB0003C321160704739B1134A273A12780243E9
:104AC000114B273B1A7006E00F4A273A12788243AF
:104AD0000D4B273B1A7070470B484030006840F080
:104AE0008070094940310860704701460020064A3D
:104AF000283A12680A400AB1012000E000207047FD
:104B000001492639087070473438024010B5044610
:104B10009848844208D101210846FFF70EFF002182
:104B20000120FFF70AFF76E09348844208D1012173
:104B30000220FFF702FF00210220FFF7FEFE6AE0DD
:104B40008E48844208D101210420FFF7F6FE00219F
:104B50000420FFF7F2FE5EE08948844208D101217B
:104B60000820FFF7EAFE00210820FFF7E6FE52E0EA
:104B70008448844208D101211020FFF7DEFE002185
:104B80001020FFF7DAFE46E07F48844208D1012179
:104B90002020FFF7D2FE00212020FFF7CEFE3AE0D2
:104BA0007A48844208D101214020FFF7C6FE002147
:104BB0004020FFF7C2FE2EE07548844208D1012153
:104BC0008020FFF7BAFE00218020FFF7B6FE22E02A
:104BD0007048844208D101218015FFF7AEFE002104
:104BE000A015FFF7AAFE16E06B48844208D1012108
:104BF0004015FFF7A2FE00216015FFF79EFE0AE0B8
:104C00006648844207D101210015FFF796FE002176
:104C10002015FFF792FE10BDF0B50A4600210023D3
:104C2000002400BF3DE0012505FA01F3156805EAFF
:104C300003049C4234D105684F000326BE40B543AF
:104C4000056015794E00B540066835430560157955
:104C5000012D02D01579022D16D185684F0003264B
:104C6000BE40B543856055794E00B54086683543F2
:104C70008560456801268E40B54345604568967954
:104C80008E40B6B235434560C5684F000326BE402E
:104C9000B543C560D5794E00B540C6683543C5609B
:104CA000491C1029BFD3F0BD4FF6FF7101600021F0
:104CB000017141718171C171704708B54FF4803243
:104CC0000092009A0A430092009AC261C161009A60
:104CD000C261C2690092C269009208BD024600200A
:104CE00013690B400BB1012000E000207047014622
:104CF000086980B270470246002053690B400BB12F
:104D0000012000E0002070470146486980B27047EA
:104D100001837047418370470AB1018300E04183FA
:104D200070474161704742694A4042617047F0B53F
:104D3000002300244D07ED0E02FA05F3CE1000F11A
:104D4000200555F826504E07F70E0F26BE40B543F6
:104D5000CF1000F1200646F82750CE1000F12005B4
:104D600055F8265045EA0304CE1000F1200545F819
:104D70002640F0BD0000024000040240000802404E
:104D8000000C0240001002400014024000180240D3
:104D9000001C024000200240002402400028024083
:104DA0000648804706480047FEE7FEE7FEE7FEE7C5
:104DB000FEE7FEE7FEE7FEE7FEE7FEE77902000812
:104DC000890100082DE9FE4F804681EA0300C00FEB
:104DD0000C46009021F0004123F00045B8EB0200A2
:104DE000A94105D24046214690461C460B46024644
:104DF00023F00040104347D0270DC7F30A00C3F348
:104E00000A510290401A019040286BDAC3F3130054
:104E100040F4801B0098924620B10023D2EB030A95
:104E200063EB0B0B01985946C0F14002504600F06D
:104E30000CFA06460D4650465946019A00F024FAEF
:104E400010EB08006141002487EA115284EAE773FD
:104E50001A4340D0009A62B3019A012A4FEA0752DE
:104E600015DC001B61EB02014FF0004202EA075221
:104E7000CDE90042001C41F5801132462B4600F07E
:104E800024FA03B0BDE8F08F40462146F9E7001B45
:104E900061EB0201001C41F5801300185B412018F2
:104EA000A2F5001747EB030140EAD570B6196D4132
:104EB00011E06D084FEA360645EAC0754FEA075221
:104EC000001B61EB0201001C41F5801149084FEA0B
:104ED00030000019514132462B4603B0BDE8F04F77
:104EE00000F0E4B90098012240000023D0EB020258
:104EF00063EBE073009821464FEAE074B8EB0000E2
:104F000061EB0401E9E783F000435BE781F00041D6
:104F100058E72DE9FE4F81EA030404F0004421F034
:104F2000004100944FF0000B23F0004350EA0104CD
:104F30005ED052EA03045BD0C3F30A54C1F30A55AE
:104F40002C44A4F2F3340194A0FB0254C1F31301E6
:104F500041F48011C3F3130343F4801301FB0244B3
:104F600000FB034E840A970A44EA815447EA8357B8
:104F7000A4FB076802958D0A05FB07854FEA932C71
:104F800004FB0C542705029D4FEA065847EA1637E2
:104F9000B5EB08056EEB070C870E920E47EA8117FA
:104FA00042EA8312A7FB0201B6EB0B0164EB00049B
:104FB0002B0D43EA0C335E1844EB1C50DA46514685
:104FC000E7FB0201C5F313044FEA0B3343EA145322
:104FD0004FEA0432019C43EA0603A4F10C04029454
:104FE000009CCDE900B400F070F903B0BDE8F08F8B
:104FF00000200146F9E72DE9F04D81EA030404F0B1
:10500000004B21F0004514464FF0000A23F0004108
:1050100050EA050220D054EA01021DD0C5F30A5718
:105020000246C5F31303C1F31300C1F30A5640F45B
:10503000801543F48013A7EB0608101BD64608F230
:10504000FD3873EB050002D308F1010801E0921866
:105050005B41B8F1000F03DA00200146BDE8F08D96
:1050600000204FF48011064684460EE0171B73EBB8
:10507000050705D3121B63EB050306434CEA010C3D
:1050800049084FEA300092185B4150EA0107EDD120
:1050900052EA030012D082EA040083EA05010843C1
:1050A00005D0101BAB4106D20122002306E00022EE
:1050B0004FF0004302E06FF0010253101AEB0600BC
:1050C0004CEB085110EB0A0041EB0B01BDE8F04D31
:1050D00000F0ECB80EB5C10F80EAE0700844CA07D2
:1050E000002140F233438DE80E000A460B4600F0E3
:1050F000ECF803B000BD70B5C1F30A5201F00045F1
:105100000024C1F3130140F2FF3341F480119A42AD
:1051100001DA002070BD40F233439A42A2F23342DA
:1051200003DC524200F0A0F800E090402C43F1D0A4
:10513000404270BD00F0004230F000400AD0C10D86
:1051400001F56071C0F3160042EA0151C208400740
:1051500011437047002001467047000030B5041E1F
:1051600071F1000404DB4FF00044404264EB0101A4
:10517000141E73F1000405DB1C464FF0004352423D
:1051800063EB04038B4208BF824230BD30B5041E7E
:1051900071F1000404DB4FF00044404264EB010174
:1051A000141E73F1000405DB1C464FF0004352420D
:1051B00063EB0403994208BF904230BD30B50B4603
:1051C000014600202022012409E021FA02F59D4237
:1051D00005D303FA02F5491B04FA02F52844151E0B
:1051E000A2F10102F1DC30BD2DE9F05F054600209F
:1051F00092469B4688460646814640241BE0284648
:1052000041464746224600F02FF853465A46C01AF8
:10521000914110D311461846224600F016F82D1A77
:1052200067EB01084F4622460120002100F00DF8EF
:1052300017EB00094E41201EA4F10104DFDC4846B3
:1052400031462A464346BDE8F09F202A04DB203A37
:1052500000FA02F1002070479140C2F1200320FAC9
:1052600003F3194390407047202A04DB203A21FAC7
:1052700002F00021704721FA02F3D040C2F120026F
:105280009140084319467047202A06DBCB17203A85
:1052900041FA02F043EAE07306E041FA02F3D0403B
:1052A000C2F12002914008431946704710B5141E00
:1052B00073F1000408DA401C41F1000192185B41CF
:1052C0001A4301D120F0010010BD2DE9F04D9246A6
:1052D0009B4611B1B1FA81F202E0B0FA80F22032BD
:1052E0009046FFF7B2FF04460F4640EA0A0041EA43
:1052F0000B0153465A46084313D0114653EA0100A6
:1053000019D0C8F140025046FFF7AEFF05460E46E1
:10531000504659464246FFF798FF084305D0012002
:1053200004E020463946BDE8F08D0020054346EAFA
:10533000E0762C4337430A986305E40AA0EB0800A3
:105340000022FD0A44EA47540A3002D500200146F3
:10535000E9E7010510196941DDE9084500196941CE
:10536000BDE8F04DA2E72DE9F04D00231A461B1AC7
:105370008A4103DB00200146BDE8F08DC1F30A52EB
:10538000C1F3130141F480154FF0000BD10702D196
:1053900000186D41521E0027044640F2FF113846A6
:1053A00001EB620A3E468046024600204FF480111F
:1053B000FFF75AFFC2197141BB1846EB0100B4EB6D
:1053C000030C75EB000C04D3E41A65EB00051746DB
:1053D0000E46241908F101006D4180463428E3DDB2
:1053E000F91946EB0600091BA84103D24FF0FF3222
:1053F000134601E0002213461BEB070046EB0A515F
:10540000BDE8F04DFFF752BFC1F30A52C1F31301DB
:1054100040F2FF3341F480119A4202DA0020014643
:10542000704740F233439A42A2F2334202DC5242C6
:10543000FFF71ABFFFF709BF064C074D06E0E0680B
:1054400040F0010394E8070098471034AC42F6D3CB
:10545000FAF79EFE446100086461000830B58C18BC
:1054600010F8012B12F00F0301D110F8013B1209C3
:1054700006D110F8012B03E010F8015B01F8015B85
:105480005B1EF9D101E001F8013B521EFBD1A142A4
:10549000E6D3002030BD000070B504460025002092
:1054A0001049087003214FF08040FEF759FA01229D
:1054B00003219007FEF72CFA012008E000BF0949FC
:1054C00009788142FBDD084909680D44401CA0426F
:1054D000F4DD002203214FF08040FEF719FAB5FBFE
:1054E000F4F070BDDC000020D800002070B5044648
:1054F000002500200F49087003210F48FEF730FAFD
:10550000012203210C48FEF703FA012008E000BF46
:10551000084909788142FBDD084909680D44401CAF
:10552000A042F4DD002203210348FEF7F1F9B5FBA8
:10553000F4F070BDD0000020000C0040CC00002032
:1055400004490978814204D0024908700121024AC5
:105550001160704710010020140100200448006809
:1055600020B103480068401E0149086070470000F0
:105570001C01002010B501218807FEF7E0F9012881
:105580001AD11F4801780078401C1D4A10700A2962
:105590000EDB4FF08040FEF76FF9044618480278A2
:1055A00021464FF08040FCF742FD0020144908706E
:1055B00001218807FEF7D4F902214807FEF7BFF959
:1055C00001281BD18007FEF757F904460C480278E2
:1055D00021464FF08040FCF72AFD00200849087062
:1055E00008480068401C0749086000214FF08040CF
:1055F000FDF736FD02214807FEF7B2F910BD0000A5
:1056000040010020E000002010B501211F48FEF7F6
:1056100096F9012818D11E4801780078401C1C4AD0
:1056200010700A290CDB1948FEF726F904461848C1
:10563000027821461548FCF7FAFC0020144908704E
:1056400001211248FEF78CF902211048FEF777F984
:10565000012819D10D48FEF70FF904460C480278CD
:1056600021460A48FCF7E3FC002009490870094874
:105670000068401C0749086000210448FDF7F0FC61
:1056800002210248FEF76CF910BD0000000C00403A
:1056900041010020D400002010B540F225511848E7
:1056A000FEF74CFE01282AD11548FEF785FDC4B24D
:1056B0001448006848B9F02C07D11120114908603E
:1056C0004FF0FF301049086018E00F480068401C98
:1056D0000D4908600D490C54084600780A490968CC
:1056E00088420BD1094808490968405C0A2802D160
:1056F0000648FDF7AFFA00200249086000BF10BD60
:1057000000100140380100203C01002078010020F9
:105710000FB4054B10B503A9044A029800F040F9F4
:1057200010BC5DF814FB0000752C0008300100204F
:1057300000B52DED048BB0EE409AF0EE609A83B088
:1057400051EC190BFFF70FFE41EC180B18EE100A85
:1057500018EE901A8DED008B002818BF0120084329
:1057600020F00040C0F17F6000F1E040C00F14D095
:1057700019EE101A19EE900A8DED009B002918BF42
:105780000121084320F00040C0F17F6000F1E040BB
:10579000C00F04BF012000F017F8B0EE480A03B0B4
:1057A000F0EE680ABDEC048B00BD02E008C8121FD1
:1057B00008C1002AFAD170477047002001E001C1FA
:1057C000121F002AFBD17047014908607047000092
:1057D000340100200E480068012805D90C480068F3
:1057E000401E0B49086011E00948006801280DD1EE
:1057F00007480068401E064908600648007828B13E
:105800000120054908600020024908707047000027
:105810001801002010010020140100202DE9FF5F75
:1058200082B00021DDE90430020DDDF840B0034311
:1058300018D044F61050A2F2FF32424315141198CA
:1058400001281FD0A5EB0B00401C5FEA000A4FF0B7
:1058500000064E4FDFF83891B046504615D5CAF1D4
:10586000000413E0119801244AA3012801D16FEA32
:105870000B010298119AC0E90031C0E9024206B05A
:10588000BDE8F09FCBF10000DFE704460021404A6D
:10589000491842EB0450CDE9001012E0E00707D0B0
:1058A00032463B4640464946FFF733FB8046894631
:1058B00032463B4610461946FFF72BFB06460F467D
:1058C0006410002CEAD1DDE90401DDE90023BAF11E
:1058D000000F06DAFFF71DFB42464B46FFF719FBA8
:1058E00005E0FFF788FB42464B46FFF784FB044682
:1058F0000E460022284BFFF749FC03D84FF0FF303B
:10590000014607E00022254B20463146FFF75AFAB0
:10591000FFF77AFD102409E0002C0ADB0A2200239D
:10592000FFF762FC039B30321A55641E50EA0102F5
:10593000F2D1641C039AC4F111031444119A012A90
:1059400003D0012208430DD10AE0084304D000200F
:105950004FF0110B119072E7A3EB0B056D1E0DE0DC
:105960005B4504DD4FF0000205F1010504E003DAB8
:105970004FF00002A5F10105002AECD00298119920
:10598000C0E90231C0E9004579E700000000144099
:105990000000F03F300000000000F0430000E03F56
:1059A0002DE9FF4F95B09B468946064600250FE23C
:1059B000252877D100242746F84A0121059400E0E4
:1059C000044316F8013F203B01FA03F01042F7D1DF
:1059D00030782A2811D06FF02F033078A0F13002F0
:1059E000092A16D8059A44F0020402EB820203EB5E
:1059F00042021044761C0590EFE759F8042B0592FB
:105A0000002A03DA504244F40054059044F00204A2
:105A1000761C30782E2816D116F8010F44F00404B5
:105A20002A280DD06FF02F023078A0F13003092B17
:105A300009D807EB870302EB4303C718761CF3E78B
:105A400059F8047B761C30786C280FD006DC4C2883
:105A500017D068280DD06A2814D104E0742810D01B
:105A60007A280FD10DE044F400140AE044F48014C5
:105A700001E044F440147278824202D104F58014AB
:105A8000761C761C307866280BD013DC582877D02B
:105A900009DC002875D04528F6D04628F4D04728E0
:105AA0001AD19DE118E0632835D0642879D06528A3
:105AB00012D195E1702873D008DC6728F1D06928ED
:105AC0006FD06E280DD06F2806D1B5E073282CD08A
:105AD000752875D0782874D05A46179990476D1C50
