:020000040800F2
:100000002805002059280008AD030008AF030008A8
:10001000B3030008B7030008BB030008000000009A
:10002000000000000000000000000000BF03000806
:10003000C103000800000000C3030008C503000856
:100040007328000873280008732800087328000824
:100050007328000873280008F503000873280008B7
:100060007328000873280008732800087328000804
:1000700073280008732800087328000873280008F4
:1000800073280008732800087328000873280008E4
:1000900073280008732800087328000873280008D4
:1000A00073280008732800087328000873280008C4
:1000B000E503000873280008732800087328000867
:1000C00073280008732800087328000873280008A4
:1000D00073280008D503000873280008DD03000812
:1000E0007328000873280008732800087328000884
:1000F0007328000873280008732800087328000874
:100100007328000873280008ED030008732800080E
:100110007328000873280008732800087328000853
:100120007328000873280008732800087328000843
:100130007328000873280008732800087328000833
:100140007328000873280008732800087328000823
:100150007328000873280008FD03000873280008AE
:100160007328000873280008732800087328000803
:1001700073280008732800087328000873280008F3
:100180007328000873280008DFF80CD004F002FC84
:100190000048004729040008280500200CB500206D
:1001A000019000907648006840F4803074490860FF
:1001B00000BF7348006800F4003000900198401CB4
:1001C0000190009818B90198B0F5A04FF1D16C4892
:1001D000006800F4003010B10120009001E0002020
:1001E00000900098012846D165484030006840F0F2
:1001F00080506349403108606248006840F44040E4
:10020000604908605E48083000685D490831086050
:100210000846006840F4004008600846006840F462
:10022000A05008605848091F0860081F006840F087
:100230008070091F086000BF5148006800F000701E
:100240000028F9D040F20570504908604C48083049
:10025000006820F003004A49083108600846006839
:1002600040F00200086000BF45480830006800F018
:100270000C000828F8D10CBD10B54548006840F4C2
:100280007000434908603E48006840F001003C4966
:10029000086000203A4908310860394800683D4943
:1002A0000840374908603C48091D0860081F00687D
:1002B00020F48020091F0860002031490C310860BB
:1002C000FFF76CFF4FF0006031498039086010BDC6
:1002D00070B500200022022300240221284D083599
:1002E0002D6805F00C0020B1042806D0082834D170
:1002F00007E02A4D2A4E356033E02A4D284E3560FE
:100300002FE01F4D2D1D2D68C5F380541C4D2D1D54
:100310002D6805F03F0154B1224DB5FBF1F5184EA3
:10032000361D3668C6F3881605FB06F209E01B4D3C
:10033000B5FBF1F5124E361D3668C6F3881605FB7F
:1003400006F20F4D2D1D2D68C5F301456D1C6B0088
:10035000B2FBF3F5124E356003E0104D104E3560E0
:1003600000BF00BF064D08352D68C5F303150E4EBE
:10037000705D0B4D2D68C540094E356070BD0000A5
:10038000003802400070004019544007003C024011
:1003900088ED00E0FFFFF6FE103000240024F4009A
:1003A0000000002040787D0104000020704700BF5D
:1003B000FEE700BFFEE700BFFEE700BFFEE77047B5
:1003C0007047704710B504F039FD04F0B9FB04F034
:1003D000FFFC10BD10B504F065FC10BD10B504F0B5
:1003E00061FC10BD10B504F0CBFB10BD10B504F0DE
:1003F00011FC10BD10B504F0AFFB10BD10B50749DE
:10040000074802F0DBF940B10449054802F0A5F9BC
:1004100000228021034801F04DFA10BD0080002821
:10042000B86402400010014002F0E8FA02F02AFA33
:1004300002F04CFA02F047FB03F000F803F050F929
:100440004FF47A7002F0FBFA06A004F067FC07E0B4
:10045000012002F005FB03F033FF142002F0EFFA55
:10046000F6E700002048656C6C6F20576F726C6473
:100470002100000010B50446FE48844208D1012145
:10048000084601F026FE0021012001F022FE9DE039
:10049000B4F1804F08D10121084601F009FE002186
:1004A000012001F005FE91E0F348844208D10121CA
:1004B000022001F0FDFD0021022001F0F9FD85E0A0
:1004C000EE48844208D10121042001F0F1FD002111
:1004D000042001F0EDFD79E0E948844208D10121D2
:1004E000082001F0E5FD0021082001F0E1FD6DE0AC
:1004F000E448844208D10121102001F0D9FD0021F7
:10050000102001F0D5FD61E0DF48844208D10121CF
:10051000202001F0CDFD0021202001F0C9FD55E093
:10052000DA48844208D10121022001F0D2FD0021E5
:10053000022001F0CEFD49E0D548844209D10121D5
:10054000080401F0C6FD00214FF4803001F0C1FD28
:100550003CE0D048844209D10121480401F0B9FDB2
:1005600000214FF4003001F0B4FD2FE0CA4884426E
:1005700009D10121880401F0ACFD00214FF4802055
:1005800001F0A7FD22E0C548844208D101214020A6
:1005900001F08EFD0021402001F08AFD16E0C048E8
:1005A000844208D10121802001F082FD00218020B9
:1005B00001F07EFD0AE0BB48844207D1012180158D
:1005C00001F076FD0021A01501F072FD10BD0022A2
:1005D0000288A84B98420ED0AC4B98420BD0B0F199
:1005E000804F08D0A44B984205D0A44B984202D02B
:1005F000A34B984204D14FF68F731A404B881A438D
:10060000A04B984207D0A04B984204D04FF6FF432E
:100610001A400B891A4302804B68C3620B8803851A
:10062000944B984202D0994B984201D18B7A038621
:100630000123838270474FF0FF3141600021018028
:1006400001814180817270470185828270470A462C
:10065000002101884FF68F731940114301807047C4
:1006600041627047C16270470146486A704701465F
:10067000088D704721B1028842F00202028004E036
:1006800002884FF6FD731A400280704721B102883C
:1006900042F00402028004E002884FF6FB731A4025
:1006A0000280704721B1028842F08002028004E09B
:1006B00002884FF67F731A400280704702884FF617
:1006C000F7731A40028002880A430280704702884A
:1006D0004FF6FF431A40028002880A4302807047A7
:1006E00021B1028842F00102028004E002884FF644
:1006F000FE731A400280704770B500240022002368
:10070000058C4FF6FE7635400584028C8388048B79
:100710004FF68F752C40B51E2C400D882C43751E4E
:100720002A408D892A434D882A43524DA84202D03F
:10073000564DA84213D14FF6F7752A40CD892A436A
:100740004FF6FB752A408D882A434FF6FF652B40F4
:100750004FF6FF552B400D8A2B434D8A2B43838048
:1007600004838D684563028470BD70B50024002247
:100770000023058C4FF6EF7635400584028C838884
:10078000048B48F6FF752C404FF6FF452C400D8832
:100790004FF6FF7606EA05252C434FF6DF752A4013
:1007A0008D8906EA05152A434D8806EA05152A4370
:1007B000304DA84202D0354DA8421DD14FF67F756D
:1007C0002A40CD894FF6FF7606EA05152A434FF6F3
:1007D000BF752A408D8806EA05152A434FF6FF3576
:1007E0002B404FF2FF752B400D8A06EA85052B43FF
:1007F0004D8A06EA85052B43838004838D688563D3
:10080000028470BD70B5002400220023058C4FF6D1
:10081000FF6635400584028C8388848B4FF68F7584
:100820002C404FF6FC752C400D882C434FF6FF559D
:100830002A408D894FF6FF7606EA05252A434D8822
:1008400006EA05252A430B4DA84202D00F4DA842C7
:1008500038D14FF2FF752A40CD894FF6FF7606EA70
:1008600005252A434FF6FF352A408D8806EA0525DF
:100870002A4319E000000140000400400008004045
:10088000000C004000100040001400400004014033
:100890000040014000440140004801400018004071
:1008A000001C0040002000404EF6FF752B404DF626
:1008B000FF752B400D8A06EA05152B434D8A06EA83
:1008C00005152B43838084838D68C563028470BDC6
:1008D00070B5002200230024058C4EF6FF763540CB
:1008E0000584038C8488828B48F6FF752A404FF676
:1008F000FF452A400D884FF6FF7606EA05252A4374
:100900004DF6FF752B408D8906EA05352B434D8842
:1009100006EA05352B43FE4DA84202D0FD4DA84204
:1009200008D14BF6FF752C400D8A4FF6FF7606EA8C
:1009300085152C43848082838D680564038470BD93
:10094000002101804180818081608181C18101829B
:100950004182704770B503460020002418461830C5
:1009600001258D40ACB21D8CA5431D8409B1082919
:100970000AD100EB610005684FF68F7635400560BF
:100980000568154305600FE00D1FC5F34E052844AB
:10099000056848F6FF763540056005684FF6FF7636
:1009A00006EA02263543056070BD416370478163E6
:1009B0007047C1637047016470470A460021018B8C
:1009C0004FF68F7319401143018370470A46002187
:1009D000018B48F6FF7319404FF6FF7303EA0223B9
:1009E0001943018370470A460021818B4FF68F73AC
:1009F00019401143818370470A460021818B48F6D4
:100A0000FF7319404FF6FF7303EA022319438183F2
:100A100070470A460021018B4FF6F77319401143C6
:100A2000018370470A460021018B4FF2FF73194082
:100A30004FF6FF7303EA02231943018370470A4606
:100A40000021818B4FF6F773194011438183704762
:100A50000A460021818B4FF2FF7319404FF6FF7356
:100A600003EA02231943818370470A460021018B60
:100A70004FF6FB7319401143018370470A4600216A
:100A8000018B4FF6FF3319404FF6FF7303EA022341
:100A90001943018370470A460021818B4FF6FB738F
:100AA00019401143818370470A460021818B4FF61C
:100AB000FF3319404FF6FF7303EA02231943818382
:100AC00070470A460021018B4FF67F73194011438E
:100AD000018370470A460021018BC1F30E014FF6D6
:100AE000FF7303EA02231943018370470A4600217A
:100AF000818B4FF67F7319401143818370470A46FB
:100B00000021818BC1F30E014FF6FF7303EA02232C
:100B10001943818370470A460021018C4FF6FD730B
:100B200019401143018470470A460021018C4FF699
:100B3000F77319401143018470470A460021018C64
:100B40004FF6DF7319404FF6FF7303EA02131943A0
:100B5000018470470A460021018C4FF67F731940CB
:100B60004FF6FF7303EA02131943018470470A46E4
:100B70000021018C4FF6FF5319404FF6FF7303EA33
:100B800002231943018470470A460021018C4FF269
:100B9000FF7319404FF6FF7303EA022319430184E0
:100BA00070470A460021018C4DF6FF7319404FF63D
:100BB000FF7303EA023319430184704730B5002301
:100BC00001248C40A3B2048C9C430484048C02FA5C
:100BD00001F5ADB22C43048430BD30B500230424AC
:100BE0008C40A3B2048C9C430484048C02FA01F56B
:100BF000ADB22C43048430BD828B4FF2FF331A40D8
:100C00008283828B4FF6FF7303EA01231A438283A8
:100C10007047F0B50C461546002100220026078CCF
:100C20004EF6FF7C07EA0C070784818B028C4FF697
:100C3000FF7707EA043640F6FF4739404FF6FF7763
:100C400007EA052739434FF6FF7707EA03373943A9
:100C500045F6FF773A4046F480573A438183028451
:100C6000F0BD828B4FF6F3731A408283828B0A4366
:100C700082837047F0B50C461546002100220026FD
:100C8000078C4FF6FF6C07EA0C070784818B028CF8
:100C90004FF6FF7707EA04264FF60C7739404FF6F8
:100CA000FF7707EA03172F4339434FF2FF573A40C4
:100CB00046F480773A4381830284F0BD028B4FF281
:100CC000FF331A400283028B4FF6FF7303EA0123BE
:100CD0001A4302837047F0B50C46154600210022E6
:100CE0000026078C4FF6EF7C07EA0C070784018B80
:100CF000028C4FF6FF7707EA041640F6FF473940AB
:100D00004FF6FF7707EA033739434FF6FF7703E0E3
:100D1000000001400004014007EA052739434FF66F
:100D20005F773A4046F010073A4301830284F0BDF2
:100D3000028B4FF6F3731A400283028B0A4302833D
:100D40007047F0B50C46154600210022068C4FF680
:100D5000FE773E400684018B028C4FF60C763140C4
:100D60007E1C06EA03162E4331434FF6F5763240D9
:100D700044F00106324301830284F0BD70B505469C
:100D80000C46208850B92389A28861882846FFF73D
:100D9000D8FFE1882846FFF7CBFF25E0208804280C
:100DA0000AD12389A28861882846FFF794FFE18849
:100DB0002846FFF783FF17E0208808280AD12389F7
:100DC000A28861882846FFF755FFE1882846FFF78B
:100DD00048FF09E02389A28861882846FFF719FFA8
:100DE000E1882846FFF708FF70BD0021018041809F
:100DF000012181800021C180018170472DE9F041EE
:100E000005460C4600260127608808B9022600E046
:100E10000026A088012801D1022700E001272088B0
:100E2000A0B92389A28861882846FFF78AFFE18854
:100E30002846FFF77DFF23893A4631462846FFF7CB
:100E40004AFFE1882846FFF739FF13E02389A2888B
:100E500061882846FFF73FFFE1882846FFF72EFF0D
:100E600023893A4631462846FFF76BFFE18828463A
:100E7000FFF75EFFBDE8F0810146486B7047014611
:100E8000886B70470146C86B70470146086C704715
:100E90000A884B881A438B881A43CB881A430B89DC
:100EA0001A434B891A438B891A43A0F84420704790
:100EB0000021018041808180C18001814181818147
:100EC000704731B1B0F8442042F40042A0F8442009
:100ED00005E0B0F84420C2F30E02A0F844207047A9
:100EE00021B1828842F00402828004E082884FF6B9
:100EF000FB731A408280704721B1828842F0010260
:100F0000828004E082884FF6FE731A408280704728
:100F10001AB183890B43838102E083898B438381E8
:100F200070478182704702460020138A0B400BB144
:100F3000012000E000207047CA430282704730B5AC
:100F40000246002000230024158A05EA0103958942
:100F500005EA010413B10CB1012000E0002030BD0E
:100F6000CA430282704741EA0203A0F84830704742
:100F70001AB183890B43838102E083898B43838188
:100F8000704721B1828842F00802828004E08288A2
:100F90004FF6F7731A408280704701894FF6F87256
:100FA0001140018170470A46002101894FF68F7375
:100FB000194011430181704730B504460D4629465A
:100FC0002046FFF7F0FF208940F00700208130BD68
:100FD0002DE9F04104460D4616461F46602D06D108
:100FE0003B46012231462046FFF775FE05E03B46B1
:100FF000012231462046FFF7A4FE29462046FFF78E
:10100000D2FF208940F007002081BDE8F08130B593
:101010000C4600210189C9B24FF6FF7505EA032588
:10102000154325432943018130BD2DE9F041054693
:101030000E4617469846002443463A46314628460F
:10104000FFF7E5FF2C894FF6F870044044F00704E1
:101050004FF68F70044044F070042C81BDE8F0819D
:10106000F0B504460D4616461F463B463246294615
:101070002046FFF7CCFF208940F480402081F0BD5E
:1010800082884FF68F731A40828082880A4382805A
:10109000704702894FF6F8731A40028102890A43A9
:1010A0000281704702894FF67F731A4002810289DC
:1010B0000A4302817047F0B50C4615461E460021D2
:1010C000002200230189028B038C4FF6F877394008
:1010D00021434FF6FC473A4040F201173A434FF69E
:1010E000DD773B404FF6FF7707EA06172F433B4378
:1010F000018102830384F0BD21B1828842F0800225
:10110000828004E082884FF67F731A4082807047A5
:10111000A0F850107047000010B50121080200F03F
:10112000D8FF00214FF4807000F0D3FF10BD30B520
:101130000246002000235068F84C20400D790C68CE
:1011400044EA0524204350609068F54C2040D1E9E2
:1011500003542C438D682C434D7944EA45042043C5
:101160009060D06A20F470000C7D641EE4B22343CA
:1011700040EA0350D06230BD00210160017141712D
:101180008160C16001610121017570470021E54A5C
:101190001168E54A1140D0E900231A4383681A43D5
:1011A000C3681A431143E14AC2F80413704700218F
:1011B000016041608160C160704721B1826842F086
:1011C0000102826003E0826822F0010282607047BF
:1011D0000A4600214168D64B1940114341607047CF
:1011E0004162826270470A460021416821F01F0176
:1011F00011434160704738B1CA49096841F40001A0
:10120000CA4AC2F8041306E0C649096821F400017D
:10121000C64AC2F80413704738B1C249096841F49C
:101220008001C24AC2F8041306E0BE49096821F4ED
:101230008001BE4AC2F804137047F0B504460D465B
:1012400000200021092D11DDE068A5F10A0606EB5A
:101250004607072606FA07F18843A5F10A0606EBBA
:10126000460603FA06F10843E0600CE0206905EB4E
:101270004507072606FA07F1884305EB450603FAFA
:1012800006F108432061072A0FDA606B561E06EB51
:1012900086071F2606FA07F18843561E06EB8606C8
:1012A00005FA06F10843606322E00D2A0FDA206B8D
:1012B000D61F06EB86071F2606FA07F18843D61FBE
:1012C00006EB860605FA06F10843206310E0E06AA3
:1012D000A2F10D0606EB86071F2606FA07F18843E2
:1012E000A2F10D0606EB860605FA06F10843E06258
:1012F000F0BD816841F08041816070470146002067
:101300008A6802F080420AB1012000E000207047A4
:1013100021B1826842F48062826003E0826822F434
:1013200080628260704721B1826842F0020282606E
:1013300003E0826822F002028260704710B50A461C
:1013400000210023416821F46041531E41EA4331EA
:10135000416010BD21B1426842F40062426003E086
:10136000426822F40062426070470146C86C80B255
:1013700070476C48001D0068704721B1826842F4D4
:101380008072826003E0826822F48072826070471B
:1013900021B1826842F40072826003E0826822F424
:1013A00000728260704738B15E49096841F40051AB
:1013B0005E4AC2F8041306E05A49096821F4005154
:1013C0005A4AC2F804137047F0B504461546002087
:1013D00000220026092911DDE068A1F10A0707EBC8
:1013E000470C072707FA0CF29043A1F10A0707EB15
:1013F000470703FA07F21043E0600CE0206901EBB5
:10140000410C072707FA0CF2904301EB410703FA5E
:1014100007F210432061A06BC0F30156EF1C06F1E8
:10142000010CA7EB0C0707EB870C1F2707FA0CF240
:101430009043EF1C06F1010CA7EB0C0707EB8707A5
:1014400001FA07F21043A063F0BD10B50A4600216F
:101450000023816B21F44011531E41EA0351816343
:1014600010BD08B5002300930090009B0B4400932F
:10147000009B1A6008BD0A460021816821F4702192
:101480001143816070470A460021816821F44011B0
:10149000114381607047816841F480018160704729
:1014A000014600208A6802F480020AB1012000E0AF
:1014B0000020704721B1426842F48062426003E03C
:1014C000426822F480624260704721B1426842F46F
:1014D0008052426003E0426822F4805242607047CA
:1014E00008B5024600200090009201F12800009B00
:1014F000184400900098006880B208BD10B50B46F3
:101500000021D9B2012404FA01F11AB144680C4354
:10151000446002E044688C43446010BDFFFEFFFC61
:10152000FDF7FFC004230140E030FCFF0020014034
:10153000FFFD3FFF0246002013680B400BB1012066
:1015400000E000207047CA430260704770B5024651
:101550000020002300240B12556801268E4005EA66
:10156000060415681D4015B10CB1012000E00020F3
:1015700070BD00220A12D3430360704710B50446C1
:10158000FA48844208D10121102000F0A2FD002178
:10159000102000F09EFD57E0F548844209D101215A
:1015A000480400F085FD00214FF4003000F080FD7C
:1015B0004AE0F048844209D10121880400F078FD16
:1015C00000214FF4802000F073FD3DE0EA488442A2
:1015D00009D10121C80400F06BFD00214FF4002067
:1015E00000F066FD30E0E548844209D1012108059C
:1015F00000F05EFD00214FF4801000F059FD23E063
:10160000DF48844208D10121202000F062FD002142
:10161000202000F05EFD17E0DA48844209D1012164
:10162000880700F045FD00214FF0804000F040FDAC
:101630000AE0D548844207D10121400500F038FD79
:101640000021600500F034FD10BD2DE9FF4705467F
:101650000E460024A14600BFA046B08900B100BFDD
:101660002C8A24F44054F08804432C82AC8941F243
:101670000C608443B088318908437189084304436E
:10168000AC81AC8A24F44074B0890443AC826846CF
:1016900000F09FFBB548854202D0B948854202D18F
:1016A000DDF80C9001E0DDF80890A88900F4004016
:1016B00040B109EBC90000EB091031684900B0FBEB
:1016C000F1F707E009EBC90000EB09103168890068
:1016D000B0FBF1F76420B7FBF0F0040120096421AE
:1016E00001FB1078A88900F4004040B1322000EBE3
:1016F000C800B0FBF1F000F00700044308E032201E
:1017000000EB08106421B0FBF1F000F00F0004437F
:101710002C81BDE8FF874FF41651016000218180C4
:10172000C18001810C21418100218181704710B568
:1017300002460020108A20F470600B884C882343F6
:101740008C882343CC8823431843108210BD00218A
:10175000018041808180C180704721B1828942F43B
:101760000052828104E082894DF6FF731A40828123
:101770007047028B02F47F420283028B0A4302838A
:10178000704721B1828942F40042828103E082895C
:10179000C2F30E028281704721B1828A42F4006254
:1017A000828204E0828A4FF2FF731A40828270477D
:1017B000C1F308028280704701468888C0F30800A0
:1017C0007047028A4FF6F0731A400282028A0A4377
:1017D0000282704721B1828942F00202828104E0D4
:1017E00082894FF6FD731A408281704782894FF2D9
:1017F000FF731A40828182890A4382817047028A7C
:101800004FF6DF731A400282028A0A43028270474F
:1018100021B1028A42F48042028204E0028A4BF63D
:10182000FF731A4002827047818941F00101818172
:10183000704721B1828A42F00802828204E0828AE3
:101840004FF6F7731A4082827047028BD2B202833E
:10185000028B42EA01220283704721B1828A42F060
:101860002002828204E0828A4FF6DF731A4082826D
:10187000704721B1828A42F01002828204E0828A9B
:101880004FF6EF731A4082827047828A4FF6FB73DD
:101890001A408282828A0A438282704721B1828AF8
:1018A00042F00202828204E0828A4FF6FD731A40FF
:1018B000828270471AB1838A0B43838202E0838A53
:1018C0008B4383827047F0B5034600240026002531
:1018D000002040F66A17B94200D100BF1846C1F394
:1018E000421401F01F06012707FA06F5012C01D169
:1018F0000C3004E0022C01D1103000E014301AB199
:1019000007682F43076002E00768AF430760F0BD38
:1019100002460020B1F5007F00D100BF13880B40C4
:101920000BB1012000E00020704701F40072B2F515
:10193000007F00D100BFCA430280704770B50246E5
:10194000002400230025002040F66A16B14200D191
:1019500000BFC1F3421501F01F03012606FA03F38D
:10196000012D13D19689334017E00000001001408B
:101970000044004000480040004C0040005000403F
:101980000014014000780040007C0040022D02D18C
:10199000168A334001E0968A33400C12012606FA7B
:1019A00004F41688344013B10CB1012000E000208B
:1019B00070BD10B50022002340F66A14A14200D188
:1019C00000BF0A1201249440A3B2DC43048010BD7E
:1019D00032490143324A1160704770B5002100233B
:1019E0000F22C4781CB32E4C246804F4E064C4F5C0
:1019F000E064C4F30721C1F10404E3B20A4144786E
:101A00009C40E1B28478144021430C07210E254C00
:101A100005786155047804F01F050124AC40057871
:101A20006D11AD0005F1E025C5F8004109E004782D
:101A300004F01F050124AC401B4D0678761145F8D3
:101A4000264070BD194A0A400243154B1B1F1A60FD
:101A5000704739B1124A121D12680243104B1B1D08
:101A60001A6006E00E4A121D126882430C4B1B1DC1
:101A70001A607047042808D14FF0E021096941F04D
:101A800004014FF0E022116107E04FF0E021096905
:101A900021F004014FF0E022116170470000FA05C7
:101AA0000CED00E000E400E080E100E080FFFF1FBB
:101AB000002041490860091D0860091D0860091DD2
:101AC00008603E483C4914310860704700213A499B
:101AD0008279002A3AD00A46126803689A430B4674
:101AE0001A600A1D126803689A430B1D1A60027976
:101AF00011440A6803681A430A602F4A08321268C0
:101B000003689A432C4B08331A601A1D1268036845
:101B10009A43294B0C331A604279102A0ED11A1FAE
:101B2000126803681A43244B08331A601A1D12689E
:101B300003681A43204B0C331A600DE01E494279AA
:101B400011440A6803681A430A6005E002791144E7
:101B50000A6803689A430A607047002101600171B6
:101B60000C214171002181717047134910310968BE
:101B70000143114A103211607047014600200E4A9D
:101B8000143212680A400AB1012000E000207047B8
:101B9000094914310860704701460020064A143292
:101BA00012680A400AB1012000E000207047024993
:101BB0001431086070470000003C0140FFFF7F00C7
:101BC000F948006840F00100F74908600020F64934
:101BD00008310860F4480068F4490840F249086098
:101BE000F348091D0860F348EF4984310860F04864
:101BF0001038091D0860EC48006820F48020EA498C
:101C000008600020E8490C310860E7498C31086021
:101C100070470021E44A921C117011460870704709
:101C200010B501460022002300204A11012A02D1EA
:101C3000DD4C236808E0022A03D1DB4C70342368B2
:101C400002E0D94C7434236801F01F02012494404F
:101C50001C400CB1012000E0002010BD38B5002070
:101C600000900024002500BF3120FFF7D9FF054672
:101C70000098401C00900098B0F5A04F01D0002DB6
:101C8000F2D03120FFF7CCFF08B1012400E000249E
:101C9000204638BD01460020C34A106820F0F800F5
:101CA00040EAC10010607047C349086070470021D6
:101CB000BD4A703211701170012802D004280AD177
:101CC00004E00121B84A7032117005E00521B64ADE
:101CD0007032117000E000BF00BF7047B749086064
:101CE000704770B5049C41EA82150126C6EB530685
:101CF00045EA0645054345EA0465AB4E361D3560A9
:101D000070BDAD4908667047820142EA0172A64B78
:101D100084331A607047A8498866704710B58301FC
:101D200043EA016343EA02739F4C8834236010BD89
:101D3000A14908677047A049C8647047024600205F
:101D4000994B0833186820F0EC6042EA010318430D
:101D5000954B08331860704702460020924B0833B9
:101D6000186820F0784042EA010318438E4B08338C
:101D700018607047014600208B4A0832106820F036
:101D8000030008431060704787480830006800F07F
:101D90000C00704701460020834A0832106820F08A
:101DA000F000084310607047014600207E4A083268
:101DB000106820F4E050084310607047014600208E
:101DC000794A0832106820F4604040EAC10010608F
:101DD0007047F0B5002100220024022500260223CE
:101DE000714F08373F6807F00C0121B1042905D075
:101DF000082937D105E0724F076036E0714F076060
:101E000033E0694F3F1D3F68C7F38056664F3F1D63
:101E10003F6807F03F036EB16A4FB7FBF3F7DFF897
:101E200088C10CF1040CDCF800C0CCF3881C07FB63
:101E30000CF40CE0624FB7FBF3F7DFF86CC10CF168
:101E4000040CDCF800C0CCF3881C07FB0CF4564FE4
:101E50003F1D3F68C7F301477F1C7D00B4FBF5F7CA
:101E6000076002E0564F076000BF00BF4E4F0837C3
:101E70003F6807F0F0010909534F7A5C0768D740C3
:101E80004760494F08373F6807F4E051890A4E4FD1
:101E90007A5C4768D7408760434F08373F6807F44C
:101EA0006041490B484F7A5C4768D740C760F0BD36
:101EB000002100F44072B2F5407F0AD13A4A08325C
:101EC000116821F4F811414A02401143364A0832A0
:101ED0001160354A70321268C0F30B031A43324B5B
:101EE00070331A6070473549443908607047334988
:101EF0004039086070473649086070470146002045
:101F0000294A8C32106820F4401008431060704752
:101F100001460020244A8C32106820F44000084317
:101F200010607047014600201F4A8C32106820F074
:101F30001F004A1E10431C4A8C3210607047014635
:101F40000020194A8C32106820F4F8504A1E40EAEA
:101F50000220154A8C321060704701460020124A58
:101F60008C32106820F440300843106070471949E3
:101F70000860704739B10C4A3032126802430A4B8C
:101F800030331A6006E0084A303212688243064B4A
:101F900030331A607047F9B1034A34321268024391
:101FA000014B34331A601CE000380240FFFFF6EAB0
:101FB000103000240030002000004742800E4742CD
:101FC0000024F40040787D0114000020FFFCFF0F86
:101FD0005C014742E01147428F4A126882438E4BB0
:101FE0001A60704739B18C4A121D126802438A4B3D
:101FF0001B1D1A6006E0884A121D12688243864B38
:102000001B1D1A60704739B1834A0C3212680243B3
:10201000814B0C331A6006E07F4A0C32126882430F
:102020007D4B0C331A60704739B17B4A103212680D
:102030000243794B10331A6006E0774A1032126877
:102040008243754B10331A60704739B1724A243A93
:1020500012680243704B243B1A6006E06E4A243A31
:10206000126882436C4B243B1A60704739B16A4A4C
:10207000203A12680243684B203B1A6006E0664A29
:10208000203A12688243644B203B1A60704739B192
:10209000614A1C3A126802435F4B1C3B1A6006E01F
:1020A0005D4A1C3A126882435B4B1C3B1A607047C6
:1020B00039B1594A143A12680243574B143B1A601B
:1020C00006E0554A143A12688243534B143B1A6097
:1020D000704739B1504A103A126802434E4B103BD8
:1020E0001A6006E04C4A103A126882434A4B103B91
:1020F0001A60704739B1484A1C3212680243464B95
:102100001C331A6006E0444A1C3212688243424B78
:102110001C331A60704739B13F4A203212680243BB
:102120003D4B20331A6006E03B4A2032126882435E
:10213000394B20331A60704739B1374A243212685C
:102140000243354B24331A6006E0334A24321268C6
:102150008243314B24331A60704739B12E4A2C32F6
:10216000126802432C4B2C331A6006E02A4A2C32A8
:1021700012688243284B2C331A60704739B1264AC3
:10218000303212680243244B30331A6006E0224A90
:10219000303212688243204B30331A607047012876
:1021A00008D11D493C31096841F008011A4A3C3206
:1021B000116007E018493C31096821F00801164A0E
:1021C0003C321160704739B1134A273A1278024302
:1021D000114B273B1A7006E00F4A273A12788243C8
:1021E0000D4B273B1A7070470B484030006840F099
:1021F0008070094940310860704701460020064A56
:10220000283A12680A400AB1012000E00020704715
:1022100001492639087070473438024010B5044629
:102220009848844208D101210846FFF70EFF00219B
:102230000120FFF70AFF76E09348844208D101218C
:102240000220FFF702FF00210220FFF7FEFE6AE0F6
:102250008E48844208D101210420FFF7F6FE0021B8
:102260000420FFF7F2FE5EE08948844208D1012194
:102270000820FFF7EAFE00210820FFF7E6FE52E003
:102280008448844208D101211020FFF7DEFE00219E
:102290001020FFF7DAFE46E07F48844208D1012192
:1022A0002020FFF7D2FE00212020FFF7CEFE3AE0EB
:1022B0007A48844208D101214020FFF7C6FE002160
:1022C0004020FFF7C2FE2EE07548844208D101216C
:1022D0008020FFF7BAFE00218020FFF7B6FE22E043
:1022E0007048844208D101218015FFF7AEFE00211D
:1022F000A015FFF7AAFE16E06B48844208D1012121
:102300004015FFF7A2FE00216015FFF79EFE0AE0D0
:102310006648844207D101210015FFF796FE00218F
:102320002015FFF792FE10BDF0B50A4600210023EC
:10233000002400BF3DE0012505FA01F3156805EA18
:1023400003049C4234D105684F000326BE40B543C8
:10235000056015794E00B54006683543056015796E
:10236000012D02D01579022D16D185684F00032664
:10237000BE40B543856055794E00B540866835430B
:102380008560456801268E40B5434560456896796D
:102390008E40B6B235434560C5684F000326BE4047
:1023A000B543C560D5794E00B540C6683543C560B4
:1023B000491C1029BFD3F0BD4FF6FF710160002109
:1023C000017141718171C171704708B54FF480325C
:1023D0000092009A0A430092009AC261C161009A79
:1023E000C261C2690092C269009208BD0246002023
:1023F00013690B400BB1012000E00020704701463B
:10240000086980B270470246002053690B400BB147
:10241000012000E0002070470146486980B2704703
:1024200001837047418370470AB1018300E0418313
:1024300070474161704742694A4042617047F0B558
:10244000002300244D07ED0E02FA05F3CE1000F133
:10245000200555F826504E07F70E0F26BE40B5430F
:10246000CF1000F1200646F82750CE1000F12005CD
:1024700055F8265045EA0304CE1000F1200545F832
:102480002640F0BD00000240000402400008024067
:10249000000C0240001002400014024000180240EC
:1024A000001C02400020024000240240002802409C
:1024B000016821F00101016000210160416081603B
:1024C000C160016121214161DB49884204D13D2184
:1024D000D94A103A91608CE0D7491831884205D129
:1024E0004FF47461D44A103A916082E0D24930319D
:1024F000884205D14FF47411CF4A103A916078E0C8
:10250000CD494831884205D14FF07461CA4A103A2A
:1025100091606EE0C8496031884204D1C749C64A1B
:10252000103AD16065E0C4497831884204D1C44989
:10253000C14A103AD1605CE0BF499031884204D171
:10254000C049BD4A103AD16053E0BB49A831884226
:1025500005D14FF03D51B84A103AD16049E0BA492F
:10256000884204D13D21B84A083A116041E0B64999
:102570001831884205D14FF47461B34A083A1160AA
:1025800037E0B1493031884205D14FF47411AE4A79
:10259000083A11602DE0AC494831884205D14FF02E
:1025A0007461A94A083A116023E0A7496031884262
:1025B00004D1A249A44A121F11601AE0A24978313D
:1025C000884204D19E49A04A121F116011E09E4921
:1025D0009031884204D19B499B4A121F116008E048
:1025E0009949A831884204D14FF03D51964A121FB3
:1025F0001160704710B500220268944B1A40CC68F5
:102600000B6823434C6923438C692343CC692343E0
:102610000C6A23434C6A23438C6A23434C6B234349
:102620008C6B23431A430260426922F00702D1E90E
:102630000B3423431A4342610B6943604B68836048
:102640008B68C36010BD0021016041608160C16082
:10265000016141618161C161016241628162C16266
:10266000016341638163704721B1026842F0010256
:10267000026003E0026822F001020260704721B1AB
:10268000026842F40042026003E0026822F4004261
:102690000260704721B1026842F02002026003E04C
:1026A000026822F0200202607047416070470146D4
:1026B000486880B2704722B1036843F40023036086
:1026C00003E0036823F4002303600161704721B134
:1026D000026842F48022026003E0026822F4802251
:1026E000026070470AB1016100E0C16070470146B5
:1026F00000200A6802F400220AB1012000E0002054
:102700007047014600200A6802F001020AB1012068
:1027100000E000207047014600204A6902F03800BE
:10272000704730B503460A4600200024464DAB42B0
:1027300002D24149103901E04349103902F00055F5
:102740000DB14C6800E00C68414D2C4004EA0205D4
:102750000DB1012000E0002030BD02463A4B9A4204
:1027600002D23548103801E03748103801F00053E4
:102770001BB1374B0B40C36002E0354B0B4083600D
:10278000704710B501F080034BB122B1436943F0AB
:102790008003436103E0436923F0800343618029A0
:1027A0000BD02AB1036801F01E042343036004E048
:1027B000036801F01E04A343036010BD70B5024618
:1027C000002000240025204EB24202D21A4B103BBA
:1027D00001E01D4B103B1F4E0E4036B11E2606EA8F
:1027E000D124166806EA040502E0566906F0800561
:1027F00001F000560EB15C6800E01C68144E3440D5
:1028000004EA010616B10DB1012000E0002070BD00
:1028100002460D4B9A4202D20748103801E00A489E
:10282000103801F000531BB1094B0B40C36002E0AC
:10283000074B0B4083607047106002403D00002052
:10284000400F002000003D20106402403F801CF03B
:102850007D0F7D0F3C0F3C0F064880470648004720
:10286000FEE7FEE7FEE7FEE7FEE7FEE7FEE7FEE740
:10287000FEE7FEE77902000889010008114A1060AE
:10288000516070471CB501214020FFF773FB4FF4E6
:102890000040009001208DF8040002208DF8050012
:1028A00000208DF8060002208DF8070069460648D2
:1028B000FFF73AFD4FF47A6141F28830FFF7DEFF0F
:1028C0001CBD0000240000200018024000B587B0A5
:1028D00001210220FFF74EFB01218804FFF793FB43
:1028E00007220A213B48FFF7AAFD07220B2139489E
:1028F000FFF7A5FD4FF44060059002208DF8180009
:102900008DF8190000208DF81A0001208DF81B00A9
:1029100005A93048FFF708FD4FF4E1300190002091
:10292000ADF80800ADF80A00ADF80C00ADF81000E5
:102930000C20ADF80E0001A92748FEF786FE012104
:102940002548FEF70AFF012240F225512248FEF7F2
:10295000BAFF4FF4A060FFF73BF827208DF8000086
:1029600003208DF801008DF8020001208DF803008E
:102970006846FFF732F807B000BD70B505460E4651
:1029800000240CE0295D1448FEF712FF00BF40212F
:102990001148FEF7BDFF0128F9D1601CC4B2B44252
:1029A000F0DB70BD0178022900D100E000BF00BF5C
:1029B000704770B504460D46E1B20748FEF7F8FED1
:1029C00000BF40210448FEF7A3FF0028F9D02046AD
:1029D00070BD0000000402400048004010B500280F
:1029E00004DB0A07130E1A4A135406E00A07140EF2
:1029F000184A00F00F031B1FD45410BD10B5164821
:102A000000684FF47A71B0FBF1F4601EB0F1807F82
:102A100000D30FE0601E4FF0E02148610F214FF01E
:102A2000FF30FFF7DBFF00204FF0E0218861072037
:102A3000086100BF0021481EFFF7D0FF10BD074905
:102A4000086000BF054909680029FBD170470000F4
:102A500000E400E018ED00E000000020300000205D
:102A600010B50446FD480078844229D00020FC4976
:102A700008603C21FB48FFF7D5FC6420FFF7DFFF2F
:102A8000052C19D2DFE804F00304090E130014E04A
:102A90002421F448FFF7C4FC0FE01421F148FFF7AC
:102AA000BFFC0AE02821EF48FFF7BAFC05E0182137
:102AB000EC48FFF7B5FC00E000BF00BFE74804703A
:102AC000E648007810BD00B58BB001214020FFF72B
:102AD00051FA01210420FFF74DFA01210220FFF7EE
:102AE00092FA3C20019001208DF8080003208DF817
:102AF000090000208DF80A0002208DF80B0001A9C2
:102B0000D848FFF711FC02220621D748FFF797FCAF
:102B100002220721D448FFF792FCC0200190022036
:102B20008DF8080003208DF8090000208DF80A00B8
:102B300002208DF80B0001A9CB48FFF7F5FB002020
:102B4000ADF82000ADF822004AF20F4009900020B5
:102B5000ADF8280008A9C548FDF739FD6020ADF89B
:102B60000C000120ADF80E000020ADF81800059013
:102B700003A9BE48FDF7C0FD03A9BC48FDF7F5FD5C
:102B80000821BA48FDF745FF0821B848FDF74AFF7C
:102B90000121B648FDF786FD0121B448FDF7A0FDEF
:102BA0000020FFF75DFF0BB000BD70B504460D4679
:102BB0004AF20F40854201DD054602E0002D00DAB1
:102BC00000254AF20F40844201DD044602E0002C59
:102BD00000DA0024A648456004604168A348FDF778
:102BE000E4FEA3480168A148FDF7E1FE9C480068A7
:102BF00070BD70B52DED068BB0EE408AF0EE608AA8
:102C0000B0EE419AF0EE619A9FED9A0B53EC102BC7
:102C100051EC190B01F074FD1AD39FED960B53EC98
:102C2000102B51EC180B01F06BFD11D39FED930BA2
:102C300053EC102B51EC180B01F04AFD08D39FED1B
:102C40008F0B53EC102B51EC190B01F041FD04D20A
:102C500082480078BDEC068B70BD9FED8A0B53EC6B
:102C6000102B51EC190B01F002FC41EC1A0B01F096
:102C7000FDFC04469FED830B53EC102B51EC180B1D
:102C800001F0F5FB41EC1A0B01F0F0FC0546214682
:102C9000FFF78BFFDEE710B57148006848B30020EE
:102CA0006F4908603C216F48FFF7BCFB6420FFF7C9
:102CB000C6FE6A480078052819D2DFE800F0030450
:102CC000090E130014E024216648FFF7A9FB0FE06A
:102CD00014216448FFF7A4FB0AE028216148FFF7AC
:102CE0009FFB05E018215F48FFF79AFB00E000BF5B
:102CF00000BF5A48007810BD10B504466348046010
:102D00000120FFF7ADFE10BD10B52DED088BB0EE24
:102D1000408AF0EE608A9FED5E0A28EE000AB0EE6F
:102D2000408A9FED5B0A28EE800AF0EE408A01207F
:102D300001F042FEB0EE40AAF0EE60AA51EC1A0B90
:102D400001F0F6FC09EE100A012001F097FEB0EE4A
:102D500040AAF0EE60AA51EC1A0B01F0E9FC09EE72
:102D6000900A38EE490AB5EEC00AF1EE10FA74DDA9
:102D700038EE490AF6EE000AB4EEE00AF1EE10FA77
:102D800008DD444890ED000ADFED430A30EE200AEA
:102D900080ED000A38EE490ADFED400AB4EEE00AA1
:102DA000F1EE10FA08DD3B4890ED000ADFED3C0A39
:102DB00030EE200A80ED000A38EE490ADFED390ACC
:102DC000B4EEE00AF1EE10FA08DD324890ED000AA8
:102DD000DFED350A30EE200A80ED000A38EE490AB0
:102DE000DFED320AB4EEE00AF1EE10FA08DD294810
:102DF00090ED000ADFED2E0A30EE200A80ED000A89
:102E000038EE490ADFED2B0AB4EEE00AF1EE10FAD3
:102E100008DD204890ED000ADFED270A30EE200A99
:102E200080ED000A1B4890ED000AF6EE000AB4EEB1
:102E3000E00AF1EE10FA03DDB6EE000A80ED000ABA
:102E40001E48006801F031FC41EC1A0B1148006883
:102E500001F02BFC41EC1B0B32E03CE03C0000207D
:102E6000400000200018024000080240000400401A
:102E700034000020000000000000F03F00000000CF
:102E80000000F0BF00000000E081E44044000020AA
:102E90000AD7233D480000200AD7233CCDCCCC3EA6
:102EA0000AD7A33B9A99993EA69B443BCDCC4C3E76
:102EB0006F12033BCDCCCC3D6F12833A4C00002007
:102EC000B0EE4A1AF0EE6A1AB0EE4B0AF0EE6B0A58
:102ED000FFF78FFE7BE039EE480AF6EE000AB4EE0B
:102EE000E00AF1EE10FA08DDBC4890ED000A5FED53
:102EF000160A30EE600A80ED000A39EE480A5FEDEE
:102F0000190AB4EEE00AF1EE10FA08DDB34890EDCC
:102F1000000A5FED1D0A30EE600A80ED000A39EE0E
:102F2000480A5FED200AB4EEE00AF1EE10FA08DD7F
:102F3000AA4890ED000A5FED240A30EE600A80EDA9
:102F4000000A39EE480A5FED270AB4EEE00AF1EE16
:102F500010FA08DDA14890ED000A5FED2B0A30EE73
:102F6000600A80ED000A39EE480A5FED2E0AB4EEE1
:102F7000E00AF1EE10FA08DD984890ED000A5FEDE6
:102F8000320A30EE600A80ED000A944890ED000AA3
:102F9000B5EEC00AF1EE10FA03D29FED910A80ED72
:102FA000000A9048006801F080FB41EC1A0B8B4846
:102FB000006801F07AFB41EC1B0BB0EE4A1AF0EE10
:102FC0006A1AB0EE4B0AF0EE6B0AFFF712FE38EE0B
:102FD000E90AB5EEC00AF1EE10FA7CDD38EEE90A36
:102FE000F6EE000AB4EEE00AF1EE10FA08DD7D48D4
:102FF00090ED000A5FED580A30EE200A80ED000ADD
:1030000038EEE90A5FED5B0AB4EEE00AF1EE10FA81
:1030100008DD744890ED000A5FED5F0A30EE200A8B
:1030200080ED000A38EEE90A5FED620AB4EEE00ACC
:10303000F1EE10FA08DD6B4890ED000A5FED660ACC
:1030400030EE200A80ED000A38EEE90A5FED690AE9
:10305000B4EEE00AF1EE10FA08DD624890ED000AE5
:103060005FED6D0A30EE200A80ED000A38EEE90AC5
:103070005FED700AB4EEE00AF1EE10FA08DD59488F
:1030800090ED000A5FED740A30EE200A80ED000A30
:10309000544890ED000AF6EE000AB4EEE00AF1EEB4
:1030A00010FA03DDB6EE000A80ED000A4D48006814
:1030B00001F0FBFA41EC1A0B4848006801F0F5FA00
:1030C00041EC1B0BB0EE4A1AF0EE6A1AB0EE4B0A56
:1030D000F0EE6B0A00E002E0FFF78BFD7BE039EEDB
:1030E000E80AF6EE000AB4EEE00AF1EE10FA08DDA6
:1030F0003C4890ED000A5FED980A30EE600A80EDE2
:10310000000A39EEE80A5FED9B0AB4EEE00AF1EE40
:1031100010FA08DD334890ED000A5FED9F0A30EEAB
:10312000600A80ED000A39EEE80A5FEDA20AB4EE0B
:10313000E00AF1EE10FA08DD2A4890ED000A5FED92
:10314000A60A30EE600A80ED000A39EEE80A5FED6B
:10315000A90AB4EEE00AF1EE10FA08DD214890ED7C
:10316000000A5FEDAD0A30EE600A80ED000A39EE2C
:10317000E80A5FEDB00AB4EEE00AF1EE10FA08DDFD
:10318000184890ED000A5FEDB40A30EE600A80ED59
:10319000000A144890ED000AB5EEC00AF1EE10FAEC
:1031A00003D29FED0F0A80ED000A0E48006801F07F
:1031B0007CFA41EC1A0B0948006801F076FA41EC00
:1031C0001B0BB0EE4A1AF0EE6A1AB0EE4B0AF0EEA4
:1031D0006B0AFFF70EFDBDEC088B10BD4800002008
:1031E000000000004C00002000B589B00121084615
:1031F000FEF709FF01210820FEF705FF012108461F
:10320000FEF7B8FE022200218448FFF718F90122D8
:103210000F218248FFF713F948F2010000900220C5
:103220008DF8040003208DF8050000208DF80600BD
:1032300002208DF8070069467848FFF775F8A72047
:10324000ADF818000020ADF81A004CF24F3007908E
:103250000020ADF8200006A97148FDF7B8F906A9CD
:103260004FF08040FDF7B3F90020ADF80C00ADF849
:103270000E000120ADF810000020ADF81200022071
:10328000ADF8140003A96648FDF778FD03A94FF0D7
:103290008040FDF773FD32208DF8080002208DF884
:1032A000090000208DF80A0001208DF80B0002A80B
:1032B000FEF793FB1C208DF8080002208DF8090012
:1032C00001208DF80A0002A8FEF787FB012154486F
:1032D000FDF706FA01218807FDF702FA09B000BDE3
:1032E00050480068704710B54D4B984216D10A2AD5
:1032F00006DBFF234C4C237000234C4C236010BD95
:1033000040F63543534301EB03135B1C474C2360EA
:10331000454B1B785B1C444C237018E0B0F1804F88
:1033200015D10A2A06DBFF23414C23700023414CB0
:103330002360E4E740F63543534301EB03135B1C82
:103340003C4C23603A4B1B785B1C394C237000BF0C
:10335000D5E739480068704710B504460020364963
:1033600008603049086003212D48FDF7F9FD03216D
:103370004FF08040FDF7F4FD012203212848FDF7BE
:10338000C7FD012203219007FDF7C2FD00BF2548BC
:103390000068A04203D228480068A042F7D3002268
:1033A00003211F48FDF7B4FD002203214FF08040A8
:1033B000FDF7AEFD012010BD70B504460D4600209E
:1033C0001D4908601749086003211548FDF7C8FD2D
:1033D00003214FF08040FDF7C3FD01220321104877
:1033E000FDF796FD012203219007FDF791FDA84707
:1033F00000BF0C480068A042FBD30F480068A04201
:10340000F7D3002203210648FDF782FD00220321A5
:103410004FF08040FDF77CFD012070BD00000240B0
:10342000000C0040580000205400002050000020F4
:10343000600000205C0000206400002000B58DB01A
:1034400001210846FEF796FD01210220FEF792FDBC
:1034500001210420FEF78EFD01211020FEF78AFDD8
:1034600001212020FEF786FD01214020FEF782FD8C
:1034700001210802FEF7D8FD4FF48070079001206B
:103480008DF8200003208DF8210000208DF8220007
:1034900001208DF8230007A98748FEF745FF022089
:1034A000079007A98548FEF73FFF4FF404500790A7
:1034B00007A98348FEF738FFFC20079003208DF80A
:1034C000200000208DF8230007A97E48FEF72CFF7E
:1034D0000320079007A97C48FEF726FF02200790EB
:1034E00007A97A48FEF720FF01210802FEF7F1FD47
:1034F00000214FF48070FEF7ECFD002009904FF49E
:1035000080300A9000200B904FF400700C9009A8B6
:10351000FDF73CFE002001908DF808008DF80900B1
:103520000390059001208DF8180001A96848FDF767
:10353000FEFD4FF480716248FEF774FF0DB000BDD0
:1035400070B506460C461546002E05DD4FF4807119
:103550005948FEF765FF04E04FF480715648FEF7C6
:1035600061FF002C04DD02215448FEF759FF03E0FF
:1035700002215248FEF756FF002D05DD4FF40051A1
:103580004F48FEF74DFF04E04FF400514C48FEF762
:1035900049FF70BD10B50446092C36D2DFE804F0AF
:1035A00035050B11171D23292F000022012110467C
:1035B000FFF7C6FF2AE0012200211046FFF7C0FFF7
:1035C00024E0012200210846FFF7BAFF1EE0012295
:1035D00011461046FFF7B4FF18E0002211461046CE
:1035E000FFF7AEFF12E0002201210846FFF7A8FF17
:1035F0000CE0012211460020FFF7A2FF06E00022A6
:1036000011460120FFF79CFF00E000BF00BF10BD86
:1036100010B504460223012221462D48FDF70DFE78
:103620002B48FDF766FE00BF02212948FDF782FF07
:103630000028F9D02648FDF798FE10BD2DE9F0418D
:1036400007460C460025002605E03846FFF7E0FF58
:103650000544701CC6B2A642F7DBB5FBF4F080B29D
:10366000BDE8F08170B501211948FDF7A6FD0024E1
:1036700018E0002513E0012C02D1681CFFF78AFF37
:10368000144901EBC401495D134A505C0121FFF765
:10369000D5FF124901EB041121F815006D1C082D0E
:1036A000E9DB641C022CE4DB00210948FDF785FD01
:1036B0000A4870BD094870470010024000180240D7
:1036C00000140240000002400004024000080240D2
:1036D000002001408C4E00089C4E0008A0000020F5
:1036E0001CB501210220FEF745FC4FF4407000900C
:1036F00001208DF8040000208DF8060003208DF8CD
:10370000050001208DF807006946F748FEF70CFE1A
:103710000120F6490860F649C1F8A4021CBDA721A2
:1037200005E0A72100BF0A1EA1F10101FBDC021E7A
:10373000A0F10100F5D1704700B5EB48006820F416
:103740004020E94908600846006840F4802008608D
:103750000020E6490860E649C1F8A4020420FFF70A
:10376000DEFF0120E14908600420FFF7D8FF0120B7
:10377000DF49C1F8A40200BD00B50020DB490860A4
:10378000D948006820F44020D749086008460068FE
:1037900040F4802008600020D549C1F8A40202202E
:1037A000FFF7BDFF0120D14908600220FFF7B7FFF6
:1037B0000020CF49C1F8A00200BD00B50020CB49D0
:1037C0000860C948006820F44020C74908600846DE
:1037D000006840F4802008600120C549C1F8A402B7
:1037E0000220FFF79CFF0120C04908600220FFF77C
:1037F00096FF0020BE49C1F8A00200BD70B5054685
:103800000024B948006820F44020B7490860084601
:1038100000680860002616E00020B4490860022015
:10382000FFF77DFF0120B249C1F8A0026006040E37
:10383000AE487C38006808B1601CC4B20120FFF7B4
:103840006EFF701CC6B2082EE6DB15B9FFF7B5FF98
:1038500001E0FFF791FF204670BD10B50024012064
:10386000A249091D0860A048006820F440209E4934
:1038700008600846006808600120FFF750FF01203B
:103880009B49C1F8A002FFF74AFF07E0601CC4B2E1
:10389000FA2C03DDFFF750FF012010BD93487C3860
:1038A00000680028F2D19149086000BFF5E730B503
:1038B00005468D48006820F440208B490860084682
:1038C000006840F4802008600020884908600724D0
:1038D00015E045FA04F08549091D08600220FFF74C
:1038E0001EFF01208249C1F8A0020220FFF717FF46
:1038F00000207E4908600220FFF711FF641E002CA3
:10390000E7DA30BD00B57848006820F440207649F9
:1039100008600846006840F4802008600120734970
:10392000091D08607249C1F8A0020420FFF7F7FEE4
:1039300000206E49091D08600420FFF7F0FE0020FA
:103940006B49C1F8A00200BD2DE9F041054688464B
:1039500016461F460024FFF7D5FF6906080EFFF73D
:10396000A6FFFFF77AFF4046FFF7A1FFFFF775FFBD
:10397000FFF7C8FF012101EB4501C8B2FFF797FF30
:10398000FFF76BFF00BF0DE0701EA04204D00120C6
:10399000FFF734FF385503E00020FFF72FFF3855BD
:1039A000601CC4B2B442EFDBFFF7C6FE2046BDE8A0
:1039B000F0812DE9F04105460E4617469846002451
:1039C000FFF7A0FF6906080EFFF771FFFFF745FF3D
:1039D0003046FFF76CFFFFF740FF00BF07E018F825
:1039E0000400FFF764FFFFF738FF601CC4B2BC425D
:1039F000F5DBFFF7A1FE0120BDE8F0810146087864
:103A00004A7840EA022000B2704700B52DED048BE1
:103A100083B001AB06223D215020FFF795FF01A89E
:103A2000FFF7ECFF334908800DF10600FFF7E6FFD2
:103A30003149088002A8FFF7E1FF304908802D488E
:103A4000B0F9000000F0F4FD41EC190B9FED2C0BD8
:103A500053EC102B00F07DFD41EC180B9FED2A0B71
:103A600053EC102B00F003FD294A03C22248B0F9A1
:103A7000000000F0DDFD41EC190B9FED210B53EC34
:103A8000102B00F066FD41EC180B9FED1F0B53EC63
:103A9000102B00F0ECFC1F4A03C21848B0F90000DC
:103AA00000F0C6FD41EC190B9FED150B53EC102BEC
:103AB00000F04FFD41EC180B9FED130B53EC102B56
:103AC00000F0D5FC144A03C203B0BDEC048B00BD6A
:103AD0000F4890ED000B70470E4890ED000B7047BB
:103AE0000D4890ED000B704700040240A082404258
:103AF00000804042800000208200002084000020DE
:103B0000000000000000E04000000000008066406F
:103B100068000020700000207800002000B592B0FE
:103B20000CAB182234215020FFF70EFF0CA8FFF732
:103B300065FF00EE100AB8EEC00ADFED730A80EEF2
:103B4000201AB3EE000A21EE000A8DED090A0DF1EC
:103B50003200FFF753FF00EE100AB8EEC00ADFEDA7
:103B60006A0A80EE201AB3EE000A21EE000A8DEDFB
:103B70000A0A0DA8FFF742FF00EE100AB8EEC00ACD
:103B8000DFED610A80EE201AB3EE000A21EE000A92
:103B90008DED0B0A0DF13600FFF730FF00EE100A35
:103BA000B8EEC00A9FED581AC0EE010A9FED570A01
:103BB00020EE800A8DED060A0EA8FFF71FFF00EE2B
:103BC000100AB8EEC00ADFED500A80EE201A9FED11
:103BD0004F0A21EE000A8DED070A0DF13A00FFF7BA
:103BE0000DFF00EE100AF8EEC00A9FED471A80EEB6
:103BF000810ADFED460A20EE200A8DED080A0FA8A3
:103C0000FFF7FCFE00EE100AB8EEC00A8DED030AC5
:103C10000DF13E00FFF7F2FE00EE100AB8EEC00A0A
:103C20008DED040A10A8FFF7E9FE00EE100AB8EEC9
:103C3000C00A8DED050A0DF14200FFF7DFFE00EE30
:103C4000100AB8EEC00ADFED300A80EE201A9FEDB0
:103C5000300A21EE000A8DED000A11A8FFF7CEFE12
:103C600000EE100AB8EEC00A9FED271AC0EE010A56
:103C70009FED270A20EE800A8DED010A0DF1460026
:103C8000FFF7BCFE00EE100AF8EEC00A9FED1E1A08
:103C900080EE810ADFED1E0A20EE200A8DED020A79
:103CA0009DED090A1B4880ED000A9DED0A0A80ED92
:103CB000010A9DED0B0A80ED020A9DED060A80EDDA
:103CC000030A9DED070A80ED040A9DED080A80EDC8
:103CD000050A9DED030A80ED060A9DED040A80EDBC
:103CE000070A9DED050A80ED080A9DED000A80EDAA
:103CF000090A9DED010A80ED0A0A9DED020A80ED98
:103D00000B0A12B000BD0000000000470000FA449A
:103D100000003443C000002010B52DED028B044696
:103D2000012000F049FEB0EE408AF0EE608A51ECCE
:103D3000180B00F09BFC0446012000F03DFEB0EEA5
:103D4000408AF0EE608A51EC180B00F08FFC0446BC
:103D5000204600F06DFC41EC180B9FEDFB0B53EC83
:103D6000102B00F0B5FC04D89FEDF90BBDEC028BD5
:103D700010BD204600F05CFC41EC180B9FEDF60BEB
:103D800053EC102B00F0A4FC02D89FEDF50BEDE7EF
:103D9000204600F04DFC41EC180B9FEDF30B53EC6B
:103DA000102B00F095FC02D89FEDF10BDEE72046CA
:103DB00000F03EFC41EC180B9FEDEF0B53EC102B89
:103DC00000F086FC02D89FEDEE0BCFE7204600F016
:103DD0002FFC41EC180B9FEDEC0B53EC102B00F07B
:103DE00077FC02D89FEDEA0BC0E7204600F020FCEC
:103DF00041EC180B9FEDE80B53EC102B00F068FC26
:103E000002D89FEDE70BB1E7204600F011FC41EC32
:103E1000180B9FEDE50B53EC102B00F059FC02D86A
:103E20009FEDE30BA2E7204600F002FC41EC180BEB
:103E30009FEDE10B53EC102B00F04AFC02D89FEDF4
:103E4000E00B93E7204600F0F3FB41EC180B9FEDED
:103E5000DE0B53EC102B00F03BFC02D89FEDDC0B8B
:103E600084E7204600F0E4FB41EC180B9FEDDA0BF1
:103E700053EC102B00F02CFC02D89FEDD90B75E70A
:103E8000204600F0D5FB41EC180B9FEDD70B53EC0F
:103E9000102B00F01DFC02D89FEDD50B66E72046E5
:103EA00000F0C6FB41EC180B9FEDD30B53EC102B2D
:103EB00000F00EFC02D89FEDD20B57E7204600F031
:103EC000B7FB41EC180B9FEDD00B53EC102B00F01F
:103ED000FFFB02D89FEDCE0B48E7204600F0A8FB81
:103EE00041EC180B9FEDCC0B53EC102B00F0F0FBCA
:103EF00002D89FEDCB0B39E7204600F099FB41EC4F
:103F0000180B9FEDC90B53EC102B00F0E1FB02D80E
:103F10009FEDC70B2AE7204600F08AFB41EC180B07
:103F20009FEDC50B53EC102B00F0D2FB02D89FED98
:103F3000C40B1BE7204600F07BFB41EC180B9FED08
:103F4000C20B53EC102B00F0C3FB02D89FEDC00B4B
:103F50000CE7204600F06CFB41EC180B9FEDBE0B0C
:103F600053EC102B00F0B4FB02D89FEDBD0BFDE627
:103F7000204600F05DFB41EC180B9FEDBB0B53ECB2
:103F8000102B00F0A5FB02D89FEDB90BEEE6204602
:103F900000F04EFB41EC180B9FEDB70B53EC102BD0
:103FA00000F096FB02D89FEDB60BDFE6204600F04E
:103FB0003FFB41EC180B9FEDB40B53EC102B00F0C2
:103FC00087FB02D89FEDB20BD0E69FEDB30BCDE699
:103FD00070B52DED108B82B09FEDB10B8DED000B08
:103FE00000250026FFF73EFB0446002002E034F8DF
:103FF0001050401C0328FADD042002E034F8106061
:10400000401C0428FADDA81900F012FB41EC1A0B41
:10401000304600F01EFB41EC1F0B9FEDA30B53EC51
:10402000102B00F024FA41EC1E0BB0EE4E0AF0EE1D
:104030006E0A00F07BFEB0EE40CAF0EE60CA284681
:1040400000F007FB41EC1F0B9FED970B53EC102B7F
:1040500000F00DFA41EC1E0BB0EE4E0AF0EE6E0AC7
:1040600000F064FEB0EE40DAF0EE60DA53EC1C2BA8
:1040700051EC1D0B00F0F5F941EC1B0B53EC1A2B26
:1040800000F067FA41EC190B53EC192B9DED000B76
:1040900051EC100B00F0E5F941EC180BB0EE480ABA
:1040A000F0EE680A02B0BDEC108B70BD10B52DEDBE
:1040B0000A8BB2EE040AF0EE409A9FED7D0AB0EE54
:1040C00040AA9FED7C0AF0EE40AA9FED7B0AB0EE7D
:1040D000408A9FED790AF0EE408A9FED770AB0EEB4
:1040E000409A9FED750AB0EE40BA9FED730A10EE4C
:1040F000104AFFF76DFFB0EE40CAF0EE60CA51EC17
:104100001C0B00F015FB08EE100AF0EE488A39EEA1
:10411000080AB0EE409A694890ED000A38EE400A6D
:10412000B0EE40BA29EEA80A0AEE090A0AEE8B0A96
:1041300010EE104A80ED008A204600F0B6FA41ECFD
:10414000100BBDEC0A8B10BD94A12AA6D24FB43F30
:104150000000000000000000C03E3A75E533D93F82
:104160007B14AE47E17A843FA18158367388EC3FD7
:104170007B14AE47E17A943FAF42CA4FAA7DF63F27
:10418000B81E85EB51B89E3FD828EB371373FE3F1E
:104190007B14AE47E17AA43F963FDF162CA5024080
:1041A0009A9999999999A93F79CBD58F4D42054014
:1041B000B81E85EB51B8AE3FC0EAC891CE4007406B
:1041C000EC51B81E85EBB13F5D4E098849B80840F7
:1041D0007B14AE47E17AB43FA777F17EDCEE09406D
:1041E0000AD7A3703D0AB73F51A2258FA7050B4000
:1041F0009A9999999999B93F44A7E7DD58F00B40EE
:10420000295C8FC2F528BC3FE21E4B1FBAB00C40A0
:10421000B81E85EB51B8BE3F12329067974F0D40E4
:10422000A4703D0AD7A3C03F4D2F3196E9C70D407A
:10423000EC51B81E85EBC13FCA8CB7955E3B0E4072
:10424000333333333333C33F80643A747A9E0E4042
:104250007B14AE47E17AC43FA04E797423EC0E4044
:10426000C3F5285C8FC2C53FEA961DE21F360F409A
:104270000AD7A3703D0AC73FBA313D6189770F4025
:1042800052B81E85EB51C83F1A19E42EC2B40F4034
:104290009A9999999999C93FAE47E17A14AEEF3F3F
:1042A00006043AADA4B1153F000000000000F03F45
:1042B000CDCC4C3FCDCC8C400000000088000020CD
:1042C00010B52DED068BFFF7F1FEB0EE40AAF0EE33
:1042D00060AA1FED310B53EC102B51EC1A0B00F0C0
:1042E000C3F841EC180BFFF7E1FEB0EE40AAF0EE88
:1042F00060AA1FED390B53EC102B51EC1A0B00F098
:104300000FF841EC190BB0EE481AF0EE681AB0EE57
:10431000490AF0EE690AFEF76CFCBDEC068B10BD95
:104320002DE9FE4F804681EA0300C00F0C46009045
:1043300021F0004123F00045B8EB0200A94105D26D
:104340004046214690461C460B46024623F000405C
:10435000104347D0270DC7F30A00C3F30A51029058
:10436000401A019040286BDAC3F3130040F4801B1D
:104370000098924620B10023D2EB030A63EB0B0BAB
:1043800001985946C0F14002504600F0EDF906464A
:104390000D4650465946019A00F005FA10EB080008
:1043A0006141002487EA115284EAE7731A4340D03E
:1043B000009A62B3019A012A4FEA075215DC001BEA
:1043C00061EB02014FF0004202EA0752CDE90042E0
:1043D000001C41F5801132462B4600F03CFA03B038
:1043E000BDE8F08F40462146F9E7001B61EB020172
:1043F000001C41F5801300185B412018A2F500173E
:1044000047EB030140EAD570B6196D4111E06D0824
:104410004FEA360645EAC0754FEA0752001B61EBCA
:104420000201001C41F5801149084FEA30000019D3
:10443000514132462B4603B0BDE8F04F00F0FCB9C5
:104440000098012240000023D0EB020263EBE073EE
:10445000009821464FEAE074B8EB000061EB0401DC
:10446000E9E783F000435BE781F0004158E72DE97D
:10447000FE4F81EA030404F0004421F0004100945F
:104480004FF0000B23F0004350EA01045ED052EAE3
:1044900003045BD0C3F30A54C1F30A552C44A4F2BD
:1044A000F3340194A0FB0254C1F3130141F48011D1
:1044B000C3F3130343F4801301FB024400FB034ED8
:1044C000840A970A44EA815447EA8357A4FB0768A1
:1044D00002958D0A05FB07854FEA932C04FB0C54CB
:1044E0002705029D4FEA065847EA1637B5EB08053F
:1044F0006EEB070C870E920E47EA811742EA831291
:10450000A7FB0201B6EB0B0164EB00042B0D43EAA1
:104510000C335E1844EB1C50DA465146E7FB0201AF
:10452000C5F313044FEA0B3343EA14534FEA043242
:10453000019C43EA0603A4F10C040294009CCDE91B
:1045400000B400F088F903B0BDE8F08F0020014608
:10455000F9E72DE9F04D81EA030404F0004B21F066
:10456000004514464FF0000A23F0004150EA0502CE
:1045700020D054EA01021DD0C5F30A570246C5F304
:104580001303C1F31300C1F30A5640F4801543F43A
:104590008013A7EB0608101BD64608F2FD3873EB14
:1045A000050002D308F1010801E092185B41B8F15F
:1045B000000F03DA00200146BDE8F08D00204FF423
:1045C0008011064684460EE0171B73EB050705D3E2
:1045D000121B63EB050306434CEA010C49084FEA42
:1045E000300092185B4150EA0107EDD152EA030016
:1045F00012D082EA040083EA0501084305D0101BAB
:10460000AB4106D20122002306E000224FF0004316
:1046100002E06FF0010253101AEB06004CEB085158
:1046200010EB0A0041EB0B01BDE8F04D00F004B9BE
:104630000EB5C10F80EAE0700844CA07002140F2BD
:1046400033438DE80E000A460B4600F004F903B030
:1046500000BD0EB540F2334102910021CDE90011B9
:104660000A460B4600F0F7F803B000BD70B5C1F381
:104670000A5201F000450024C1F3130140F2FF3358
:1046800041F480119A4201DA002070BD40F23343B8
:104690009A42A2F2334203DC524200F074F800E086
:1046A00090402C43F1D0404270BD00F0004230F009
:1046B00000400AD0C10D01F56071C0F3160042EA56
:1046C0000151C2084007114370470020014670475E
:1046D00030B5041E71F1000404DB4FF00044404289
:1046E00064EB0101141E73F1000405DB1C464FF05E
:1046F0000043524263EB04038B4208BF824230BD49
:1047000030B5041E71F1000404DB4FF00044404258
:1047100064EB0101141E73F1000405DB1C464FF02D
:104720000043524263EB0403994208BF904230BDFC
:1047300001F0004330B421F0004150EA010206D0FC
:104740000A0DA2F56072C1F31301002A02DC30BC2D
:1047500000207047440F44EAC104C100E01830BC97
:1047600000EBC25000F031B8202A04DB203A00FAF6
:1047700002F1002070479140C2F1200320FA03F3B8
:10478000194390407047202A04DB203A21FA02F0B6
:104790000021704721FA02F3D040C2F1200291407B
:1047A000084319467047202A06DBCB17203A41FA06
:1047B00002F043EAE07306E041FA02F3D040C2F1AE
:1047C000200291400843194670470029A8BF70474E
:1047D000401C490008BF20F00100704710B4B0FA37
:1047E00080FC00FA0CF050EA010404BF10BC7047D2
:1047F00049B1CCF1200421FA04F411FA0CF118BFEC
:10480000012121430843A3EB0C01CB1D4FEA0061BA
:104810004FEA102042BF002010BC704700EBC3508D
:1048200010440029A4BF10BC7047401C490008BFB9
:1048300020F0010010BC704710B5141E73F1000485
:1048400008DA401C41F1000192185B411A4301D182
:1048500020F0010010BD2DE9F04D92469B4611B1AC
:10486000B1FA81F202E0B0FA80F220329046FFF70E
:104870007BFF04460F4640EA0A0041EA0B0153461B
:104880005A46084313D0114653EA010019D0C8F123
:1048900040025046FFF777FF05460E465046594600
:1048A0004246FFF761FF084305D0012004E020469F
:1048B0003946BDE8F08D0020054346EAE0762C43FA
:1048C00037430A986305E40AA0EB08000022FD0ABA
:1048D00044EA47540A3002D500200146E9E70105C1
:1048E00010196941DDE9084500196941BDE8F04D3D
:1048F000A2E72DE9F04D00231A461B1A8A4103DB7B
:1049000000200146BDE8F08DC1F30A52C1F3130146
:1049100041F480154FF0000BD10702D100186D4112
:10492000521E0027044640F2FF11384601EB620A8E
:104930003E468046024600204FF48011FFF723FFD9
:10494000C2197141BB1846EB0100B4EB030C75EBC7
:10495000000C04D3E41A65EB000517460E46241933
:1049600008F101006D4180463428E3DDF91946EB7A
:104970000600091BA84103D24FF0FF32134601E0A5
:10498000002213461BEB070046EB0A51BDE8F04D31
:10499000FFF752BF064C074D06E0E06840F0010308
:1049A00094E8070098471034AC42F6D3FBF7F0FBCD
:1049B000B04E0008D04E000870B52DED088B0446AF
:1049C000002500202549087003214FF08040FCF7A6
:1049D000C7FA012203219007FCF79AFA012008E0A8
:1049E00000BF1E4909788142FBDD1D4909680D445D
:1049F000401CA042F4DD002203214FF08040FCF770
:104A000087FAB5FBF4F63046FFF723FE41EC1B0BAB
:104A10009FED140B53EC102BFFF729FD41EC1A0B03
:104A20009FED120B53EC102BFFF721FD41EC190BFE
:104A30009FED100B53EC102BFFF78BFD41EC180B87
:104A400053EC182B9FED070B51EC100BFFF781FD7A
:104A500041EC100BBDEC088B70BD00006000002025
:104A60005C000020000000000000F03F000000009B
:104A7000000064400000000080841E4170B52DEDF0
:104A8000088B04460025002024490870032124488F
:104A9000FCF766FA012203212148FCF739FA0120CC
:104AA00008E000BF1D4909788142FBDD1D49096806
:104AB0000D44401CA042F4DD002203211848FCF7FD
:104AC00027FAB5FBF4F63046FFF7C3FD41EC1B0BAC
:104AD0009FED150B53EC102BFFF7C9FC41EC1A0BA3
:104AE0009FED130B53EC102BFFF7C1FC41EC190B9E
:104AF0009FED110B53EC102BFFF72BFD41EC180B26
:104B000053EC182B9FED080B51EC100BFFF721FD18
:104B100041EC100BBDEC088B70BD00005400002070
:104B2000000C004050000020000000000000F03F9A
:104B300000000000000064400000000080841E416E
:104B40000448006820B103480068401E014908601D
:104B5000704700003000002010B501210648FDF725
:104B600045FC012800D100E0002004490870012024
:104B7000FDF71DF810BD0000000002408600002077
:104B800010B501218807FCF7DAF901281AD11F486E
:104B900001780078401C1D4A10700A290EDB4FF086
:104BA0008040FCF769F904461848027821464FF026
:104BB0008040FEF798FB0020144908700121880707
:104BC000FCF7CEF902214807FCF7B9F901281BD1FF
:104BD0008007FCF751F904460C48027821464FF053
:104BE0008040FEF780FB00200849087008480068F4
:104BF000401C0749086000214FF08040FBF730FD62
:104C000002214807FCF7ACF910BD00009C00002011
:104C10006400002010B501211F48FCF790F901281D
:104C200018D11E4801780078401C1C4A10700A29CF
:104C30000CDB1948FCF720F9044618480278214695
:104C40001548FEF750FB0020144908700121124856
:104C5000FCF786F902211048FCF771F9012819D1F7
:104C60000D48FCF709F904460C48027821460A4829
:104C7000FEF739FB00200949087009480068401C0C
:104C80000749086000210448FBF7EAFC02210248BA
:104C9000FCF766F910BD0000000C00409D000020EC
:104CA0005800002010B540F225511848FCF746FE88
:104CB00001282AD11548FCF77FFDC4B214480068CA
:104CC00048B9F02C07D11120114908604FF0FF308E
:104CD0001049086018E00F480068401C0D49086042
:104CE0000D490C54084600780A49096888420BD1DE
:104CF000094808490968405C0A2802D10648FDF7BE
:104D000051FE00200249086000BF10BD004800406D
:104D10009400002098000020F0000020014A024981
:104D200000F07AB8B32900088C00002000B52DED02
:104D3000048BB0EE409AF0EE609A83B051EC190B00
:104D4000FFF7D7FD41EC180B18EE100A18EE901A79
:104D50008DED008B002818BF0120084320F0004093
:104D6000C0F17F6000F1E040C00F14D019EE101ABE
:104D700019EE900A8DED009B002918BF0121084310
:104D800020F00040C0F17F6000F1E040C00F04BFA0
:104D9000012000F017F8B0EE480A03B0F0EE680A00
:104DA000BDEC048B00BD02E008C8121F08C1002A38
:104DB000FAD170477047002001E001C1121F002A9C
:104DC000FBD1704701490860704700009000002047
:104DD0000E480068012805D90C480068401E0B49A0
:104DE000086011E00948006801280DD107480068F3
:104DF000401E064908600648007828B10120054990
:104E0000086000200249087070470000440000203C
:104E10003C000020400000202DE9F04116460F46DE
:104E20000446002503E03946B047641C6D1C207819
:104E30000028F8D12846BDE8F081000010B51048E0
:104E40000068401C0E4908600E48006809688842E6
:104E500003D800200A49086010E00A484068084961
:104E60000968884205D84FF400410748FDF7D8FA91
:104E700004E04FF400410448FDF7D4FA10BD0000EF
:104E80002C00002024000020001802400001020332
:104E9000040506070A0B0C0D0E0F10110203040582
:104EA0000607080900000B0B0B0B0B0B0B0B00008C
:104EB000D04E000800000020A0000000A64D000811
:104EC000704F0008A000002088040000B64D0008C4
:104ED000007A030A00000000000000000102030441
:104EE0000607080900000000010203040102030490
:104EF0000607080900000000000000000000000094
:104F000000000000000000000000000000000000A1
:104F10000000000000000000000000000000000091
:104F20000000000000000000000000000000000081
:104F30000000000000000000000000000000000071
:104F40000000000000000000000000000000000061
:104F50000000000000000100000000000000000050
:104F60000000000000000000FFFFFFFF0000000045
:040000050800018965
:00000001FF
